:100000006025002019120000C30A0000230F000021
:1000100047100000DD110000FF110000000000008B
:100020000000000000000000000000000B120000B3
:1000300035120000000000003712000079100000A7
:100040006B0F0000391200006F0600003B12000029
:100050003D1200003F1200004F0B00004112000053
:100060004312000045120000471200004912000030
:100070004B1200004D1200004F1200005112000000
:1000800053120000551200005712000059120000D0
:10009000CB100000D3100000DB100000E3100000C4
:1000A000EB100000F31000005B1200005D12000076
:1000B0005F1200006112000000000000000000005C
:1000C0006312000065120000671200006912000050
:1000D0006B1200006D1200006F1200007112000020
:1000E0007506000073120000751200000000000089
:1000F00000000000771200000000000079120000EC
:1001000000000000000000000000000000000000EF
:1001100000000000000000000000000000000000DF
:1001200000000000000000000000000000000000CF
:1001300000000000000000000000000000000000BF
:1001400000000000000000000000000000000000AF
:10015000000000000000000000000000000000009F
:10016000000000000000000000000000000000008F
:10017000000000000000000000000000000000007F
:10018000000000000000000000000000000000006F
:10019000000000000000000000000000000000005F
:1001A000000000000000000000000000000000004F
:1001B000000000000000000000000000000000003F
:1001C000000000000000000000000000000000002F
:1001D000000000000000000000000000000000001F
:1001E000000000000000000000000000000000000F
:1001F00000000000000000000000000000000000FF
:1002000081B000220A5008580090009801B0704751
:10021000085800B10120C0B2704700F20C5001E054
:1002200000F5A16001608260704741EA420141EA45
:10023000830210B50299202842EA012232BF4FF012
:10024000A04400F01F00DFF83444039904EB800061
:1002500042EA0141C0F8001710BD00B583B000218B
:100260000191009101220023114606E000B583B000
:100270000022019200920B460021FFF7D6FF07BD36
:10028000202832BFDFF8F81300F01F00DFF8F41366
:10029000012202FA00F008607047DFF8EC1308B999
:1002A0000846704701F10800704738B50D4604460E
:1002B000286810F1010F04D0FFF7E2FF2868FFF76C
:1002C000CCFF686810F1010F1CBF0021FFF7CEFFC3
:1002D0002068AA6900F224510A606A7D2B7D1A43C6
:1002E0008A6429686A68FFF798FF287D012815D17C
:1002F000A86810F1010F1CBF0021FFF7B7FFE868E5
:1003000010F1010F04D0FFF7BBFFE868FFF7A5FF6E
:10031000AA68E9682068BDE8384081E731BD38B592
:1003200004460D4620684FF48871FFF769FF206886
:100330004FF49071FFF764FF20684FF49271FFF75C
:100340005FFF00F0CDF82068DFF84013C0F8041319
:1003500000032946BDE83440001600F0A1B9F8B505
:1003600000F023F800EB41161746F07E08B1082094
:10037000F2BD687F307729462046FFF796FF776009
:1003800028693060706818B1297F2046FFF7C7FFE1
:1003900021680820C1F800050020F0753076B0759E
:1003A0000120F0760020B076F2BD0D460446DFF85D
:1003B000E00221797047F8B500F0E4F84FF490714D
:1003C000FFF71EFF20684FF4AC71FFF719FF21689B
:1003D000A87DAB6801F244520026136050600120F2
:1003E0008860686870B920684FF49071FFF710FF5B
:1003F000074600F0C3F850EA0701F4D000B10F2619
:100400000020A8753046F2BDF8B5FFF7CEFF00EB2F
:10041000411705F06040B0F1005F16460AD1204652
:1004200000F00CF840B9BE75BD60B8822046BDE84A
:10043000F240C0E71020F2BD1120F2BD00799449CE
:1004400001EB4010807D00B1012070472DE9F041A3
:1004500004460E462068174698464FF48871FFF709
:10046000CFFE00F03DF8206800F2345100250E6008
:10047000B8F1000F4F6002D10121016005E0D0F812
:10048000001241F02001C0F800122179804E06EBE5
:1004900041114968E9B920684FF48871FFF7B8FE47
:1004A000804620684FF4A271FFF7B2FE074620682D
:1004B0004FF49271FFF7ACFE47EA08010143EAD01E
:1004C000217906EB4111CD7500B103252FB10F2520
:1004D00003E04FF40471C0F804132846BDE8F0812E
:1004E00020684FF4A2718BE670B50479684B03EB7A
:1004F000441401F06043B3F1005F13D16668002338
:100500004FF404751EB1066806F541767560E67D08
:1005100076B1237E43B1616811B10068C0F804531D
:10052000112070BD102070BD01232161227603E0EF
:10053000E275E16063762376BDE8704086E700B53A
:1005400085B0034601208DF808108DF80000019257
:1005500000A819685A680EE000B585B00246002070
:100560008DF800008DF808109068019000209075BB
:1005700000A811685268904705B000BD20684FF48C
:10058000AC7145E604464248217900EB41152068EC
:1005900070477FB50C464FF492710546FFF738FE61
:1005A00005F23C56C0B14FF4927100F05EF80220A3
:1005B0008DF80000D5F88004C5F8800403903068F9
:1005C0008DF80800E06801900020E0752076216831
:1005D000626800A8904722E04FF488712846FFF730
:1005E00017FEE0B14FF4887100F03FF83168E07D0C
:1005F000C9B2814213D1E268207E60B1D5F8000211
:1006000020F02000C5F80002207EE0752069E0603F
:100610000020207600E0E0752046FFF790FF4FF4C1
:10062000A2712846FFF7F4FD68B14FF4A27100F003
:100630001CF8E07D38B10020E07520463168E268A2
:10064000C9B2FFF77CFF4FF490712846FFF7E0FD39
:1006500050B14FF4907100F008F8A07D20B13169DD
:10066000C9B22046FFF778FF7FBD2846C8E5084994
:1006700008488EE7084909488BE70000000300504E
:100680000805005008080050000000201003020078
:10069000D804002000200040F80400200080024020
:1006A00010B54901020006D50A4B00F00F04E3180B
:1006B00003F8041C01E0084C01554109012200F037
:1006C0001F0002FA00F0054A42F82100044A42F8ED
:1006D000210010BD18ED00E000E400E080E200E041
:1006E00000E100E02DE9FC4104460D46FFF7D5FD91
:1006F000DFF8E07200F069F9287807EB041607EBE1
:10070000042838B301282FD16868017806F11C004D
:1007100000F0B9F960B906F11C0000F081F938B1B8
:100720000C2010FB04F0C119097A09B1C0598047A7
:1007300006F11C0000F074F9318C814206D30122CD
:1007400008F15C0100A8FFF7CFFE0DE0E1190120E0
:10075000887609E008F51774214606F13C0000F0A0
:10076000A2F908B900F02AF9BDE8F381014600209A
:10077000B8E701460120B5E72DE9F0420446022C16
:100780008AB0894616461F4680F2A2800FF2702179
:10079000DFF8405202A891EC080B80EC080B2046D1
:1007A000FFF77BFD0246D2E90001CDE900010C20F4
:1007B00010FB0450002101724172B9F5966F039647
:1007C00002972DD0B9F5166F2DD0B9F5965F2DD0C3
:1007D000B9F5165F2CD0B9F5615F2BD0B9F5964FFE
:1007E0002AD0B9F5E14F29D0B9F5164F28D0B9F57F
:1007F000614F28D0B9F5963F28D0B9F5E13F27D011
:10080000B9F5613F27D07448814527D0B9F5E12F6C
:1008100027D0B9F5612F27D07048814527D029E02E
:100820004FF49E2025E04FF41D2022E06C4820E08C
:100830006C481EE06C481CE06C481AE06C4818E0FC
:100840004FF41D0015E04FF46B0012E0694810E012
:100850004FF0EB700DE04FF06C700AE04FF08060ED
:1008600007E04FF0E86004E04FF0706001E04FF007
:100870008050089005EB041705EB04264FF48072B6
:1008800006F15C0107F11C0000F0ECF84FF48072F7
:1008900006F5177107F13C0000F0E4F8002C0CBFDE
:1008A000554A564A02A900A8FFF759FD0398FF28A8
:1008B0000BD09DF8250010B900A8C046C046012203
:1008C00006F15C0100A8FFF70FFE61190120087610
:1008D0000AB0BDE8F082022806DA0C2250433D4AF5
:1008E00081508018012101727047F8B50446022C2E
:1008F0000D46164601DB0020F2BD002704E0791901
:10090000204600F019F87F1CB742F8D30120F2BD51
:10091000F8B5022804460D4616460CDA2D49401853
:10092000007E40B1002704E0795D204600F023F806
:100930007F1CB742F8D3F1BD2DE9FC410546022DDD
:10094000884616DAFFF7A9FC00F03EF8AF1906EB6F
:100950000510BC7E41461C3000F0A5F84CB10020CB
:10096000B876012206EB052000F15C0100A8FFF734
:10097000BBFDBDE8F381F0B50546022D83B00C4602
:100980001BDAFFF78AFC00F01FF806EB051721467B
:1009900007F13C0000F077F878B900A8FFF74EFDAA
:1009A00058B906EB052000F51774214607F13C0005
:1009B00000F079F808B900F001F8F7BD01222146EE
:1009C00000A8FFF721BD0000024ED0E90023CDE9C9
:1009D000002370471400002090D0030040420F0015
:1009E00000B013000050270000F03A0000A04E00B5
:1009F00000C0750000903A016D0700007307000009
:100A0000FFFFFFFFFFFFFFFFFFFFFFFFFFFFFFFFF6
:100A100000000000000000000000D60107010000F7
:100A20008168C068401A704710B50268C36884883E
:100A300023409954C168491CC16010BD10B50368BA
:100A40008468808814FA81F10840C05C107010BD81
:100A500010B50A4604460021FFF7F0FFA068401CCD
:100A6000A06010BD09B90E20704712B1531E134289
:100A700001D0092070470160511E818000218160F2
:100A8000C1600020704738B504460D46FFF7C8FF27
:100A9000A188814205D329462046FFF7C5FF0020E3
:100AA00032BD042032BD38B504460D46FFF7B8FF0D
:100AB00028B129462046FFF7CBFF002032BD052094
:100AC00032BDFEE7DFF81C120858012818BF0020CD
:100AD000704700F1804000F5C040002181B0016006
:100AE00000680090009801B07047202832BFDFF8FE
:100AF000FC2100F01F00DFF8F82152F8203023F429
:100B0000403342F8203052F8203043EA01411BE0E4
:100B10007CB50FF2EC1460CC00AB60C3034607E079
:100B200000AC54F82340D4F8104542F8044B5B1C49
:100B30000C18A342F4D373BD012200F00703C008D0
:100B40009A40405C1040704742F8201070472DE9F1
:100B5000F04F89B002A800210A4606C000264FF4D3
:100B60008079012708250FFA89F0FFF7ABFF0028ED
:100B70001EBF61480068384204D00FFA89F0FFF7C1
:100B8000A8FF3E437F006D1E09F10409EBD14FF42D
:100B9000BE70FFF797FF50B14FF4BE70FFF799FF9B
:100BA00002AA02210020FFF7B3FF46F000463006FC
:100BB000DFF8409115D00127504C37420DD054F842
:100BC000250054F8251059F82520130005D0090CEC
:100BD00001F00301C0F3052090477F006D1C082D34
:100BE000EBD3002E7BD506A80021002206C04FF0D3
:100BF000FF300090019006AE06E0049A0292416038
:100C0000069A7068009201900027002505EB090004
:100C100090F96000C4B210F1010F24F0C0084BD06D
:100C200000A94046FFF788FF002845D0A00900F042
:100C3000030408EB090090F9300059F820A0BAF13C
:100C4000000F02D1032C37D101E0032C08D14FEA69
:100C5000D8000122815D08F007039A4011438155B5
:100C60004046202832BF4FF0A04100F01F001E492F
:100C700001EB800002A9D0F80007000C00F0030B84
:100C80004046FFF759FF18B1BBF1020F14D102E043
:100C9000BBF1030F10D1032C08D1BBF1020F0CBF25
:100CA000032102214046FFF720FF7F1CBAF1000F0D
:100CB00002D021464046D0476D1C042DA6D3FFB27A
:100CC0006FB104AA02210020FFF722FF049A029BC1
:100CD000059902A89A4204BF426891428DD109B099
:100CE000BDE8F08F00600040000300500007005096
:100CF000000A0050700400200463004010650040AA
:100D000000000050000300503F480168082904BF5C
:100D10004168002906D13D4900220A604A6000214D
:100D20003B4A11600168082904BF4168002923D1AA
:100D3000384A394913680B6053684B6093688B607D
:100D4000D368CB6013690B6153694B6193690B6284
:100D5000D3694B62136A8B62536ACB62936A0B63EB
:100D6000D36A4B63136B0B64536B4B64936B8B6451
:100D7000D36BCB64126C0A650168082904BF416813
:100D8000002902D1254A264911600168082904BFBB
:100D90004168002902D1234AFB211160016808291A
:100DA00004BF4168002909D11F49204B0A681B78FC
:100DB000120903F00F0343EA02120A6001680829CE
:100DC00004BF4168002903D1194A4FF40071116032
:100DD0000168082904BF4068002806D11548016849
:100DE000C90744BF6FF0010101601348016841F475
:100DF00070010160BFF34F8FBFF36F8F0F49104831
:100E00000860704700000000300100100C01004035
:100E1000380500400404001020C500408C560040F6
:100E20004881030018F50040E40E0040580200100D
:100E3000409602400004004088ED00E010000020D1
:100E40000090D00341EA420141EA830210B50299C1
:100E5000202842EA012232BF4FF0A04400F01F00D8
:100E6000164C039904EB800042EA0141C0F80017D8
:100E700010BD00B583B00022019200920B46002104
:100E800006E000B583B00B460192002100220092DB
:100E9000FFF7D8FF07BD202832BF4FF0A04100F078
:100EA0001F00064901F2045101230A6803FA00F009
:100EB00020EA02034B601040886070470003005036
:100EC000092900D9704700B583B0DFE801F00507B4
:100ED000090E101214171A20002102E0032100E06D
:100EE000012103B05DF804EBC3E7032204E0032211
:100EF00005E0032206E00222002104E00222032191
:100F000001E00222012103B05DF804EBB9E7002102
:100F100001910091012200231146FFF793FF07BDC5
:100F2000B9E7FEE74FF0804181B0002242504058BF
:100F30000090009801B0704700F18040006800B157
:100F40000120C0B2704738B50400194814BF00F141
:100F5000100500F1080504E008682860204649688B
:100F6000884729680029F7D131BD38B54FF4807022
:100F7000FFF7E2FF0E4C0F4D48B14FF48070FFF7C2
:100F8000D1FF0120286060700020FFF7DCFF4FF4E4
:100F90008270FFF7D1FF50B14FF48270FFF7C2FFAC
:100FA000022028600120A070BDE83240CBE731BDAF
:100FB000400500200803004080B5012200A9002060
:100FC000FFF793FC012200A9012008E080B501226F
:100FD00000A90120FFF789FC012200A90020FFF7EA
:100FE00097FC01BD80B5062308224FF4E1310020B3
:100FF000FFF7C2FB222321224FF4E1310120FFF74A
:10100000BBFB07490020FFF766FC06490120FFF7FC
:1010100062FCBDE8044009210D20FFF751BF00002C
:10102000B90F0000CD0F000080B50D20FFF778FF4D
:10103000BDE80240C82000F024B880B5FFF7D2FF19
:10104000FFF7F2FFFCE7FEE7154800684FF47A71FE
:10105000B0FBF1F0401EB0F1807F0CD21149124A72
:101060004860E020107000208860072008600120A0
:101070000E4908707047FEE70C484168491C416002
:10108000704738B5094D0446287808B9FFF7DCFFEA
:101090002CB16868611E6A68121A9142FBD231BD98
:1010A0001000002010E000E023ED00E054050020D7
:1010B00010B5124A02EB400302EB80029C888C437D
:1010C0009C80BDE81040126910470C4881880020C0
:1010D000EEE70A48C1880120EAE7084801890220B2
:1010E000E6E7064841890320E2E7044881890420B5
:1010F000DEE70248C1890520DAE700001805002074
:1011000019E050F8041BCB0744BFA9F1010359189B
:10111000121F0023042A41F8043BF9D25FEA827CC3
:101120000B4604D54FF0000CA1F800C09B1CD10762
:1011300044BF0021197050F8042B002AE1D17047F8
:1011400010B450F8041B79B10268436812180830D3
:10115000DC0744BFA9F10104E31852F8044B43F83B
:10116000044B091FF9D1ECE710BC704710B50749D3
:1011700079441831064C7C44163404E00A68081D92
:10118000511888470146A142F8D110BD2C0000003B
:101190004C0000004EF68851CEF20001086840F481
:1011A00070000860BFF34F8FBFF36F8F4FF0007078
:1011B000E1EE100A7047000049FFFFFF48050000FC
:1011C000140000200000000079FFFFFF1400000061
:1011D000AC0000000000002000000000FEE700005E
:1011E0000120C046002801D0FFF7C0FF0020C04604
:1011F000C046FFF722FF00F000F800F001B8FEE75C
:101200000746384600F002F8FBE7FEE72021090315
:1012100026311820ABBEF9E7014880470148004756
:10122000090D000029120000C046C046FFF7B2FFBA
:10123000FFF7D6FFFEE7FEE7FEE7FEE7FEE7FEE785
:10124000FEE7FEE7FEE7FEE7FEE7FEE7FEE7FEE776
:10125000FEE7FEE7FEE7FEE7FEE7FEE7FEE7FEE766
:10126000FEE7FEE7FEE7FEE7FEE7FEE7FEE7FEE756
:10127000FEE7FEE7FEE7FEE7FEE700000020004095
:101280000000000000800240010000000090D00338
:0400000500001229BC
:00000001FF
