:10000000B0240020C94700006B11000097340000A5
:10001000EF340000374500004547000000000000B5
:100020000000000000000000000000008747000002
:1000300093470000000000003D480000AD41000073
:10004000CF3900003F480000091900005D2D000075
:100050004148000043480000ED2E000045480000E4
:1000600047480000494800004B4800004B3600005C
:100070004D4800004F480000514800005348000020
:1000800055480000833600005748000059480000DA
:10009000A5450000B3450000C1450000CF45000064
:1000A000DD450000EB4500005B4800005D480000B6
:1000B0005F480000614800000000000000000000F0
:1000C000634800006548000067480000FF440000E6
:1000D000BB360000694800006B4800009D0D000021
:1000E000151900006D4800006F4800000000000076
:1000F000000000007148000000000000734800008C
:1001000000000000000000000000000000000000EF
:1001100000000000000000000000000000000000DF
:1001200000000000000000000000000000000000CF
:1001300000000000000000000000000000000000BF
:1001400000000000000000000000000000000000AF
:10015000000000000000000000000000000000009F
:10016000000000000000000000000000000000008F
:10017000000000000000000000000000000000007F
:10018000000000000000000000000000000000006F
:10019000000000000000000000000000000000005F
:1001A000000000000000000000000000000000004F
:1001B000000000000000000000000000000000003F
:1001C000000000000000000000000000000000002F
:1001D000000000000000000000000000000000001F
:1001E000000000000000000000000000000000000F
:1001F00000000000000000000000000000000000FF
:10020000800010F58070704700F1804010F51C30C0
:10021000704700F1804010F51C30704710B50400A5
:10022000E4B22000FFF7F0FF01210160BFF36F8F00
:10023000BFF34F8F10BD10B5040024B22000FFF7AC
:10024000E3FF00210160BFF36F8FBFF34F8F10BD3D
:1002500010B5040024B22000FFF7DBFF006800287F
:1002600001D0012000E00020C0B210BD38B504006C
:10027000200000B2FFF7ECFF0500EDB2002D03D027
:10028000200000B2FFF7D7FF2800C0B232BDDFF870
:10029000E01809680143DFF8D8281160704710F1B1
:1002A000010F04D10021DFF8C828116006E0DFF853
:1002B000C01809688143DFF8B82811607047DFF87B
:1002C000B40800687047DFF80C0900687047DFF871
:1002D00004190860BFF36F8FBFF34F8F704710B5DD
:1002E000FFF7F1FF04002000FFF7F1FFBFF36F8F6E
:1002F000BFF34F8F200010BDDFF8DC0800687047A7
:10030000DFF8D4180860BFF36F8FBFF34F8F7047CB
:1003100010B5FFF7F1FF04002000FFF7F1FF200008
:1003200010BDDFF8B80800687047DFF8B018086043
:10033000BFF36F8FBFF34F8F704710B5FFF7F1FF1B
:1003400004002000FFF7F1FFBFF36F8FBFF34F8F63
:10035000200010BDDFF888080068C0B270470100B7
:1003600011F00F00082807DBDFF878080068C203E7
:1003700001D50022100005E0DFF86C0811F00F0134
:1003800050F8210070470021DFF85C2810F00F03BF
:1003900042F82310BFF36F8FBFF34F8F7047C0B287
:1003A000DFF8D01908607047DFF8CC0900687047A3
:1003B00030B4C0B203061BD510F00F03082B06DBC8
:1003C000DFF8B8391960DFF8B8391A602BE010F09F
:1003D0000F03DFF8B049DBB2142505FB03442160AD
:1003E000DFF8A049DBB2142505FB03435A601AE08D
:1003F00010F00F03082B06DBDFF88C391960DFF8EB
:100400008C391A600FE010F00F03DFF8944BDBB269
:10041000142505FB03442160DFF8844BDBB214256F
:1004200005FB03435A6030BC7047DFF8640900786D
:10043000C0B2082807D1DFF86C0B007810F00F0F5E
:1004400001D1012000E00020C0B2704780B5FFF765
:10045000ECFF00280DD0DFF83C09007810F0F00F19
:1004600007D1DFF8440B007810F0F00F01D1012024
:1004700000E00020C0B202BD80B5FFF7E7FF02BD7B
:1004800080B5FFF7E3FF02BDF0B4020052E8005F61
:1004900005EA010642E8006797F0000FF6D13C003C
:1004A00030002B00F0BC7047C0B2010602D5DFF867
:1004B000E81801E0DFF8F41A10F00F0031F910002D
:1004C0007047C0B27047C0B2010601D5042100E0F8
:1004D000282110F00F0011EB8000C0B27047C0B2AD
:1004E000010602D5DFF8C81A01E0DFF8D01A10F0D3
:1004F0000F0011EB00107047C0B2010601D50021BA
:1005000000E0102110F00F004018C0B27047C0B2D8
:10051000102801DB103801E050F08000C0B27047B5
:1005200010B504002000C0B2FFF7CDFFC0B2FFF746
:1005300075FE10BDF8B50400002000F0E7FD2000B6
:10054000C0B2FFF7CCFF0500200633D4DFF8640A01
:100550000068C6432000C0B2FFF7CEFF3100C140A3
:10056000C80704D52000C0B200F064FD1FE00020E1
:100570002860DFF8400A066801272000C0B2FFF7B4
:10058000BBFF17FA00F036EA0000DFF8281A08600F
:10059000DFF8240A066801272000C0B2FFF7ACFF8D
:1005A00017FA00F036EA0000DFF80C1A08600320A2
:1005B000A8733BE0DFF8FC090068DFF8FC19096864
:1005C00070EA01062000C0B2FFF796FF3100C1407B
:1005D000C8072BD5DFF8DC09066801272000C0B268
:1005E000FFF78AFF17FA00F036EA0000DFF8C419B7
:1005F0000860DFF8C409066801272000C0B2FFF7D1
:100600007BFF17FA00F03043DFF8AC1908600020D8
:1006100028600320A873DFF8A809006800908DF80F
:10062000024000A8DFF8AC1909688847002000F0F4
:1006300072FDF1BD80B50020DFF888190870002038
:10064000DFF884190870DFF884090068009000A8BA
:10065000DFF880190968884701BD38B5FFF758FEF3
:100660000400002C0BD094FAA4F0B0FA80F5280016
:10067000C0B2FFF74CFF0121A9408C43F1E731BD27
:1006800038B580240020DFF8481908702000C0B277
:10069000FFF725FF0500A87B03280CD12000C0B27E
:1006A000FFF72AFF012111FA00F0C143DFF8040926
:1006B000FFF7EAFE0EE0286800280BD12000C0B248
:1006C000FFF71AFF012111FA00F0C143DFF8E40837
:1006D000FFF7DAFE31BD38B504000020DFF8F0186E
:1006E00008702000C0B2FFF7FAFE0500A87B0328BF
:1006F0000CD12000C0B2FFF7FFFE012111FA00F07B
:10070000C143DFF8B008FFF7BFFE0EE028680028FD
:100710000BD12000C0B2FFF7EFFE012111FA00F06B
:10072000C143DFF89008FFF7AFFE31BD38B50400D4
:100730000020DFF89C1808702000C0B2FFF7CFFE41
:100740000500A87B03280CD12000C0B2FFF7D4FE1F
:10075000012111FA00F0C143DFF85808FFF794FEB9
:1007600019E02868002816D12000C0B2FFF7C4FEA7
:10077000012111FA00F0C143DFF83808FFF784FEC9
:10078000DFF85408006800908DF8024000A8DFF8F8
:1007900044180968884731BD38B500240020DFF8C7
:1007A000301808702000C0B2FFF799FE0500A87B42
:1007B00003280CD12000C0B2FFF79EFE012111FAE0
:1007C00000F0C143DFF8EC07FFF75EFE1AE028688F
:1007D000002817D12000C0B2FFF78EFE012111FAC8
:1007E00000F0C143DFF8CC07FFF74EFEDFF8EC075F
:1007F000006800908DF8024000A8DFF8D81709685B
:10080000884701E000F0FCFB31BD38B50400002052
:10081000DFF8BC1708702000C0B2FFF760FE0500CB
:10082000A87B03280CD12000C0B2FFF765FE012190
:1008300011FA00F0C143DFF87C07FFF725FE19E04D
:100840002868002816D12000C0B2FFF755FE01210C
:1008500011FA00F0C143DFF85C07FFF715FEDFF87F
:100860008007006800908DF8024000A8DFF8641748
:100870000968884700F0C1F931BD38B5040000208F
:10088000DFF84C1708702000C0B2FFF728FE050003
:10089000A87B032819D02868002816D12000C0B2F0
:1008A000FFF72AFE012111FA00F0C143DFF8040727
:1008B000FFF7EAFDDFF82C07006800908DF8024092
:1008C00000A8DFF810170968884731BD80B5FFF729
:1008D000D7FE01BD80B58120FFF7FDFE01BD80B5CB
:1008E0008220FFF7F8FE01BD80B58320FFF7F3FEFD
:1008F00001BD80B58420FFF7EEFE01BD80B58520E7
:10090000FFF7E9FE01BD80B58620FFF7E4FE01BDDB
:1009100080B58720FFF7DFFE01BD80B58820FFF797
:1009200005FF01BD80B5FFF737FF01BD80B5012090
:10093000FFF76BFF01BD80B50220FFF766FF01BD29
:1009400080B50320FFF761FF01BD80B50420FFF7EC
:100950005CFF01BD80B50520FFF757FF01BD80B5E5
:100960000620FFF752FF01BD80B50720FFF74DFFBE
:1009700001BD80B50820FFF780FF01BD70B582B0D2
:10098000DFF8780600680090FFF70EFDADF8020072
:100990008820FFF7B1FDDFF820160C68012111FA5D
:1009A00000F501260820FFF7A7FD16FA00F02843FE
:1009B0002043DFF80416086000A8DFF8F016096885
:1009C000884773BD30B583B004000D00DFF8E8053B
:1009D00000680121A9400843DFF8DC150860E4B293
:1009E000200612D5DFF8CC0500680100E940C807F1
:1009F0001DD4DFF83806006801908DF8064001A884
:100A0000DFF8A8160968884711E0DFF8A805006834
:100A10000100E940C8070AD4DFF814060068009016
:100A20008DF8024000A8DFF884160968884737BDB2
:100A300080B5DFF87C060078FFF75EFD0100C9B2E3
:100A4000DFF86C060078FFF7BDFF01BD70B582B01E
:100A50000420FFF724FCFFF77DFC0400DFF85405B9
:100A60000068DFF854150968C94389B251EA0005E6
:100A7000DFF854050078FFF73FFD2900C140C807A3
:100A800004D5DFF844050078FFF754FD200604D4B0
:100A90000020DFF83415087003E08020DFF8281507
:100AA00008700020FFF728FD05008020FFF724FDD7
:100AB0000121A940012212FA00F00843C143DFF8E6
:100AC000F404FFF7E1FCDFF8F0040568012680205C
:100AD000FFF712FD16FA00F02843DFF8DC14086077
:100AE000DFF8D0050068009000A8DFF8C01509689D
:100AF000884773BD10B584B0FFF7F1FB0400E00533
:100B00000CD50120DFF8BC140870DFF8AC050068D4
:100B1000029002A8DFF8941509688847A0050CD553
:100B20000020DFF8A0140870DFF89005006801903D
:100B300001A8DFF8781509688847600517D5DFF840
:100B400084040078002812D00020DFF878140870A0
:100B50000120FFF724FC5820FFF760FBDFF8600559
:100B60000068009000A8DFF84415096888471FBD99
:100B7000007202400473024070B5FFF7DEFB040010
:100B8000FFF77AFC00280DD0DFF83805006830F058
:100B900001100443DFF82C05006810F00110DFF8A5
:100BA00024150860002C12D094FAA4F0B0FA80F555
:100BB0002800C0B2FFF7ABFC06000120A840844328
:100BC0002900C9B23000C0B2FFF7FCFEEAE700F02E
:100BD00014F870BD00740240687402406C740240E6
:100BE00080740240C0740240A0740240704701004B
:100BF00091FAA1F0B0FA80F070472DE9F04784B087
:100C0000DFF8CC030078002840F0B180DFF8A403BF
:100C10000068DFF8A413096808400400002C00F005
:100C2000A6802000FFF7E3FF05002800C0B2FFF711
:100C30006EFC06003000C0B2FFF751FC0700F6B2B0
:100C4000300613D5BA89796801A83B689847804671
:100C50005FFA88F8B8F1000F37D100203860F6B29B
:100C6000802E32D10420FFF712FB2EE03000C0B2FC
:100C700000F0BAF981464B46BA89796801A8D7F8DD
:100C800000C0E04780460198002817D002984845E8
:100C900014D20220B8730120A840C143DFF8140326
:100CA000FFF7F2FBDFF82004006800908DF8026087
:100CB00000A8DFF8201309688847A7E75FFA88F8DB
:100CC000B8F1000F01D1002038600120DFF80013D7
:100CD0000870DFF8E40200680121A9408843DFF8CA
:100CE000D8120860B86802990818B860029A019989
:100CF0003000C0B2FFF75CFBFFF7BEFB002831D02D
:100D00005FF0FF395FF0FF3A4FF48270FFF793FA1C
:100D10003000C0B2FFF704FC022000F01EFA1AF106
:100D2000010A4FF48270FFF793FA0028ECD01E20DE
:100D300000F013FADFF894030068800603D4022061
:100D400000F00BFAF6E7012000F007FA19F10109AB
:100D50003000C0B2FFF7A8FB00B2FFF779FA002815
:100D6000D0D003E03000C0B2FFF7DAFBFFE7BDE808
:100D7000FF8700000875024020750240A0760240FF
:100D8000A476024000760240A0770240A477024099
:100D9000E00F00F0E80F00F0A04700002DE9F0415F
:100DA000FFF78DFA040025000026002D13D095FAD8
:100DB000A5F0B0FA80F7FFB23800FFF721FA00B2D1
:100DC000FFF754FA002802D00120B8400643012062
:100DD000B8408543E9E7FFF74FFB002800F0BE80ED
:100DE000DFF8EC010078002840F0B880B00240F154
:100DF000B58040F2A973DFF8D8723B60DFF8D432D7
:100E00001B681A00D2B2002A03D0DFF8C8321B6870
:100E10001A4040F2AA73DFF8B8723B60DFF8B432D0
:100E20001B681900C9B2002903D0DFF8A8321B687B
:100E3000194040F2AB73DFF898723B60DFF89432F0
:100E40001B681800C0B2002803D0DFF888321B6886
:100E5000184040F2AC73DFF878723B60DFF8743210
:100E60001B681A40D2B2002A16D0DFF858723F68C9
:100E7000D2B21743DFF84CC2CCF8007040F2A97729
:100E8000DFF84CC2CCF80070D2B2DFF848723A609A
:100E9000DFF840723F683B0040F2AD73DFF830721C
:100EA0003B60DFF830321B681940C9B2002917D007
:100EB000DFF810723F68C9B257EA0147DFF804C291
:100EC000CCF8007040F2AA77DFF804C2CCF80070CA
:100ED000C9B2DFF800723960DFF8F8713F683B0093
:100EE00040F2AE73DFF8E8713B60DFF8E8311B6871
:100EF0001840C0B2002815D0C70701D556F4000627
:100F0000C70601D556F0010640F2AB77DFF8C0C145
:100F1000CCF80070C0B2DFF8BC713860DFF8B47193
:100F20003F683B00DFF89C311B6833F00113002B56
:100F300002D014F080731E43DFF888311B6813F071
:100F4000011F0BD0630509D5DFF878311B6833F03A
:100F50000113DFF870713B6056F4806616F40000F0
:100F6000C70D36F40006002E0FD096FAA6F0B0FAA0
:100F700080F8DFF864015FFA88F850F828008047AD
:100F8000012010FA08F08643EDE7FFF736FEFFB2C6
:100F9000002F03D0DFF84001C06D8047BDE8F0812D
:100FA00000770240E40F00F0EC0F00F0B4470000BF
:100FB000580100209804002094040020C80000205C
:100FC00004480000A8040020A904002008480000EC
:100FD000AA040020900400200C48000010480000E3
:100FE000144800001848000010B504002000C0B2EA
:100FF000FFF767FAC0B2FFF7B2F910BD1C48000056
:1010000010B5FFF739FA00280BD0EFF3108472B651
:101010004C20FFF703F94C20FFF700F984F3108808
:1010200002E04C20FFF7FAF810BD00002048000055
:101030002448000070B50400FFF722FA00281DD0F4
:10104000002000F063F82548056801262000C0B2A2
:10105000FFF752FA16FA00F035EA00001F4908605F
:1010600014F00F00400000F2C5701949086000201C
:1010700018490860002000F04EF816E0002000F04B
:1010800045F81648056801262000C0B2FFF734FA7B
:1010900016FA00F035EA0000104908602000C0B2DE
:1010A000FFF771F9002000F036F870BD90040020C1
:1010B000A9040020284800002C4800003048000007
:1010C000344800009C04002038480000747402403A
:1010D000007802400478024000460000940400209A
:1010E00072B609480068401C074908607047064806
:1010F0000068401E0449086003480068002800D1C9
:1011000062B67047000000006404002010B50400BF
:10111000FFF7E6FF10BD10B50400FFF7E8FF10BDB4
:1011200004480068704704490968044AB1FBF2F1B9
:101130004843704718E000E0C400002040420F0020
:1011400038B50400FFF7ECFF0500FFF7E9FF281AA8
:101150000002000AA042F8D331BD10B504002000FF
:10116000FFF7E1FFFFF7ECFF10BDFEE7012110F0F4
:101170001F029140DFF8A82740B2430942F823102C
:10118000704710B50400200040B2FFF7EFFF10BD1C
:101190000100080B40B2704710F06040B0F1005FF2
:1011A00001D1012000E00020C0B2704781B00022D0
:1011B00009B20A5009B20A580092009A01B0704769
:1011C00009B20858002801D0012000E00020C0B278
:1011D0007047D0F800220A43C0F800227047D0F8C8
:1011E00000228A43C0F800227047C0F804137047F9
:1011F000C0F8081370470100D1F88004C1F88004DA
:1012000070470821C0F8001570470021C0F800158C
:101210007047C0F80C15C0F81425704710B50400CD
:101220005FF0FF325FF0FF312000FFF7F2FF10BDEB
:10123000D0F80C057047D0F814057047D0F80805B1
:101240007047D0F810057047C0F80815C0F8102591
:10125000704710B504005FF0FF325FF0FF312000EF
:10126000FFF7F2FF10BD0122C9B20A507047C9B2A0
:10127000D2B252EA0103C0F86C357047C0F82415A9
:101280007047C0F84415D2B2C0F848257047D0F86E
:101290004C057047C0F83415D2B2C0F838257047F5
:1012A000D0F83C05704701000868202802D25FF0A2
:1012B000A04005E0087810F01F000860DFF8640621
:1012C00070472DE9F14181B00E0017009846089C47
:1012D000099D01A8FFF7E7FFF6B2FFB256EA470102
:1012E0005FFA88F851EA8801E4B251EA0421EDB2CC
:1012F00051EA0541019A10EB8202C2F80017BDE8DD
:10130000F3811CB504000020019000200090002310
:10131000012201212000FFF7D4FF13BD30B583B0B7
:1013200004000D0000200190002000902B00DBB293
:10133000002200212000FFF7C4FF37BD1CB50400C8
:1013400000200190002000900023012200212000B5
:10135000FFF7B7FF13BD11B581B001A8FFF7A3FFD9
:1013600004000120019910FA01F1200000F001F8B9
:1013700013BDC0F8081570470100C9B2002902D199
:10138000DFF8A40501E0DFF8A405704738B50400D4
:101390000D00286810F1010F05D02868FFF7DBFF6A
:1013A0002868FFF7AEFF686810F1010F03D0002135
:1013B0006868FFF7B3FFA9692068FFF75FFF2A7D20
:1013C000697D2068FFF753FF6A6829682068FFF786
:1013D00020FF287D012816D1A86810F1010F03D045
:1013E0000021A868FFF79AFFE86810F1010F05D007
:1013F000E868FFF7B0FFE868FFF783FFAA68E968CD
:101400002068FFF721FF31BD38B504000D004FF40F
:1014100088712068FFF7CAFE4FF490712068FFF7CB
:10142000C5FE4FF492712068FFF7C0FE4FF4A27121
:101430002068FFF7BBFEDFF8F8142068FFF7D5FE41
:101440002068FFF7A5FE2900C9B240B200F0AAFA51
:1014500031BD10B50400DFF8D8142068FFF7C8FECE
:101460002068FFF795FE40B2FFF78BFE10BD2DE917
:10147000F04104002068FFF7DBFE05002068FFF75D
:10148000DAFE06002068FFF7D9FE07002068FFF7A4
:10149000D8FE80462068FFF7C1FE2068FFF7D9FE1E
:1014A00015F1010F02D02800FFF748FF16F1010FD8
:1014B00002D03000FFF742FF18F1010F02D0404682
:1014C000FFF73CFF17F1010F02D03800FFF736FF9E
:1014D000BDE8F08110B504002068FFF792FE10BD52
:1014E00010B504002068FFF790FE10BD2DE9F04113
:1014F00004000D001600DFF83C04217910EB4117C1
:101500005FF00008F87E002803D00820804640469F
:101510001DE0687F387729002000FFF737FF7E60E5
:10152000286938607868002803D0297F2000FFF7F9
:101530006BFF2000FFF7CEFF0020F8750020387603
:101540000020B8750120F8760020B8764046BDE846
:10155000F08138B50400DFF8DC03217910EB411588
:101560002000FFF7BDFF6868002802D02000FFF7C9
:1015700070FF2000FFF77BFF0020E8760020686006
:1015800031BD2DE9F0410400DFF8A803217910EB0B
:10159000411500264FF490712068FFF707FE4FF4C5
:1015A000AC712068FFF702FEAA7DA9682068FFF7EA
:1015B00068FE08212068FFF756FE6868002819D1E8
:1015C0004FF490712068FFF7FBFD07004FF4AC71FA
:1015D0002068FFF7F5FD804658EA0700C0B20028F2
:1015E000EED05FFA88F8B8F1000F01D00F200600A6
:1015F0000020A8753000BDE8F0812DE9F04104001D
:101600000D001600DFF82C03217910EB411728009C
:10161000FFF7C2FD002803D11020804640460FE0AE
:10162000200000F00FF8002803D01120804640462B
:1016300006E0BE75BD600020B8822000FFF7A1FF64
:10164000BDE8F081BB49007911EB4010807D002896
:1016500001D0012000E00020C0B270472DE9F84F12
:1016600004000D0016001F005FF000084FF48871A1
:101670002068FFF79BFD4FF4A2712068FFF796FDED
:101680003200D2B229002068FFF704FEFFB2002F1B
:1016900004D100212068FFF7E6FD03E02021206847
:1016A000FFF797FDA348217910EB4110406800280F
:1016B0002DD14FF488712068FFF782FD81464FF4E9
:1016C000A2712068FFF77CFD82464FF4927120687A
:1016D000FFF776FD83465AEA09005BEA0000C0B2D4
:1016E0000028E6D09348217910EB41100021C17504
:1016F0005FFA8BFBBBF1000F01D0032080465FFA3D
:101700008AFABAF1000F07D00F20804604E04FF4A8
:1017100004712068FFF769FD4046BDE8F28F2DE9AE
:10172000F84304000D0016008248217910EB4117A0
:101730002800FFF731FD002803D1102080464046E5
:1017400033E05FF000097868002804D04FF404719A
:101750002068FFF74DFDF87D002810D0387E002866
:101760000BD07868002804D04FF404712068FFF78C
:101770003CFD11208046404617E0012081465FFA7B
:1017800089F9B9F1000F06D1FE75FD600020787669
:101790000020387601E03D613E764B46DBB23200F8
:1017A000D2B229002000FFF759FFBDE8F2837FB5D0
:1017B00004000D00160001208DF800008DF808507F
:1017C0000196216800A8626890477FBD30B585B05A
:1017D00004000D0000208DF800008DF80850A0686E
:1017E00001900020A075216800A86268904705B0AC
:1017F00030BDF0B585B004000D004FF492712000AB
:10180000FFF7DEFC00281BD04FF492712000FFF799
:10181000CDFC02208DF800002000FFF7ECFC0390C7
:101820002000FFF73DFD8DF80800E86801900020DA
:10183000E87500202876296800A86A68904730E09B
:101840004FF488712000FFF7BBFC002829D04FF42B
:1018500088712000FFF7AAFC2000FFF721FD060099
:10186000E87DF6B286421CD1287E002811D0EF68B0
:1018700020212000FFF7B3FC287EE8752869E86086
:10188000002028763A003100C9B22800FFF78FFF08
:1018900007E00020E875EA683100C9B22800FFF7C8
:1018A00086FF4FF4A2712000FFF78AFC002812D0B7
:1018B0004FF4A2712000FFF779FCE87D00280AD0E0
:1018C0000020E8752000FFF7EBFCEA680100C9B2D0
:1018D0002800FFF76CFF4FF490712000FFF770FCB9
:1018E00000280FD04FF490712000FFF75FFCA87D17
:1018F000002807D02000FFF7CAFC0100C9B2280069
:10190000FFF764FF05B0F0BD80B50A490A48FFF74C
:1019100070FF01BD80B509490948FFF76AFF01BDA5
:1019200080E100E000030050AC000020B400002083
:1019300010030200780300200020004098030020DC
:1019400000800240012110F01F029140114A40B274
:10195000430942F823107047012110F01F02914003
:101960000D4A40B2430942F82310704710B440B208
:10197000002808D54A01094B40B210F00F04E318C3
:1019800003F8042C03E04A01054B40B2C25410BCDA
:101990007047000000E100E080E200E018ED00E0A8
:1019A00000E400E038B504000D00EDB2290020008D
:1019B00040B2FFF7DBFF200040B2FFF7CDFF200071
:1019C00040B2FFF7BFFF31BD012110F01F0291406F
:1019D000DFF8202740B2430942F823107047012264
:1019E000C9B20A50704781B0002209B20A5009B248
:1019F0000A580092009A01B0704709B208580028AE
:101A000001D0012000E00020C0B27047D0F80022D1
:101A10008A43C0F800227047C0F804137047C0F82A
:101A2000081370470621C0F8001570470021C0F860
:101A300000157047C0F80815C0F80C257047C0F8AD
:101A4000241570470100D1F8C404C1F8C4047047DC
:101A5000C9B2C0F888157047C0F84415D2B2C0F8B2
:101A600048257047C0F83415D2B2C0F83825704701
:101A7000C0F8001270470121C0F8501570470021CE
:101A8000C0F8501570470121C0F84015704700217B
:101A9000C0F84015704710B50400200040B2FFF7B1
:101AA00093FF10BD0100080B40B2704710F060407A
:101AB000B0F1005F01D1012000E00020C0B270470A
:101AC00001000868202802D25FF0A04005E00878F5
:101AD00010F01F000860DFF82006704711B581B0D4
:101AE00001A8FFF7EDFF04000120019910FA01F1B0
:101AF000200000F021F813BD11B581B001A8FFF757
:101B0000DFFF04000120019910FA01F1200000F02C
:101B100016F813BD11B581B001A8FFF7D1FF04007D
:101B2000200000F006F801990200CA4012F00100FE
:101B300016BDD0F810057047C0F808157047C0F8FA
:101B40000C157047DFF8B41500283ED0DFF8B0253B
:101B5000126800BF00BF00BF00BF00BF00BF00BFD2
:101B600000BF8A422FD000BF00BF00BF00BF00BF30
:101B700000BF00BF00BF00BF00BF00BF00BF00BF6D
:101B800000BF00BF00BF00BF00BF00BF00BF00BF5D
:101B900000BF00BF00BF00BF00BF00BF00BF00BF4D
:101BA00000BF00BF00BF00BF00BF00BF00BF00BF3D
:101BB00000BF00BF00BF00BF00BF00BF00BF00BF2D
:101BC00000BF00BF00BF401EC3D170470100C9B2B3
:101BD000012902D1DFF82C0501E0DFF82C05704760
:101BE000010003208A0702D548F2012210004A07AB
:101BF00002D548F202221000704738B5040040F2C6
:101C00000C60DFF80815626841F8220040F20C60B1
:101C1000DFF8F814226841F822006068FFF75EFFE1
:101C20002068FFF75BFF40F20D60DFF8E0146268A8
:101C300041F8220040F20D60DFF8D014226841F82C
:101C400022000420FFF77EFF0025092D15DA206809
:101C5000FFF760FF002802D0002D17D00DE060686C
:101C6000FFF74AFF0420FFF76DFF6068FFF736FFBC
:101C70000420FFF767FF6D1CE7E72068FFF73CFFD4
:101C80000420FFF75FFF2068FFF728FF31BD2DE933
:101C9000F04704000D0016001F00DFF874042179DE
:101CA000282202FB010898F82200002804D008200E
:101CB00081464846C0B240E0C8F80060C8F80470E9
:101CC0000020C8F80800002088F82500002088F8C7
:101CD0002400A87B88F82700687B002802D0280011
:101CE000FFF78BFF40F20C60DFF820146A6841F8C0
:101CF000220040F20C60DFF814142A6841F8220038
:101D0000D4F800A02A6869685046FFF793FEA968D6
:101D10005046FFF794FED8F80000002806D020684F
:101D2000FFF7C0FE297B40B2FFF73CFE012088F898
:101D30002200002081464846C0B2BDE8F08738B591
:101D40000400DFF8CC032179282202FB0105286872
:101D5000002805D02068FFF7A5FE40B2FFF79BFEE4
:101D6000200000F02AF895F82700002811D140F251
:101D70000230DFF898132268D2F8082541F82200D3
:101D800040F20230DFF884132268D2F80C2541F8C3
:101D90002200002085F8220031BD70B50400DFF874
:101DA00070032179282202FB010526683000FFF725
:101DB00039FE022085F8220070BD70B50400DFF8FE
:101DC00050032179282202FB010526680020A86023
:101DD0005FF0FF313000FFF722FE5FF0FF3130008F
:101DE000FFF714FE3000FFF721FE012085F82200E6
:101DF00070BD38B504000D00E80703D52000FFF7DB
:101E00003AFE02E02000FFF73AFEA80703D52000C3
:101E1000FFF739FE02E02000FFF739FE31BD2DE962
:101E2000F84F04000D0016001F005FF0000A5FF07D
:101E300008084FF482797068FFF738FE002804D153
:101E4000102082465046C0B223E15FF0FF312800E7
:101E5000FFF7E5FD94F82400002808D0A1682800C9
:101E6000FFF7DAFD112082465046C0B211E117F0AB
:101E7000140F01D0002000E00120002801D0012033
:101E800000E0002084F8240014F10C000ECE0EC0F7
:101E90000C3E0C38380910F0010084F825007178E8
:101EA0002800FFF7D5FD4FF482712800FFF79BFD56
:101EB0004FF492712800FFF796FD39002800FFF7D4
:101EC00098FF3078002863D0022844D0C0F0858085
:101ED000032840F09680B068FFF7E8FD002804D1A1
:101EE000102082465046C0B2D3E04FF480712800E3
:101EF000FFF7BEFDB27871682800FFF7ADFD4FF423
:101F0000A8712800FFF76FFD4FF4B0712800FFF7AC
:101F10006AFD4FF4A4712800FFF765FD2021280019
:101F2000FFF75DFD08212800FFF759FD4FF4A87168
:101F30002800FFF762FD0028F8D04FF4A8712800B0
:101F4000FFF751FDF278B1682800FFF785FDDFF853
:101F5000C401A06057E0B27871682800FFF77CFDEB
:101F6000B068FFF7A3FD002804D110208246504638
:101F7000C0B28EE0F278B1682800FFF773FD4FF42D
:101F800084512800FFF774FD40F20220A0603AE07F
:101F9000B27871682800FFF75FFDB80610D54FF4DE
:101FA00080712800FFF764FDDFF86801A0604FF43E
:101FB000A4712800FFF717FD4FF4A470814607E0D5
:101FC0004FF400712800FFF753FD40F20220A0609B
:101FD00020212800FFF703FD15E0B2787168280082
:101FE000FFF740FD4FF480512800FFF741FD40F21C
:101FF0000220A0600020804620212800FFF7EFFC8F
:1020000001E007208246380707D43078032804D03F
:102010004146C9B22800FFF7E2FC2068002809D039
:10202000780702D54FF40070A060A1682800FFF780
:10203000F3FC2CE0494609B22800FFF7DEFC00283B
:1020400017D14FF492712800FFF7D7FC0028F1D088
:102050004FF492712800FFF7C6FC20212800FFF7FB
:10206000BEFC14212800FFF7BAFC4FF482708146B1
:10207000E0E72800FFF7E6FC8346002084F8240010
:10208000BBF1000F03D05846FFF7AAFD8246504629
:10209000C0B2BDE8F28F2DE9F04104000D0016003A
:1020A00000271B482179282202FB010833002A005F
:1020B00021684046FFF7B3FE07003800C0B2BDE814
:1020C000F081FEB504000D0016001F0000A81249A3
:1020D000B1E80C10A0E80C100C390C388DF8015048
:1020E0008DF802700196002200A92000FFF7D3FFAF
:1020F000FEBD000080E100E0000300500024F40079
:10210000C4000020A40000209C0000200007005014
:10211000E002002000020400E4470000DFF8B815E8
:1021200000283ED0DFF8B425126800BF00BF00BF12
:1021300000BF00BF00BF00BF00BF8A422FD000BF5A
:1021400000BF00BF00BF00BF00BF00BF00BF00BF97
:1021500000BF00BF00BF00BF00BF00BF00BF00BF87
:1021600000BF00BF00BF00BF00BF00BF00BF00BF77
:1021700000BF00BF00BF00BF00BF00BF00BF00BF67
:1021800000BF00BF00BF00BF00BF00BF00BF00BF57
:1021900000BF00BF00BF00BF00BF00BF00BF401EA8
:1021A000C3D170477CB504000D002000C0B2FFF71A
:1021B000E3F8D0E90023CDE900232878002846D0B1
:1021C00001285CD168680178DFF81405E4B210EBEF
:1021D000041000F0E7FA0600002E19D1DFF8000520
:1021E000E4B210EB041000F09FFA002810D0DFF8E2
:1021F000F404E4B20C2101FB0400007A002807D0AB
:10220000DFF8E004E4B20C2101FB04000068804721
:10221000DFF8CC04E4B210EB041000F085FADFF82C
:10222000C014E4B211EB04118988814209D3012260
:10223000DFF8B404E4B210EB840100A8FFF76FFAF2
:1022400004E00120DFF8A414E4B2605417E0DFF8E2
:10225000A004E4B210EB8401DFF89804E4B210EBC0
:10226000041000F0B1FA002808D10122DFF8800440
:10227000E4B210EB840100A8FFF7BFF9FFE773BDDC
:1022800038B504000D0021000020FFF78BFF31BDA1
:1022900038B504000D0021000120FFF783FF31BD98
:1022A0002DE9F0418AB004000D0016001F005FF018
:1022B0000008E4B2022C01DB0020F0E002A8DFF805
:1022C000381491EC080B80EC080B2000C0B2FFF72B
:1022D00053F80200D2E90001CDE900010020DFF847
:1022E0000414E4B20C2202FB041108720020DFF88F
:1022F000F413E4B20C2202FB04114872F6B2039606
:10230000FFB202972800B0F5966F2FD0B0F5166F88
:1023100030D0B0F5965F31D0B0F5165F32D0B0F561
:10232000615F33D0B0F5964F34D0B0F5E14F35D082
:10233000B0F5164F36D0B0F5614F37D0B0F5963FB7
:1023400038D0B0F5E13F39D0B0F5613F3AD0DFF891
:10235000AC1388423AD0B0F5E12F3BD0B0F5612FF5
:102360003CD0DFF89C1388423CD03FE05FF49E20D5
:1023700008903BE05FF41D20089037E0DFF884030D
:10238000089033E0DFF8800308902FE0DFF87C034B
:1023900008902BE0DFF87803089027E0DFF874035B
:1023A000089023E05FF41D0008901FE05FF46B00CD
:1023B00008901BE0DFF86003089017E05FF0EB7017
:1023C000089013E05FF06C7008900FE05FF08060A1
:1023D00008900BE05FF0E860089007E05FF0706045
:1023E000089003E05FF080500890FFE70422DFF8D8
:1023F000F802E4B210EB8401DFF8E402E4B210EB7F
:10240000041000F0B7F98046B8F1000F01D00020A9
:1024100045E00422DFF8D802E4B210EB8401DFF8D3
:10242000D402E4B210EB041000F0A4F98046B8F135
:10243000000F01D0002032E0E4B2002C07D1DFF819
:10244000DC2202A900A8FFF751F8804605E0B44A53
:1024500002A900A8FFF74AF88046B8F1000F01D0A2
:1024600000201CE00398FF280FD09DF825000028CD
:1024700002D100A8C046C04601229B48E4B210EB3E
:10248000840100A8FFF74BF98046B8F1000F01D096
:10249000002004E00120A349E4B2605401200AB006
:1024A000BDE8F0811CB50400E4B2022C01DB002081
:1024B0001CE09C48E4B2205C00280ED02000C0B292
:1024C000FEF75AFFD0E90023CDE9002300A8FFF76B
:1024D00040F800209349E4B260549248E4B2205C92
:1024E000002801D1012000E00020C0B216BD10B4C8
:1024F0000200D2B2022A01DB00200DE07948D2B2FC
:102500000C2303FB020001600120764BD2B20C24A5
:1025100004FB02331872012010BC7047F8B50400A8
:102520000D001600E4B2022C01DB00200AE00027B7
:10253000B74206D279192000C0B200F024F87F1CFF
:10254000F6E70120F2BDF8B504000D001600E4B274
:10255000022C01DB002015E07248E4B2205C002868
:1025600001D100200EE00027B7420AD2795D200099
:10257000C0B200F03FF8002801D1002002E07F1C2B
:10258000F2E70120F2BDF0B583B004000D00E4B223
:10259000022C01DB00202CE02000C0B2FEF7ECFE94
:1025A000D0E90023CDE900235048E4B2275C29009C
:1025B0004B48E4B210EB041000F006F90600002EC0
:1025C00001D0002015E0FFB2002F0CD000204749B9
:1025D000E4B2605401224448E4B210EB840100A844
:1025E000FFF79DF80600002E01D1012000E0002039
:1025F000C0B2FEBD7CB504000D00E4B2022C01DBCC
:1026000000204BE02000C0B2FEF7B6FED0E9002368
:10261000CDE900233748E4B210EB041000F084F851
:102620003449E4B211EB04118988814209D32900AD
:10263000C9B23048E4B210EB041000F0B3F8060061
:1026400009E04FF47A712000C0B200F028F80028A9
:1026500001D000200600002E1AD100A8FEF7F2FFDC
:10266000002815D12248E4B210EB84012148E4B2DD
:1026700010EB041000F0A8F80600002E08D101228B
:102680001B48E4B210EB840100A8FEF7B6FF060079
:10269000002E01D1012000E00020C0B276BD30B58F
:1026A00083B004000D002000C0B2FEF765FED0E943
:1026B0000023CDE9002300A8FEF7C4FF002808D0BE
:1026C0000120FFF72BFD002D01D1002002E06D1E3F
:1026D000F1E701203EBD00000024F400C40000200A
:1026E000B8030020F803002054040020A4040020B4
:1026F0005C040020D80300204847000090D003006D
:1027000040420F0000B013000050270000F03A00D4
:1027100000A04E0000C0750000903A018122000028
:1027200091220000A20400208168C068401A70470E
:1027300010B40268C368848823409954C268521C4C
:10274000C26010BC704730B40368846814FA81F426
:1027500085882C40E35C137030BC704738B50400AA
:102760000D002A0000212000FFF7EDFFA068401CAB
:10277000A06031BD0300002901D10E2011E092B20A
:10278000002A04D092B2501E92B2104201D0092009
:1027900007E01960501E9880002098600020D860E3
:1027A0000020704738B504000D002000FFF7BCFF83
:1027B000A188814206D32900C9B22000FFF7B8FFE3
:1027C000002000E0042032BD38B504000D002000D8
:1027D000FFF7AAFF002805D029002000FFF7BEFF61
:1027E000002000E0052032BD012110F01F029140C1
:1027F000DFF8782540B2430942F82310704710B53E
:102800000400200040B2FFF7EFFF10BD10F0604061
:10281000B0F1005F01D1012000E00020C0B270479C
:102820000122C9B20A50704781B0002209B20A5091
:1028300009B20A580092009A01B0704709B20858CC
:10284000002801D0012000E00020C0B27047C0F88D
:1028500004137047C0F8081370470721C0F800152B
:1028600070470021C0F800157047C0F80815C0F87F
:102870000C25C0F810357047C0F824157047C0F813
:102880004415D2B2C0F848257047C0F83415D2B20A
:10289000C0F838257047D2B2002A01D1002300E0E9
:1028A0000123C9B2012904D002D3032907D003D3DD
:1028B00007E053F0020304E053F0040301E053F097
:1028C0000603C0F854357047C9B2C0F8C015704748
:1028D0000121C0F8501570470021C0F8501570470D
:1028E0000121C0F8401570470021C0F8401570471D
:1028F00001000868202802D25FF0A04005E00878B7
:1029000010F01F000860DFF8680470472DE9F141FE
:1029100081B00E0017009846089C099D01A8FFF79A
:10292000E7FFF6B2FFB256EA47015FFA88F851EACC
:102930008801E4B251EA0421EDB251EA0541019A5D
:1029400010EB8202C2F80017BDE8F3811CB5040049
:10295000002001900020009000230122012120008E
:10296000FFF7D4FF13BD30B583B004000D00002085
:102970000190002000902B00DBB2002200212000FB
:10298000FFF7C4FF37BD11B581B001A8FFF7B0FF55
:1029900004000120019910FA01F1200000F00FF865
:1029A00013BD11B581B001A8FFF7A2FF04000120FB
:1029B000019910FA01F1200000F004F813BDC0F8ED
:1029C00008157047C0F80C1570470100C9B20029FE
:1029D00003D0022907D003D308E0DFF8980307E00B
:1029E000DFF8940304E0DFF8940301E0DFF89003DC
:1029F00070472DE9FE4F04000D0016001F00DFF8A0
:102A000084036179242202FB010898F81C00002845
:102A100003D008208146484675E0C8F80060C8F831
:102A20000470287C022803DA2878FFF7BAFF02E056
:102A30002878FFF7A8FF00200190002000900023D5
:102A4000002201212878FFF761FF6878FF2808D06D
:102A5000687882465046FFF7A4FF5046FFF776FF9E
:102A600002E05FF0FF308246A878FF2806D0A87801
:102A7000029001210298FFF776FF02E05FF0FF303D
:102A80000290E878FF2805D0E878FFF77CFFE87827
:102A9000FFF75CFFBB486179242202FB0100E97863
:102AA0008177D4F800B0029B524629785846FFF748
:102AB000DCFEE9685846FFF7DFFE6A7C297C584651
:102AC000FFF7E9FE69795846FFF7FEFED8F80000E7
:102AD000002803D040215846FFF7B9FE5846FFF7BB
:102AE000BCFED8F80000002804D0297994F904002D
:102AF000FEF758FF002088F81D00012088F81C0010
:102B0000002081464846BDE8FE8F70B504009D4810
:102B10006179242202FB01052868002803D094F97A
:102B20000400FFF76CFE26682868002814D05FF0C8
:102B3000FF313000FFF78EFE687F00280CD0142193
:102B40003000FFF76DFE4FF482713000FFF776FE24
:102B50000028F8D0002068774FF48C713000FFF720
:102B600063FE3000FFF77DFE0020287770BD2DE961
:102B7000FF4105000E00170098460A9C0096CDF80C
:102B800008808DF804708DF80C40002200A9280000
:102B900000F08FF804B0BDE8F08110B50400A07F0C
:102BA000FF2802D0A07FFFF7EEFE00206077002014
:102BB0002072616814F108002268904710BD38B592
:102BC00004000D00EDB2002D04D140212000FFF7DC
:102BD00041FE03E040212000FFF739FE31BD38B54A
:102BE00004000D00E80703D52000FFF771FE02E0A6
:102BF0002000FFF771FEA80703D52000FFF770FE45
:102C000002E02000FFF770FE31BD2DE9F041040025
:102C10000D0016001F003068002804D03068FFF750
:102C2000F5FD002807D0B06800280AD0B068FFF78B
:102C3000EDFD002805D10020687710208046404631
:102C400035E0327931682000FFF719FE327BB16838
:102C50002000FFF71AFE4FF48C712000FFF7E4FD0F
:102C600039002000FFF7BBFF380703D410212000F4
:102C7000FFF7D6FD286800280DD14FF48C71200095
:102C8000FFF7DCFD0028F8D0A87FFF280CD0A87F34
:102C9000FFF779FE08E0B80810F0010090F001019C
:102CA000C9B22000FFF78BFF002080464046BDE8F8
:102CB000F0812DE9F04180460C001500314898F86C
:102CC0000510242202FB01060027707F002803D094
:102CD0001120070038002CE03068002804D015F0DF
:102CE000140F01D10120707794E80F0016F10C0C3D
:102CF0008CE80F0096F8210010F0FE0086F8210005
:102D000096F8210010F0FD0086F8210096F82100C9
:102D100010F0FB0086F82100B07FFF2802D0B07FC2
:102D2000FFF73FFE2B0022003100D8F80000FFF72C
:102D30006CFFBDE8F08138B504000D004FF48C71D4
:102D40002000FFF77BFD002807D04FF48C71200096
:102D5000FFF76AFD2800FFF720FF31BD10B5094CD1
:102D600021000948FFF7E7FF10BD000080E100E007
:102D7000000300507C000020840000208C00002014
:102D800094000020E80100200030004010B504004D
:102D9000200000B200F019F80068012801D10120DC
:102DA00000E00020C0B210BD10B582B004002000C9
:102DB00000B200F00AF800210160200000B200F02B
:102DC00004F800680090009813BD00B200F1804044
:102DD00010F5C0407047DFF8581309680840704785
:102DE000DFF8501351F82000C0F305207047DFF8DA
:102DF000441351F82000000C10F00300704701004C
:102E00000868202802D25FF0A04005E0087810F0A2
:102E10001F000860DFF82003704711B581B00C0077
:102E200001A8FFF7ECFF019910EB8101D1F8001721
:102E300031F44031019A10EB8202C2F80017019977
:102E400010EB8101D1F80017E4B251EA0441019A74
:102E500010EB8202C2F8001713BD01B500A8FFF7FE
:102E6000CEFF009910EB8100D0F80007000C10F0A5
:102E7000030002BDD0F810057047F0B583B0040020
:102E80000D00160000A8DFF8B4120CC90CC00839F8
:102E9000083827002819874208D200A850F82700D0
:102EA000FFF7E8FF3060361D7F1CF3E7F7BDC2086F
:102EB00010F00700012313FA00F0525C1040704735
:102EC00010B4C20810F00700535C0124844023436F
:102ED000535410BC7047DFF86812401890F9300066
:102EE0007047DFF85C1251F8200070472DE9F04F71
:102EF0008BB0002403A80021002206C008384FF43C
:102F00008070ADF80200012500200600082E17D2BF
:102F1000BDF90200FFF73AFF002809D02800FFF7AB
:102F20005AFF002804D0BDF90200FFF73DFF2C43F3
:102F30006D00BDF80200001DADF80200761CE5E74B
:102F40004FF4BE70FFF722FF00280AD04FF4BE7086
:102F5000FFF72AFF54F0004403AA02210020FFF7E4
:102F60008CFF20061DD00120050000200600082E41
:102F700017D2254212D03000FFF732FF0700300091
:102F8000FFF735FF80463000FFF7ABFF814648462C
:102F9000002803D04146C9B23800C8476D00761CEE
:102FA000E5E7002C40F1C080002709A8002100229D
:102FB00006C0083800208046B8F1020F07D25FF043
:102FC000FF3007A941F8280018F10108F4E70020B4
:102FD000070000200600042E69D25948301890F8E6
:102FE00060008DF801009DF8010030F0C0000190F4
:102FF0005348301890F9600010F1010F55D007A91F
:103000000198FFF754FF00284FD09DF80100C0B28F
:1030100080098DF800000198FFF75DFF40B2FFF7CF
:1030200060FF81464846002803D19DF80000032830
:103030003BD19DF80000032803D109A90198FFF7AF
:103040003FFF0198FFF709FF824603A90198FFF7A8
:103050002EFF02900298002804D05FFA8AFABAF193
:10306000020F07D0029800281FD15FFA8AFABAF13E
:10307000030F1AD19DF8000003280FD15FFA8AFAD6
:10308000BAF1020F02D15FF0030B01E05FF0020B17
:103090005946C9B20198FFF7C0FE7F1C4846002878
:1030A00003D09DF800100198C847761C93E7FFB243
:1030B000002F35D05FF0010905AA02210020FFF79B
:1030C000DCFE00208046B8F1020F0DD205A850F8B2
:1030D000280003A951F82810884202D00020814618
:1030E00002E018F10108EEE75FFA89F9B9F1000F83
:1030F00002D00020070013E000208046B8F1020F44
:103100000ED205A850F8280003A941F8280009A804
:1031100050F8280007A941F8280018F10108EDE748
:10312000FFB2002F7FF453AF0BB0BDE8F08F00006B
:10313000046300401065004000030050FC4700009D
:1031400078020020DFF8FC1200283ED0DFF8F822D9
:10315000126800BF00BF00BF00BF00BF00BF00BFBC
:1031600000BF8A422FD000BF00BF00BF00BF00BF1A
:1031700000BF00BF00BF00BF00BF00BF00BF00BF57
:1031800000BF00BF00BF00BF00BF00BF00BF00BF47
:1031900000BF00BF00BF00BF00BF00BF00BF00BF37
:1031A00000BF00BF00BF00BF00BF00BF00BF00BF27
:1031B00000BF00BF00BF00BF00BF00BF00BF00BF17
:1031C00000BF00BF00BF401EC3D170470122DFF81F
:1031D0007C32C0B2C254704738B504000D002100E3
:1031E0000020FFF7F3FF31BD38B504000D002100CA
:1031F0000120FFF7EBFF31BD38B504000D002100C1
:103200000220FFF7E3FF31BD38B504000D002100B7
:103210000320FFF7DBFF31BD38B504000D008B48FC
:10322000E4B2205C002808D00120FFF78BFF002DBE
:1032300001D1002002E06D1EF1E7012032BDF8B59A
:1032400004000D0016001F00E4B2042C01DB002076
:1032500053E07F48E4B2142101FB040045707C4830
:10326000E4B2142101FB040086707948E4B2142111
:1032700001FB04000770FF207549E4B2142202FB31
:103280000411C870FF207249E4B2142202FB041139
:103290004871FF206E49E4B2142202FB04118871C8
:1032A00000206B49E4B2142202FB041108740020D0
:1032B0006749E4B2142202FB0411C8715FF0804038
:1032C0006349E4B2142202FB0411C8600020604983
:1032D000E4B2142202FB0411487407205C49E4B2F2
:1032E000142202FB041108715948E4B2142101FBB5
:1032F00004012000C0B200F001F8F2BDF0B583B0C7
:1033000004000D000026E4B2042C01DB00203FE0A5
:103310002000C0B2FFF759FBD0E90023CDE900231C
:103320004B48E4B2142101FB04002900142200F0F0
:10333000B3F800204549E4B26054E4B2002C03D055
:10334000022C07D003D308E04248070007E04248B8
:10335000070004E04148070001E04148070000235E
:103360003A003B48E4B2142101FB040100A8FFF736
:1033700040FB0600002E01D0002009E00120394961
:10338000E4B26054002E01D1012000E00020C0B260
:10339000FEBD1CB50400E4B2042C01DB00201CE0DF
:1033A0003048E4B2205C00280ED02000C0B2FFF705
:1033B0000CFBD0E90023CDE9002300A8FFF7A5FB13
:1033C00000202849E4B260542648E4B2205C00287A
:1033D00001D1012000E00020C0B216BD2DE9FE435E
:1033E00005000E00170098460A9CEDB2042D01DB83
:1033F000002024E01B48EDB2285C002801D1002009
:103400001DE02800C0B2FFF7E0FA0200D2E9000197
:10341000CDE9010100200D49EDB268542000C0B291
:10342000009043463A00D2B2310001A8FFF79FFB5B
:1034300081464FF47A712800C0B2FFF7EDFEBDE877
:10344000FE8300000024F400C40000208C0400204F
:1034500000000020D9310000E9310000F9310000FE
:10346000093200008804002030B583B004000D004C
:103470008DF80450012000900DF10503012201A9EF
:103480002000C0B2FFF7AAFF002801D1002001E010
:103490009DF805003EBDFEE7103A07D330B4B1E811
:1034A0003810103AA0E83810F9D230BC530724BFC6
:1034B000B1E80810A0E8081044BF51F8043B40F8F8
:1034C000043BD20724BF31F8022B20F8022B44BF63
:1034D0000B7803707047083A07D3B1E80810083A30
:1034E00040F8043B40F804CBF7D25307E4E7FEE78B
:1034F000012110F01F029140DFF8002340B2430980
:1035000042F823107047012110F01F029140DFF8AC
:10351000F02240B2430942F82310704710B440B281
:10352000002809D54A01DFF8DC3240B210F00F0460
:10353000E31803F8042C04E04A01DFF8CC3240B26F
:10354000C25410BC7047C0F80413704709B2085841
:10355000704781B0002209B20A5009B20A5800929D
:10356000009A01B07047C0F808157047012250FA60
:1035700081F31A6070470100C9B2002902D0012905
:1035800002D003E0A14802E0A14800E0A148704752
:1035900038B504000D00E4B2032C4BDA9E48E4B2C7
:1035A000205C002846D100F097F9002000F0CAF90D
:1035B0002000C0B2FFF7DFFFADB22900FFF7D3FF55
:1035C000E4B2002C03D0022C17D00BD31FE0022151
:1035D0000B20FFF7A3FF0B20FFF795FF0B20FFF752
:1035E00087FF14E002211120FFF798FF1120FFF759
:1035F0008AFF1120FFF77CFF09E002212420FFF75A
:103600008DFF2420FFF77FFF2420FFF771FF2000AC
:10361000C0B2FFF7B0FF4FF48071FFF79AFF2000B0
:10362000C0B2FFF7A8FF0121FFF78DFF01207A4903
:10363000E4B2605431BD10B504002000C0B2FFF701
:103640009AFF0021FFF792FF10BD80B54FF4807103
:103650006E48FFF77BFF002812D04FF480716B4853
:10366000FFF777FF6E480078002802D06B480068AB
:1036700080476C480078002802D0002000F039F81C
:1036800001BD80B54FF480716148FFF75FFF0028EE
:1036900012D04FF480715E48FFF75BFF60484078BE
:1036A000002802D05D48406880475E484078002886
:1036B00002D0012000F01DF801BD80B54FF48071EB
:1036C0005448FFF743FF002812D04FF4807151484F
:1036D000FFF73FFF52488078002802D04F488068AB
:1036E000804750488078002802D0022000F001F87E
:1036F00001BD10B50400E4B2032C43DA4A48E4B239
:10370000205C401C4849E4B260544748E4B2205C65
:10371000082827D100204449E4B260544348007887
:10372000401C42490870414800783C281AD10020CA
:103730003E4908703D484078401C3C4948703B4831
:1037400040783C280ED100203849487037488078AE
:10375000401C3649887035488078182802D10020EE
:10376000324988703248007A00280BD02F48007800
:103770002F490978884205D300202D4908722D4829
:103780000068804710BD10B50400E4B2032C12DAC3
:103790002448E4B2205C00280DD101202149E4B284
:1037A000605440F6FF712000C0B2FFF7F1FE200028
:1037B000C0B2FFF740FF10BD10B504000022002189
:1037C000002000F001F810BD184B1870174B59700D
:1037D000164B9A70704715480078704737B41448F4
:1037E00000A934C934C00C390C38012010490872C2
:1037F0001048036037BC70470000000000E100E0A3
:1038000080E200E018ED00E000E400E000B00040DD
:103810000010014000400240740400203C040020DD
:10382000780400207C040020800400208404002010
:103830007000002070040020DFF8E4110860704779
:10384000DFF8E011086070470121C0B210F180423A
:103850001160704781B0002100B210F18042116008
:1038600000B210F1804109680091009901B07047E1
:1038700000B210F180400068002801D0012000E073
:103880000020C0B27047C0B210F00301664A116058
:103890007047664940B2420951F8221010F01F00EB
:1038A0000A00C24012F00100704780B50020FFF707
:1038B000F0FF002803D107210020FEF773F801BDB7
:1038C00080B54FF48270FFF7C5FF0220FFF7B4FF09
:1038D0000820FFF7B9FF01BD10B500245448007857
:1038E000002802D08520040013E0002050498860A1
:1038F00000204F49486000204D49086100204C4994
:10390000C860FFF7D2FF0120FFF7BDFF0120484943
:103910000870200010BD0268002A03D08A4209D036
:103920001268F9E70368002B01D0036800E0002368
:103930000B600160704701000868002801D0026830
:103940000A60704710B5040039488078002810D00C
:10395000002C02D00120616888470020FDF7D6FBCB
:103960003348C068401C3249C8600020FDF7D3FBD3
:1039700016E00020FDF7CAFB002C03D021002D48E3
:10398000FFF7C9FF2A48C068002801D1FFF798FF58
:103990002748C068401C2649C8600020FDF7BBFBD3
:1039A00010BD70B50400E4B2002C02D1224805001D
:1039B00001E0204805002800FFF7BDFF0600002EAB
:1039C00004D02000C0B271688847F4E770BD80B5AC
:1039D0004FF48070FFF74CFF00280CD04FF480703C
:1039E000FFF738FF0120FFF72BFF01201049487037
:1039F0000020FFF7D6FF4FF48270FFF739FF002851
:103A00000CD04FF48270FFF725FF0220FFF718FF5C
:103A10000120074988700120FFF7C3FF01BD0000A6
:103A200004030040080300401805004000E100E0E6
:103A3000280400203804002030040020754876490E
:103A40000860704780B500F091F8002808D0002089
:103A500072490860002072490860002071490860BE
:103A600000F090F8002843D06F4800686F49086064
:103A70006F4800686F4908606F4800686F490860C8
:103A80006F4800686F4908606F4800686F490860B8
:103A90006F4800686F4908606F4800686F490860A8
:103AA0006F4800686F4908606F4800686F49086098
:103AB0006F4800686F4908606F4800686F49086088
:103AC0006F4800686F4908606F4800686F49086078
:103AD0006F4800686F4908606F4800686F49086068
:103AE0006F4800686F4908606F4800686F49086058
:103AF00000F054F8002802D06D486E49086000F0CC
:103B000059F8002802D0FB206B49086000F05EF8ED
:103B100000280AD06948006800090001684909784E
:103B200011F00F0108436549086000F05BF80028B8
:103B300003D04FF400706349086000F05FF800287C
:103B400007D061480068C00703D57FF001005E49D7
:103B500008605E48006850F470005C490860BFF37C
:103B60004F8FBFF36F8FFFF769FF01BD58480068A3
:103B7000082805D157480068002801D1012000E03D
:103B80000020704752480068082805D15148006855
:103B9000002801D1012000E0002070474C48006857
:103BA000082805D14B480068002801D1012000E019
:103BB0000020704746480068082805D1454800683D
:103BC000002801D1012000E0002070474048006833
:103BD000082805D13F480068002801D1012000E0F5
:103BE000002070473A480068082805D13948006825
:103BF000002801D1012000E000207047344800680F
:103C0000082805D133480068002801D1012000E0D0
:103C1000002070470090D003C40000200C01004039
:103C200010010040380500400404001020C5004089
:103C30000804001024C500400C04001028C50040F2
:103C4000100400102CC500401404001030C50040C2
:103C50001804001034C500401C04001040C500408A
:103C60002004001044C500402404001048C5004052
:103C7000280400104CC500402C04001050C5004022
:103C80003004001054C500403404001060C50040EA
:103C90003804001064C500403C04001068C50040B2
:103CA000400400106CC500404404001070C5004082
:103CB000488103008C56004018F50040E40E004097
:103CC00058020010409602400004004088ED00E0D9
:103CD000300100103401001080B5012200A900203D
:103CE000FEF71CFC012200A90120FEF72CFC01BDFF
:103CF00080B5012200A90120FEF710FC012200A9D5
:103D00000020FEF720FC01BD80B50121032000F05A
:103D100000FA0A2000F050FA0021032000F0F9F91F
:103D20000A2000F049FA01BD38B504000025002141
:103D30002C2000F0EEF914F07F042100C9B200201D
:103D4000FFF792FB00210020FFF78EFB0500012109
:103D50002C2000F0DEF92800C0B232BD80B5062369
:103D600008225FF4E1310020FEF79AFA2223212293
:103D70005FF4E1310120FEF793FA5E490020FEF77F
:103D8000B6FB5D490120FEF7B2FB01BD80B52F23D4
:103D90002E222D210020FFF752FA01BD38B51F2237
:103DA0001E21002000F02CFA5FF0CC71002000F002
:103DB000A1FA002401208DF800009DF80000802861
:103DC00017DA9DF80010002000F0C2FA0500EDB2ED
:103DD000002D05D0641C012200A90020FEF7B3FBD2
:103DE0000A2000F0E9F99DF80000401C8DF8000061
:103DF000E3E731BD10B584B0FFF7B0FFFFF7C6FFB2
:103E0000FFF7CCFF0220FFF7D7FC00A83B491CC9F5
:103E10001CC00C390C380F208DF800000FF2CD03B8
:103E200000A807C8FFF7DAFC0220FFF7ACFC092165
:103E30000D2000F013F909212C2000F00FF90121C9
:103E40002C2000F066F90921032000F007F9012178
:103E5000032000F05EF9FFF757FF1FBD80B50D206E
:103E600000F061F94220FFF75FFF8DF801000122A9
:103E70000DF101010020FEF766FBFFF7ACFC8DF8A9
:103E80000000012200A90020FEF75DFB4FF47A70CC
:103E900000F092F91A480068411C194A116019494A
:103EA0000968194A12685143814206DA16480068C7
:103EB000401C1549086000F001F801BD80B50020E4
:103EC000FEF7F0FA0020FFF764FA002000F0EDF9A9
:103ED00000210D2000F0C2F801200C4908700B48A9
:103EE00000780028FBD1FFF785FF01BD00200749BE
:103EF00008707047D93C0000F13C0000D847000032
:103F00006C040020BC000020C0000020A70400209A
:103F100080B5FFF76FFFFFF7A1FFFCE7010008681E
:103F2000202802D25FF0A04004E0087810F01F00C3
:103F30000860014870470000000300502DE9F1417E
:103F400081B00E0017009846089C099D01A8FFF754
:103F5000E5FFF6B2FFB256EA47015FFA88F851EA88
:103F60008801E4B251EA0421EDB251EA0541019A17
:103F700010EB8202C2F80017BDE8F3811CB5040003
:103F80000020019000200090002301220121200048
:103F9000FFF7D4FF13BD30B583B004000D0000203F
:103FA0000190002000902B00DBB2002200212000B5
:103FB000FFF7C4FF37BD7CB504000D0016003000CC
:103FC000C0B20190002000902B00DBB20022002143
:103FD0002000FFF7B3FF73BD11B581B001A8FFF753
:103FE0009DFF04000120019910FA01F1200000F06A
:103FF0002FF813BD11B581B001A8FFF78FFF0400A2
:104000000120019910FA01F1200000F024F813BDFD
:1040100001B500A8FFF782FFD0F804150122009B2C
:104020009A408A43C0F808250122009B9A400A4022
:10403000C0F80C2501BD38B504000D00002D03D1DA
:104040002000FFF7D7FF02E02000FFF7C5FF31BDDA
:10405000C0F808157047C0F80C15704738B5040053
:104060000D00EDB2002D11D0022D1BD014D3042D64
:1040700025D01DD3062D30D028D3082D3BD033D3E7
:104080000A2D43D03ED30B2D41D041E00021E4B2B4
:104090002000FFF780FF3BE00321E4B22000FFF7A0
:1040A0007AFF35E00121E4B22000FFF774FF2FE032
:1040B00003220021E4B22000FFF77DFF28E0032265
:1040C0000321E4B22000FFF776FF21E00322012163
:1040D000E4B22000FFF76FFF1AE002220021E4B2F1
:1040E0002000FFF768FF13E002220321E4B2200062
:1040F000FFF761FF0CE002220121E4B22000FFF78C
:104100005AFF05E0E4B22000FFF738FF00E0FFE7C8
:1041100031BD38B504000D00EDB22900E4B2200035
:10412000FFF789FF31BD10B50400E4B22000FFF7AE
:104130006FFF10BD10B440B2002808D54A01284BCB
:1041400040B210F00F04E31803F8042C03E04A0116
:10415000244B40B2C25410BC704710B50400601E1E
:10416000B0F1807F01D301200EE0601E1E4908607F
:1041700007215FF0FF30FFF7DDFF00201B490860DB
:1041800007201B490860002010BD000080B51948B9
:1041900000684FF47A71B0FBF1F0FFF7DEFF002802
:1041A00000D0FEE701201449087001BD13480068E3
:1041B000401C12490860704710B504000E48007892
:1041C000002801D1FFF7E2FF002C07D00B48006860
:1041D000611E0A4A1268121A9142F9D210BD0000FB
:1041E00018ED00E000E400E014E000E018E000E07A
:1041F00010E000E0C4000020A604002068040020B5
:1042000070B504000D001600E4B2022C01DB0020A2
:1042100012E0EDB24C48E4B221010D50F6B24A482A
:10422000E4B210EB041046604748E4B210EB04110E
:104230002000C0B200F001F870BDF0B583B00400FA
:104240000D000026E4B2022C01DB00202CE020004F
:10425000C0B2FDF7BBFCD0E90023CDE9002395E80F
:104260000F00394FE4B217EB041787E80F00002363
:1042700000223548E4B210EB041100A8FDF707FD59
:104280000600F6B2002E01D000200DE001202F49DB
:10429000E4B2605400A8FDF780FDF6B2002E01D113
:1042A000012000E00020C0B2FEBD1CB50400E4B255
:1042B000022C01DB00201CE02448E4B2205C002832
:1042C0000ED02000C0B2FDF781FCD0E90023CDE97B
:1042D000002300A8FDF733FD00201C49E4B2605420
:1042E0001A48E4B2205C002801D1012000E000203F
:1042F000C0B216BD38B504000D002800B0F1CC7F67
:1043000006D0B0F1806F04D0B0F1CD6F02D002E0E2
:1043100003E002E001E0002014E02000C0B2FFF75B
:10432000C4FF002801D100200CE00748E4B210EBE4
:10433000041085600448E4B210EB04112000C0B200
:10434000FFF77BFF32BD000050000020A0040020DA
:104350003EB504000D00E4B2022C01DB002014E0A5
:104360002000C0B2FDF732FCD0E90023CDE90123E3
:10437000012300AA2900C9B201A8FDF7A2FE002866
:1043800001D1012000E00020C0B23EBD0122C9B22F
:104390000A50704781B0002209B20A5009B20A5887
:1043A0000092009A01B0704709B20858002801D065
:1043B000012000E00020C0B27047C0F84415D2B21E
:1043C000C0F848257047C0F83415D2B2C0F8382577
:1043D0007047D0F84C05C0B27047D0F83C05C0B269
:1043E000704770B584B004000D00687D012804D0CA
:1043F0003CD303281ED005D338E024212000FFF74A
:10440000C5FF33E000208DF800000020019000205F
:104410000290A868002801D0012600E00026F6B22C
:10442000002E02D1002000F075F800A807C8AB6884
:1044300098471BE001208DF800002000FFF7CDFF1A
:1044400001902000FFF7C5FF0290A868002801D066
:10445000012600E00026F6B2002E02D1002000F076
:1044600059F800A807C8AB689847FFE77FBD70B54B
:1044700004000D0016006E7529002000FFF7B1FF43
:1044800070BD38B504000D004FF494712000FFF7A3
:104490008BFF00281DD04FF494712000FFF77AFFA6
:1044A000687D012815D12A68D2B2E9682000FFF79B
:1044B00084FF6A68D2B229692000FFF784FF2821AF
:1044C0002000FFF763FF022229002000FFF7CFFF43
:1044D000FFE74FF482712000FFF766FF00280DD040
:1044E0004FF482712000FFF755FF687D022805D147
:1044F000032229002000FFF7BAFFFFE731BD80B596
:1045000002490348FFF7BDFF01BD00006003002022
:104510000030024010B584B0040000A80021002241
:1045200000230EC00C38029400AA002144F20100BE
:1045300000F010F81FBDFEE7BFF34F8F0B48006877
:1045400010F4E0600A49084308490860BFF34F8F40
:1045500000BFFDE770B504000D00160005480068B7
:10456000C00700D500BEFFF7E7FF70BD0CED00E00F
:104570000400FA05F0ED00E038B504000D001E4817
:10458000E4B230F81400A8431B49E4B221F8140047
:10459000290089B22000C0B2184AE4B252F824209F
:1045A000904731BD80B5144801880020FFF7E4FF33
:1045B00001BD80B5104841880120FFF7DDFF01BD36
:1045C00080B50D4881880220FFF7D6FF01BD80B578
:1045D0000948C1880320FFF7CFFF01BD80B5064819
:1045E00001890420FFF7C8FF01BD80B50248418959
:1045F0000520FFF7C1FF01BD480400201004002082
:10460000350600005B060000CD080000D50800005C
:10461000DF080000E9080000F3080000FD080000C2
:104620000709000011090000310A00001B09000001
:10463000250900002D09000037090000410900008C
:104640004B090000550900005F09000069090000DE
:10465000730900007D090000F50A00004D0A000002
:10466000790B0000ED0B000019E050F8041BCB079C
:1046700044BFA9F101035918121F0023042A41F86D
:10468000043BF9D25FEA827C0B4604D54FF0000C64
:10469000A1F800C09B1CD10744BF0021197050F83D
:1046A000042B002AE1D1704710B450F8041B79B1F3
:1046B0000268436812180830DC0744BFA9F10104FE
:1046C000E31852F8044B43F8044B091FF9D1ECE707
:1046D00010BC704710B5074979441831064C7C442A
:1046E000163404E00A68081D511888470146A142A3
:1046F000F8D110BD2C0000004C0000004EF688518F
:10470000CEF20001086840F470000860BFF34F8FDC
:10471000BFF36F8F4FF00070E1EE100A704700009A
:1047200049FFFFFFE4030000C80000200000000074
:1047300079FFFFFFC80000003C01000000000020DE
:1047400000000000FEE70000FFFFFFFFFFFFFFFF8C
:10475000FFFFFFFFFFFFFFFF000000000000000061
:104760000000D601070100000120C046002801D04A
:10477000FFF7B0FF0020C046C046FFF7C9FB00F0BE
:1047800000F800F001B8FEE70746384600F002F8EE
:10479000FBE7FEE72021090326311820ABBEF9E72D
:1047A00008010C011001140118011C012001240151
:1047B0002C0100003001340138013C01400144016A
:1047C00048014C0150010000014880470148004762
:1047D000453A0000F1470000000000000101D00749
:1047E00000000000010000000000000000000000C8
:1047F000C046C046FFF782FFFFF7B6FF000000503B
:104800000003005006000003010000000600000045
:104810000600000006000000060000000000000086
:104820000600000006000001050000000200000074
:10483000030000000400000006000002FEE7FEE79F
:10484000FEE7FEE7FEE7FEE7FEE7FEE7FEE7FEE740
:10485000FEE7FEE7FEE7FEE7FEE7FEE7FEE7FEE730
:10486000FEE7FEE7FEE7FEE7FEE7FEE7FEE7FEE720
:10487000FEE7FEE7FFFFFFFF07FFFF00000000006D
:104880000000004000000000FFFFFFFF07FFFF00E7
:10489000000000000000004000000000FFFFFFFFDC
:1048A00007FFFF00000000000000004000000000C3
:1048B000FFFFFFFF07FFFF000000000000000040B7
:1048C000000000001E0000001F0000000000980112
:1048D000070000001E0000001F00000000009801FB
:1048E00007000000000000000101D00700000000E8
:1048F00000300040030001000040004004010100BE
:10490000003002402302010000F002402F030100AA
:1049100000300040000100000040004001010000A4
:104920000020004000000000008002400100000064
:0C49300006000000010000000090D00311
:04000005000047F1BF
:00000001FF
