:10000000682100207D1B00008F170000211B0000CD
:10001000631B00006F1B0000A11B0000000000001C
:10002000000000000000000000000000A31B000012
:10003000A51B000000000000A71B0000DD18000049
:1000400005180000A91B000059080000AB1B0000A8
:10005000AD1B0000AF1B0000F5100000B11B00003D
:10006000B31B0000B51B0000B71B0000B91B00004C
:10007000BB1B0000BD1B0000BF1B0000C11B00001C
:10008000C31B0000C51B0000C71B0000C91B0000EC
:10009000E9190000F7190000051A0000131A000002
:1000A000211A00002F1A0000CB1B0000CD1B0000FE
:1000B000CF1B0000D11B000000000000000000006A
:1000C000D31B0000D51B0000D71B0000D91B00006C
:1000D000DB1B0000DD1B0000DF1B0000E11B00003C
:1000E00065080000E31B0000E51B000000000000A5
:1000F00000000000E71B000000000000E91B0000FA
:1001000000000000000000000000000000000000EF
:1001100000000000000000000000000000000000DF
:1001200000000000000000000000000000000000CF
:1001300000000000000000000000000000000000BF
:1001400000000000000000000000000000000000AF
:10015000000000000000000000000000000000009F
:10016000000000000000000000000000000000008F
:10017000000000000000000000000000000000007F
:10018000000000000000000000000000000000006F
:10019000000000000000000000000000000000005F
:1001A000000000000000000000000000000000004F
:1001B000000000000000000000000000000000003F
:1001C000000000000000000000000000000000002F
:1001D000000000000000000000000000000000001F
:1001E000000000000000000000000000000000000F
:1001F00000000000000000000000000000000000FF
:100200000100080B40B2704710F06040B0F1005F91
:1002100001D1012000E00020C0B2704781B000226F
:1002200009B20A5009B20A580092009A01B0704708
:1002300009B20858002801D0012000E00020C0B217
:100240007047D0F800220A43C0F800227047D0F867
:1002500000228A43C0F800227047C0F80413704798
:10026000C0F8081370470100D1F88004C1F8800479
:1002700070470821C0F800157047C0F80C15C0F889
:1002800014257047C0F80815C0F8102570470122E2
:10029000C9B20A507047C9B2D2B252EA0103C0F8DB
:1002A0006C357047C0F824157047C0F84415D2B2B9
:1002B000C0F848257047D0F84C057047C0F8341591
:1002C000D2B2C0F838257047D0F83C05704701001D
:1002D0000868202802D25FF0A04005E0087810F0FE
:1002E0001F000860DFF8880570472DE9F14181B0F3
:1002F0000E0017009846089C099D01A8FFF7E7FF2C
:10030000F6B2FFB256EA47015FFA88F851EA88016F
:10031000E4B251EA0421EDB251EA0541019A10EB31
:100320008202C2F80017BDE8F3811CB5040000206A
:100330000190002000900023012201212000FFF7FE
:10034000D4FF13BD30B583B004000D000020019030
:10035000002000902B00DBB2002200212000FFF7DC
:10036000C4FF37BD11B581B001A8FFF7B0FF04008D
:100370000120019910FA01F1200000F001F813BDED
:10038000C0F8081570470100C9B2002902D1DFF892
:10039000E40401E0DFF8E004704738B504000D0024
:1003A000286810F1010F05D02868FFF7DBFF2868E7
:1003B000FFF7BBFF686810F1010F03D000216868E8
:1003C000FFF7C0FFA9692068FFF76CFF2A7D697DF0
:1003D0002068FFF760FF6A6829682068FFF74DFF13
:1003E000287D012816D1A86810F1010F03D0002143
:1003F000A868FFF7A7FFE86810F1010F05D0E868CB
:10040000FFF7B0FFE868FFF790FFAA68E968206887
:10041000FFF738FF31BD38B504000D004FF4887187
:100420002068FFF7FBFE4FF490712068FFF7F6FE9F
:100430004FF492712068FFF7F1FE4FF4A27120682B
:10044000FFF7ECFEDFF834142068FFF706FF2068A2
:10045000FFF7D6FE2900C9B240B200F049FA31BD1B
:1004600010B504002068FFF704FF10BD2DE9F0412E
:1004700004000D001600DFF80804217910EB411785
:100480005FF00008F87E002803D008208046404630
:100490001DE0687F387729002000FFF77EFF7E602F
:1004A000286938607868002803D0297F2000FFF78A
:1004B000B2FF2000FFF7D4FF0020F8750020387647
:1004C0000020B8750120F8760020B8764046BDE8D7
:1004D000F0812DE9F0410400DFF8A403217910EB4D
:1004E000411500264FF490712068FFF797FE4FF4F6
:1004F000AC712068FFF792FEAA7DA9682068FFF71B
:10050000D4FE08212068FFF7C2FE6868002819D1D0
:100510004FF490712068FFF78BFE07004FF4AC7129
:100520002068FFF785FE804658EA0700C0B2002821
:10053000EED05FFA88F8B8F1000F01D00F20060066
:100540000020A8753000BDE8F0812DE9F0410400DD
:100550000D001600DFF82803217910EB4117280061
:10056000FFF752FE002803D11020804640460FE0DE
:10057000200000F00FF8002803D0112080464046EC
:1005800006E0BE75BD600020B8822000FFF7A1FF25
:10059000BDE8F081BA49007911EB4010807D002858
:1005A00001D0012000E00020C0B270472DE9F84FD3
:1005B00004000D0016001F005FF000084FF4887162
:1005C0002068FFF72BFE4FF4A2712068FFF726FE8C
:1005D0003200D2B229002068FFF770FEFFB2002F70
:1005E00004D100212068FFF752FE03E0202120689B
:1005F000FFF727FEA248217910EB41104068002840
:100600002DD14FF488712068FFF712FE81464FF418
:10061000A2712068FFF70CFE82464FF492712068A9
:10062000FFF706FE83465AEA09005BEA0000C0B203
:100630000028E6D09248217910EB41100021C175C5
:100640005FFA8BFBBBF1000F01D0032080465FFAFD
:100650008AFABAF1000F07D00F20804604E04FF469
:1006600004712068FFF7F9FD4046BDE8F28F2DE9DF
:10067000F84304000D0016008148217910EB411762
:100680002800FFF7C1FD002803D110208046404616
:1006900033E05FF000097868002804D04FF404715B
:1006A0002068FFF7DDFDF87D002810D0387E002897
:1006B0000BD07868002804D04FF404712068FFF74D
:1006C000CCFD11208046404617E0012081465FFAAC
:1006D00089F9B9F1000F06D1FE75FD60002078762A
:1006E0000020387601E03D613E764B46DBB23200B9
:1006F000D2B229002000FFF759FFBDE8F2837FB591
:1007000004000D00160001208DF800008DF808503F
:100710000196216800A8626890477FBD30B585B01A
:1007200004000D0000208DF800008DF80850A0682E
:1007300001900020A075216800A86268904705B06C
:1007400030BDF0B585B004000D004FF4927120006B
:10075000FFF76EFD00281BD04FF492712000FFF7C9
:100760005DFD02208DF800002000FFF77CFD039066
:100770002000FFF7A9FD8DF80800E868019000202F
:10078000E87500202876296800A86A68904730E05C
:100790004FF488712000FFF74BFD002829D04FF45B
:1007A00088712000FFF73AFD2000FFF78DFD06005D
:1007B000E87DF6B286421CD1287E002811D0EF6871
:1007C00020212000FFF743FD287EE8752869E860B6
:1007D000002028763A003100C9B22800FFF78FFFC9
:1007E00007E00020E875EA683100C9B22800FFF789
:1007F00086FF4FF4A2712000FFF71AFD002812D0E7
:100800004FF4A2712000FFF709FDE87D00280AD00F
:100810000020E8752000FFF757FDEA680100C9B223
:100820002800FFF76CFF4FF490712000FFF700FDE8
:1008300000280FD04FF490712000FFF7EFFCA87D47
:10084000002807D02000FFF736FD0100C9B22800BC
:10085000FFF764FF05B0F0BD80B509490948FFF70F
:1008600070FF01BD80B508490848FFF76AFF01BD68
:1008700000030050000000200800002010030200C8
:100880007C000020002000409C00002000800240EE
:10089000012110F01F029140114A40B2430942F871
:1008A00023107047012110F01F0291400D4A40B201
:1008B000430942F82310704710B440B2002808D50D
:1008C0004A01094B40B210F00F04E31803F8042C5E
:1008D00003E04A01054B40B2C25410BC704700000F
:1008E00000E100E080E200E018ED00E000E400E05C
:1008F00038B504000D00EDB22900200040B2FFF72A
:10090000DBFF200040B2FFF7CDFF200040B2FFF731
:10091000BFFF31BDDFF86C1500283ED0DFF8682539
:10092000126800BF00BF00BF00BF00BF00BF00BF14
:1009300000BF8A422FD000BF00BF00BF00BF00BF72
:1009400000BF00BF00BF00BF00BF00BF00BF00BFAF
:1009500000BF00BF00BF00BF00BF00BF00BF00BF9F
:1009600000BF00BF00BF00BF00BF00BF00BF00BF8F
:1009700000BF00BF00BF00BF00BF00BF00BF00BF7F
:1009800000BF00BF00BF00BF00BF00BF00BF00BF6F
:1009900000BF00BF00BF401EC3D170477CB504003C
:1009A0000D002000C0B2FFF7EEFCD0E90023CDE936
:1009B00000232878002846D001285CD16868017897
:1009C000DFF8C804E4B210EB041000F0C1FA06002E
:1009D000002E19D1DFF8B404E4B210EB041000F0DB
:1009E00079FA002810D0DFF8A804E4B20C2101FB4A
:1009F0000400007A002807D0DFF89404E4B20C2148
:100A000001FB040000688047DFF88004E4B210EBCB
:100A1000041000F05FFADFF87414E4B211EB041173
:100A20008988814209D30122DFF86804E4B210EB1F
:100A3000840100A8FFF71BFE04E00120DFF8581432
:100A4000E4B2605417E0DFF85404E4B210EB840120
:100A5000DFF84C04E4B210EB041000F08BFA00282D
:100A600008D10122DFF83404E4B210EB840100A8BD
:100A7000FFF76BFDFFE773BD38B504000D002100E3
:100A80000020FFF78BFF31BD38B504000D002100B9
:100A90000120FFF783FF31BD2DE9F0418AB004004A
:100AA0000D0016001F005FF00008E4B2022C01DB0D
:100AB0000020F0E002A8DFF8EC1391EC080B80ECCA
:100AC000080B2000C0B2FFF75EFC0200D2E9000173
:100AD000CDE900010020DFF8B813E4B20C2202FBDC
:100AE000041108720020DFF8A813E4B20C2202FB04
:100AF00004114872F6B20396FFB202972800B0F5CF
:100B0000966F2FD0B0F5166F30D0B0F5965F31D01C
:100B1000B0F5165F32D0B0F5615F33D0B0F5964FC7
:100B200034D0B0F5E14F35D0B0F5164F36D0B0F532
:100B3000614F37D0B0F5963F38D0B0F5E13F39D0AE
:100B4000B0F5613F3AD0DFF8601388423AD0B0F593
:100B5000E12F3BD0B0F5612F3CD0DFF85013884235
:100B60003CD03FE05FF49E2008903BE05FF41D2006
:100B7000089037E0DFF83803089033E0DFF83403FB
:100B800008902FE0DFF8300308902BE0DFF82C030B
:100B9000089027E0DFF82803089023E05FF41D00A9
:100BA00008901FE05FF46B0008901BE0DFF814036F
:100BB000089017E05FF0EB70089013E05FF06C7046
:100BC00008900FE05FF0806008900BE05FF0E86055
:100BD000089007E05FF07060089003E05FF08050DD
:100BE0000890FFE70422DFF8AC02E4B210EB8401C6
:100BF000DFF89802E4B210EB041000F091F980469F
:100C0000B8F1000F01D0002045E00422DFF88C028B
:100C1000E4B210EB8401DFF88802E4B210EB0410B8
:100C200000F07EF98046B8F1000F01D0002032E0DC
:100C3000E4B2002C07D1DFF8902202A900A8FFF748
:100C400015FC804605E0A14A02A900A8FFF70EFCAA
:100C50008046B8F1000F01D000201CE00398FF2867
:100C60000FD09DF82500002802D100A8C046C0463C
:100C700001228848E4B210EB840100A8FFF7F7FCDA
:100C80008046B8F1000F01D0002004E00120904917
:100C9000E4B2605401200AB0BDE8F08110B4020053
:100CA000D2B2022A01DB00200DE07948D2B20C2337
:100CB00003FB020001600120754BD2B20C2404FB3F
:100CC00002331872012010BC7047F8B504000D0003
:100CD0001600E4B2022C01DB00200AE00027B74234
:100CE00006D279192000C0B200F024F87F1CF6E784
:100CF0000120F2BDF8B504000D001600E4B2022C8C
:100D000001DB002015E07248E4B2205C002801D12C
:100D100000200EE00027B7420AD2795D2000C0B261
:100D200000F03FF8002801D1002002E07F1CF2E72C
:100D30000120F2BDF0B583B004000D00E4B2022C36
:100D400001DB00202CE02000C0B2FFF71CFBD0E943
:100D50000023CDE900235048E4B2275C29004B482A
:100D6000E4B210EB041000F005F90600002E01D0EB
:100D7000002015E0FFB2002F0CD000204649E4B25D
:100D8000605401224348E4B210EB840100A8FFF74D
:100D90006EFC0600002E01D1012000E00020C0B250
:100DA000FEBD7CB504000D00E4B2022C01DB002086
:100DB0004BE02000C0B2FFF7E6FAD0E90023CDE90E
:100DC00000233748E4B210EB041000F083F83449F4
:100DD000E4B211EB04118988814209D32900C9B218
:100DE0002F48E4B210EB041000F0B2F8060009E05E
:100DF0004FF47A712000C0B200F028F8002801D02A
:100E000000200600002E1AD100A8FFF7C3FB00281F
:100E100015D12248E4B210EB84012148E4B210EB72
:100E2000041000F0A7F80600002E08D101221B488C
:100E3000E4B210EB840100A8FFF787FB0600002E48
:100E400001D1012000E00020C0B276BD30B583B0F2
:100E500004000D002000C0B2FFF795FAD0E900238E
:100E6000CDE9002300A8FFF795FB002808D001205A
:100E7000FFF750FD002D01D1002002E06D1EF1E7CB
:100E800001203EBD0024F40010000020BC00002022
:100E9000FC0000204C0100206201002054010020D1
:100EA000DC000020241B000090D0030040420F0013
:100EB00000B013000050270000F03A0000A04E00E0
:100EC00000C0750000903A01790A0000890A00000C
:100ED000600100208168C068401A704710B4026841
:100EE000C368848823409954C268521CC26010BCF5
:100EF000704730B40368846814FA81F485882C4004
:100F0000E35C137030BC704738B504000D002A0054
:100F100000212000FFF7EDFFA068401CA06031BD5C
:100F20000300002901D10E2011E092B2002A04D062
:100F300092B2501E92B2104201D0092007E019600F
:100F4000501E9880002098600020D86000207047D4
:100F500038B504000D002000FFF7BCFFA1888142D6
:100F600006D32900C9B22000FFF7B8FF002000E037
:100F7000042032BD38B504000D002000FFF7AAFFA1
:100F8000002805D029002000FFF7BEFF002000E068
:100F9000052032BD10B50400200000B200F019F8A1
:100FA0000068012801D1012000E00020C0B210BD7E
:100FB00010B582B00400200000B200F00AF8002151
:100FC0000160200000B200F004F800680090009872
:100FD00013BD00B200F1804010F5C0407047DFF84B
:100FE0005813096808407047DFF8501351F8200083
:100FF000C0F305207047DFF8441351F82000000CBF
:1010000010F00300704701000868202802D25FF04A
:10101000A04005E0087810F01F000860DFF820030A
:10102000704711B581B00C0001A8FFF7ECFF0199E2
:1010300010EB8101D1F8001731F44031019A10EB27
:101040008202C2F80017019910EB8101D1F8001754
:10105000E4B251EA0441019A10EB8202C2F800178F
:1010600013BD01B500A8FFF7CEFF009910EB81007A
:10107000D0F80007000C10F0030002BDD0F81005F6
:101080007047F0B583B004000D00160000A8DFF82B
:10109000B4120CC90CC00839083827002819874237
:1010A00008D200A850F82700FFF7E8FF3060361D8F
:1010B0007F1CF3E7F7BDC20810F00700012313FA05
:1010C00000F0525C1040704710B4C20810F00700E6
:1010D000535C012484402343535410BC7047DFF811
:1010E0006812401890F930007047DFF85C1251F830
:1010F000200070472DE9F04F8BB0002403A8002199
:10110000002206C008384FF48070ADF802000125B7
:1011100000200600082E17D2BDF90200FFF73AFFA3
:10112000002809D02800FFF75AFF002804D0BDF995
:101130000200FFF73DFF2C436D00BDF80200001DCB
:10114000ADF80200761CE5E74FF4BE70FFF722FF12
:1011500000280AD04FF4BE70FFF72AFF54F0004475
:1011600003AA02210020FFF78CFF20061DD00120DA
:10117000050000200600082E17D2254212D03000AC
:10118000FFF732FF07003000FFF735FF80463000E1
:10119000FFF7ABFF81464846002803D04146C9B25D
:1011A0003800C8476D00761CE5E7002C40F1C08090
:1011B000002709A80021002206C008380020804628
:1011C000B8F1020F07D25FF0FF3007A941F82800FD
:1011D00018F10108F4E70020070000200600042EA3
:1011E00069D25948301890F860008DF801009DF8D8
:1011F000010030F0C00001905348301890F96000B1
:1012000010F1010F55D007A90198FFF754FF0028EE
:101210004FD09DF80100C0B280098DF80000019800
:10122000FFF75DFF40B2FFF760FF814648460028A8
:1012300003D19DF8000003283BD19DF8000003284E
:1012400003D109A90198FFF73FFF0198FFF709FFB4
:10125000824603A90198FFF72EFF0290029800280A
:1012600004D05FFA8AFABAF1020F07D00298002878
:101270001FD15FFA8AFABAF1030F1AD19DF8000064
:1012800003280FD15FFA8AFABAF1020F02D15FF098
:10129000030B01E05FF0020B5946C9B20198FFF75A
:1012A000C0FE7F1C4846002803D09DF8001001981E
:1012B000C847761C93E7FFB2002F35D05FF00109D5
:1012C00005AA02210020FFF7DCFE00208046B8F1CD
:1012D000020F0DD205A850F8280003A951F82810D4
:1012E000884202D00020814602E018F10108EEE7B2
:1012F0005FFA89F9B9F1000F02D00020070013E06E
:1013000000208046B8F1020F0ED205A850F8280040
:1013100003A941F8280009A850F8280007A941F8B6
:10132000280018F10108EDE7FFB2002F7FF453AF5A
:101330000BB0BDE8F08F0000046300401065004072
:1013400000030050981B00001400002075487649E7
:101350000860704780B500F091F8002808D00020A0
:1013600072490860002072490860002071490860D5
:1013700000F090F8002843D06F4800686F4908607B
:101380006F4800686F4908606F4800686F490860DF
:101390006F4800686F4908606F4800686F490860CF
:1013A0006F4800686F4908606F4800686F490860BF
:1013B0006F4800686F4908606F4800686F490860AF
:1013C0006F4800686F4908606F4800686F4908609F
:1013D0006F4800686F4908606F4800686F4908608F
:1013E0006F4800686F4908606F4800686F4908607F
:1013F0006F4800686F4908606F4800686F4908606F
:1014000000F054F8002802D06D486E49086000F0E2
:1014100059F8002802D0FB206B49086000F05EF804
:1014200000280AD069480068000900016849097865
:1014300011F00F0108436549086000F05BF80028CF
:1014400003D04FF400706349086000F05FF8002893
:1014500007D061480068C00703D57FF001005E49EE
:1014600008605E48006850F470005C490860BFF393
:101470004F8FBFF36F8FFFF769FF01BD58480068BA
:10148000082805D157480068002801D1012000E054
:101490000020704752480068082805D1514800686C
:1014A000002801D1012000E0002070474C4800686E
:1014B000082805D14B480068002801D1012000E030
:1014C0000020704746480068082805D14548006854
:1014D000002801D1012000E000207047404800684A
:1014E000082805D13F480068002801D1012000E00C
:1014F000002070473A480068082805D1394800683C
:10150000002801D1012000E0002070473448006825
:10151000082805D133480068002801D1012000E0E7
:10152000002070470090D003100000200C01004004
:1015300010010040380500400404001020C50040A0
:101540000804001024C500400C04001028C5004009
:10155000100400102CC500401404001030C50040D9
:101560001804001034C500401C04001040C50040A1
:101570002004001044C500402404001048C5004069
:10158000280400104CC500402C04001050C5004039
:101590003004001054C500403404001060C5004001
:1015A0003804001064C500403C04001068C50040C9
:1015B000400400106CC500404404001070C5004099
:1015C000488103008C56004018F50040E40E0040AE
:1015D00058020010409602400004004088ED00E0F0
:1015E000300100103401001001000868202802D2E8
:1015F0005FF0A04004E0087810F01F000860014888
:1016000070470000000300502DE9F14181B00E0049
:1016100017009846089C099D01A8FFF7E5FFF6B260
:10162000FFB256EA47015FFA88F851EA8801E4B24E
:1016300051EA0421EDB251EA0541019A10EB820210
:10164000C2F80017BDE8F3811CB50400002001902A
:10165000002000900023012201212000FFF7D4FF89
:1016600013BD30B583B004000D00002001900020B0
:1016700000902B00DBB2002200212000FFF7C4FF06
:1016800037BD7CB504000D0016003000C0B20190DB
:10169000002000902B00DBB2002200212000FFF789
:1016A000B3FF73BD01B500A8FFF79EFFD0F8041586
:1016B0000122009B9A408A43C0F808250122009B22
:1016C0009A400A40C0F80C2501BD38B504000D0051
:1016D000EDB2002D11D0022D1BD014D3042D25D036
:1016E0001DD3062D30D028D3082D3BD033D30A2D5F
:1016F00043D03ED30B2D41D041E00021E4B2200085
:10170000FFF7AFFF3BE00321E4B22000FFF7A9FFA2
:1017100035E00121E4B22000FFF7A3FF2FE0032210
:101720000021E4B22000FFF7ACFF28E003220321F0
:10173000E4B22000FFF7A5FF21E003220121E4B27B
:101740002000FFF79EFF1AE002220021E4B22000F1
:10175000FFF797FF13E002220321E4B22000FFF716
:1017600090FF0CE002220121E4B22000FFF789FF84
:1017700005E0E4B22000FFF767FF00E0FFE731BDBE
:1017800010B50400E4B22000FFF78CFF10BDFEE7A7
:10179000DFF8C0100860704781B0002100B210F17E
:1017A0008042116000B210F18041096800910099F7
:1017B00001B0704700B210F180400068002801D0ED
:1017C000012000E00020C0B2704701000868002836
:1017D00001D002680A60704770B50400E4B2002CC2
:1017E00002D11F48050001E01C4805002800FFF752
:1017F000ECFF0600002E04D02000C0B271688847BC
:10180000F4E770BD80B54FF48070FFF7D3FF002878
:101810000CD04FF48070FFF7BFFF0120FFF7B8FF37
:1018200001200D4948700020FFF7D6FF4FF4827069
:10183000FFF7C0FF00280CD04FF48270FFF7ACFF19
:101840000220FFF7A5FF0120034988700120FFF760
:10185000C3FF01BD080300402C0100203C01002013
:101860003401002010B440B2002808D54A01284BAA
:1018700040B210F00F04E31803F8042C03E04A010F
:10188000244B40B2C25410BC704710B50400601E17
:10189000B0F1807F01D301200EE0601E1E49086078
:1018A00007215FF0FF30FFF7DDFF00201B490860D4
:1018B00007201B490860002010BD000080B51948B2
:1018C00000684FF47A71B0FBF1F0FFF7DEFF0028FB
:1018D00000D0FEE701201449087001BD13480068DC
:1018E000401C12490860704710B504000E4800788B
:1018F000002801D1FFF7E2FF002C07D00B48006859
:10190000611E0A4A1268121A9142F9D210BD0000F3
:1019100018ED00E000E400E014E000E018E000E072
:1019200010E000E010000020640100205C010020B5
:1019300080B5012200A90020FFF7C7F9012200A904
:101940000120FFF7D7F901BD80B5012200A90120D0
:10195000FFF7BBF9012200A90020FFF7CBF901BD79
:1019600080B5062308225FF4E1310020FFF794F8E8
:10197000222321225FF4E1310120FFF78DF806498F
:101980000020FFF78BF905490120FFF787F90921AE
:101990000D20FFF79AFE01BD311900004919000022
:1019A00080B50D20FFF7ECFEC820FFF79DFF01BDBD
:1019B00080B5FFF7D5FFFFF7F3FFFCE738B504006C
:1019C0000D001E48E4B230F81400A8431B49E4B2ED
:1019D00021F81400290089B22000C0B2184AE4B2EC
:1019E00052F82420904731BD80B51448018800206A
:1019F000FFF7E4FF01BD80B5104841880120FFF7E3
:101A0000DDFF01BD80B50D4881880220FFF7D6FFBC
:101A100001BD80B50948C1880320FFF7CFFF01BD94
:101A200080B5064801890420FFF7C8FF01BD80B5D5
:101A3000024841890520FFF7C1FF01BD4001002098
:101A40001401002019E050F8041BCB0744BFA9F192
:101A500001035918121F0023042A41F8043BF9D24C
:101A60005FEA827C0B4604D54FF0000CA1F800C061
:101A70009B1CD10744BF0021197050F8042B002A89
:101A8000E1D1704710B450F8041B79B10268436883
:101A900012180830DC0744BFA9F10104E31852F81A
:101AA000044B43F8044B091FF9D1ECE710BC704715
:101AB00010B5074979441831064C7C44163404E0CB
:101AC0000A68081D511888470146A142F8D110BD87
:101AD0002C0000004C0000004EF68851CEF20001B0
:101AE000086840F470000860BFF34F8FBFF36F8F3A
:101AF0004FF00070E1EE100A7047000049FFFFFF51
:101B000054010000140000200000000079FFFFFFD6
:101B100014000000D80000000000002000000000B9
:101B2000FEE70000FFFFFFFFFFFFFFFFFFFFFFFFDC
:101B3000FFFFFFFF00000000000000000000D601D2
:101B4000070100000120C046002801D0FFF7B0FFC8
:101B50000020C046C046FFF72BFF00F000F800F061
:101B600001B8FEE70746384600F002F8FBE7FEE75B
:101B70002021090326311820ABBEF9E70148804730
:101B800001480047551300008D1B0000C046C046A9
:101B9000FFF7A2FFFFF7D6FF000000500003005040
:101BA000FEE7FEE7FEE7FEE7FEE7FEE7FEE7FEE70D
:101BB000FEE7FEE7FEE7FEE7FEE7FEE7FEE7FEE7FD
:101BC000FEE7FEE7FEE7FEE7FEE7FEE7FEE7FEE7ED
:101BD000FEE7FEE7FEE7FEE7FEE7FEE7FEE7FEE7DD
:101BE000FEE7FEE7FEE7FEE7FEE70000002000401C
:101BF0000000000000800240010000000090D003BF
:0400000500001B8D4F
:00000001FF
