:10000000482C0020C15500007F1200003F13000063
:10001000531600007B1E0000772400000000000043
:10002000000000000000000000000000733300002A
:10003000FF3D000000000000A347000079440000DD
:10004000E5120000AF4A0000532E00007F3600008A
:10005000674E0000FB5200008B3E00008B4E0000FC
:100060007D5500009F550000AB5500003F3A000051
:10007000DD550000DF550000E1550000E3550000AC
:10008000E5550000693A0000E7550000E955000019
:10009000035400000B540000135400001B540000D4
:1000A000235400002B540000EB550000ED550000D8
:1000B000EF550000F15500000000000000000000B6
:1000C000F3550000F5550000F755000015520000EB
:1000D000973A0000F9550000FB550000250A000082
:1000E000592E0000FD550000FF55000000000000E3
:1000F0000000000001560000000000000356000050
:1001000000000000000000000000000000000000EF
:1001100000000000000000000000000000000000DF
:1001200000000000000000000000000000000000CF
:1001300000000000000000000000000000000000BF
:1001400000000000000000000000000000000000AF
:10015000000000000000000000000000000000009F
:10016000000000000000000000000000000000008F
:10017000000000000000000000000000000000007F
:10018000000000000000000000000000000000006F
:10019000000000000000000000000000000000005F
:1001A000000000000000000000000000000000004F
:1001B000000000000000000000000000000000003F
:1001C000000000000000000000000000000000002F
:1001D000000000000000000000000000000000001F
:1001E000000000000000000000000000000000000F
:1001F00000000000000000000000000000000000FF
:10020000DFF8401C420951F8221000F01F0021FACB
:1002100000F219E0DFF8302C0121815000F0D5BE4A
:10022000DFF8242C0021815000F0CFBEDFF8181C2D
:1002300040586FE000F00F01DFF8F82B00064CBFCC
:100240001068506820FA01F202F001007047DFF8F0
:10025000940C0178082901BF017911F00F0F017A80
:1002600011F0F00F06D1007B00F0F000401E80413D
:10027000C00F70470020704710B550E8004F04EAE7
:10028000010240E8002393F0000FF6D1104610BDA4
:10029000010600F00F004CBF0FF210010FF2180121
:1002A0000122405C02FA00F07047000002030405DE
:1002B000060708090B0000000C0D0E0F1011121399
:1002C0001400000030B54C689C4204D20025456003
:1002D0000968016007E04360E41A0D6805604C603E
:1002E0000868181808609A4203D1200002D0012043
:1002F00000E00020C0B230BD4B689A4288BF1A4669
:100300000B68036042604868801A486008681018EB
:100310000860486800B10120C0B270474B689A423B
:1003200088BF1A46002A0CBF00230B680360426096
:100330004868801A4860086810180860100018BFE4
:100340000120C0B27047F8B50C4605466068DFF87A
:10035000687C21681646864288BF06463246384683
:1003600000F052FF2F606E606068801B6060206844
:1003700030182060606800B10120C0B2F2BDF8B54D
:100380000C46064660681546854288BF054645B15D
:10039000DFF8247C21682A46384600F035FF3760B4
:1003A00001E00020306075606068401B606020687C
:1003B00028182060280018BF0120C0B2F2BDDFF865
:1003C000481C020648BF903100F00F0001EB0010FE
:1003D000704701064CBF0021102100F00F004018AB
:1003E000C0B270471028ACBF103840F08000C0B2D7
:1003F000704701064CBF0421282100F00F0001EBDB
:100400008000C0B206E72DE9F843804600F099FE6F
:100410004046FFF7D4FF05465FEA08604FF0010948
:10042000DFF8247C40461AD4FFF7D3FFFE68F1437F
:1004300021FA00F2D00703D5404600F007FE0BE09A
:100440000020286000F079FE00F02EF8B96809FA63
:1004500000F021EA0000B8600320A8731EE0FFF757
:10046000B8FFBC68FE6866EA040121FA00F2D00712
:1004700014D500F062FE00F017F809FA00F02043EE
:10048000B860002028600320A8730FF218000068ED
:10049000796800908DF8028000A8884700F00BF87A
:1004A000BDE8F1830600000309FA00F026EA000027
:1004B000F86040468DE7002000F0F0BEA3E770B57D
:1004C000DFF8DC4BA168E068090C50EA014508E060
:1004D00095FAA5F000F0A2FAFFF795FF0120B040D1
:1004E0008543F5D140F2FF10A06070BD80B5DFF804
:1004F000B01B0020487088700FF20C00006849683B
:10050000009000A8884701BD0100000038B5DFF861
:10051000940B0468046000F08FFC002C04E000F0F1
:10052000CEF90120A8408443F9D131BD70B500F067
:100530003DF801262846FFF742FF817B03291CBFB7
:10054000006800280AD12846FFF743FF06FA00F0AA
:10055000C14304F10C00BDE870408DE670BD70B57C
:1005600000F024F882B02846FFF729FF0126817B9E
:10057000032907D12846FFF72CFF06FA00F000F008
:1005800042F910E0006870B92846FFF722FF06FA2A
:1005900000F000F038F90FF6E03000F07AF88DF84E
:1005A000025000A8884700F091F973BD0546DFF8B6
:1005B000F04A0020E070704738B500F041F8802024
:1005C000FFF7FDFE817B03291CBF006800280AD1CC
:1005D0008020FFF7FEFE05FA00F0C14304F10C0095
:1005E000BDE8344048E631BD81209FE782209DE789
:1005F00083209BE7842099E7852097E7862095E76D
:10060000872093E738B500F01BF88820FFF7D7FE66
:10061000817B032905D18820FFF7DBFE00F0F1F88C
:1006200031BD006858B98820FFF7D3FE00F0E9F823
:100630000FF63C3000F02DF8882000F026F831BD90
:10064000DFF85C4A0020E0700125704738B5FFF7FD
:10065000F7FFFFF7B4FE817B032907D10020FFF7E6
:10066000B8FE00F0CEF800F0D1FC31BD00680028E3
:10067000F9D1FFF7AEFE00F0C4F80FF6F82000F055
:1006800008F8002000F001F831BD8DF8020000A844
:100690000847006861680090704701205FE702200A
:1006A0005DE703205BE7042059E7052057E70620B4
:1006B00055E7072053E710B5DFF8E4490020E07064
:1006C00082B00820FFF77BFE817B032910D00068F1
:1006D00070B90820FFF77DFE012101FA00F000F05B
:1006E00092F80FF69820FFF7D4FF0820FFF7CDFF10
:1006F00013BDF8B50FF68820DFF84C59006800905C
:100700000124DFF8A4090068ADF802008820FFF793
:1007100060FEAE6804FA00F70820FFF75AFE04FAFC
:1007200000F038433043A86000A869688847F1BDED
:10073000DFF86C2910B5936801248C402343936043
:1007400082B0D46824FA01F35168020604D5DA07AE
:100750000AD40FF6302203E0DA0705D40FF6282278
:1007600012680092FFF791FF13BD10B5DFF8300952
:1007700084782046FFF72DFE01462046BDE8104054
:10078000D6E7F8B5DFF82409DFF8BC48016821F0A6
:1007900004010160DFF818090568A168E068A6781F
:1007A000C94389B241EA00073046FFF712FE27FA33
:1007B00000F1C80744BF3046FFF725FE280654BFA6
:1007C00000208020A07001260020FFF702FE0546D1
:1007D0008020FFF7FEFD06FA05F106FA00F0084357
:1007E00000F011F8A5688020FFF7F3FD06FA00F08D
:1007F0002843A0600FF69410FFF74BFF00A888472E
:10080000F1BD05FA00F0C14304F10C0034E538B540
:10081000DFF8A00800F048F8E005DFF82C5805D50F
:10082000012068700FF6681000F01AF8A00505D5D1
:10083000002068700FF65C1000F012F860050ED50D
:10084000687860B1002068700120DFF86C180860DB
:100850005820FFF7DFFC0FF6401000F001F831BD23
:1008600000686968009000A8084738B5DFF84C08B0
:1008700000F01AF8FFF7EBFC88B1DFF824080169F3
:1008800021F0011201F001111443016107E000F0B1
:1008900016F80121A9408C43E9B2FFF749FF002C6B
:1008A000F5D1BDE8314011E004680460BFF36F8FFB
:1008B000BFF34F8FBFF36F8FBFF34F8F704794FA23
:1008C000A4F0B0FA80F5E8B28CE570472DE9FE435C
:1008D000DFF87457E878002840F09E800FE002208F
:1008E000B873214605F10C00FFF7C6FC0FF6AC000B
:1008F0000068696802908DF80A8002A88847E86855
:10090000A968084000F0888090FAA0F000F086F80E
:100910008046FFF754FD07460120B040C44318F05D
:10092000800611D0BA8979683B6800A898470028EA
:1009300004BF3860B8F1800F18D1DFF87007016884
:1009400041F00401016011E0404600F014FB8146D3
:10095000BA897968D7F800C04B4600A8E0470099EB
:1009600011B101994945BAD300B938600120E87046
:10097000A86801992040A86008F00F05B868081819
:10098000B8602A46019800994EB1082DA8BFDFF83B
:10099000302708DA14235A43DFF828370AE0082DF5
:1009A00004DBDFF824271160506006E014235A436B
:1009B000DFF81837D150D1184860FFF748FC40B332
:1009C0004FF48270FFF72CFC4046FFF712FD022027
:1009D00000F078FC4FF48270FFF728FC0028EFD07D
:1009E0001E2000E0022000F06DFCDFF8E406006845
:1009F0008006F7D5012000F065FC002E14BF0FF231
:100A000048700FF2587030F91500FFF70FFC18B955
:100A1000D6E74046FFF7EDFCBDE8F783B0FA80F675
:100A2000F0B2DFE42DE9F843DFF8A806D0F8008043
:100A3000474600264FF00109002F11E097FAA7F072
:100A4000B0FA80F0810001F5807409FA00F520B257
:100A5000FFF7ECFB18B120B2FFF7E2FB2E43AF43E8
:100A6000ECD1FFF7F4FB002869D0DFF8DC05C17892
:100A7000002964D1B10262D5DFF85C1640F2A97298
:100A80000A604B68DFB217B14F683B40DBB240F2FF
:100A9000AA770F60D1F804C05FFA8CF424B14C68D7
:100AA00004EA0C045FFA84FC40F2AB7EC1F800E07B
:100AB0004C68E5B215B14D682C40E4B240F2AC751B
:100AC0000D604D682B40DBB22BB105691D430561FC
:100AD0000A604B604A6840F2AD720A604A6802EAF6
:100AE0000C02D2B232B1036943EA024303610F60E0
:100AF0004A604A6840F2AE720A604A682240D2B246
:100B00005AB1D307C1F800E048BF46F400064A6076
:100B1000D306496848BF46F00106016931F0011269
:100B20001CBF08F08072164311F0011F07D05FEA66
:100B3000485204D521F00111016146F48066F00DA0
:100B400000F0010536F400060FF2546709E096FA4A
:100B5000A6F0B0FA80F457F82400804709FA04F0B0
:100B60008643F4D1FFF7B2FE002D1CBFBDE8F14370
:100B7000FFF707BEBDE8F18370B50446FFF767FBDA
:100B800008B100F08FFB200001D1072070BDDFF815
:100B90001005017809B1082070BD44600121017081
:100BA00000254FF4007445F0800606F00F00082879
:100BB000ACBF21464021304600F0DAF83046FFF75E
:100BC000FEFB00F013F8EEDB002505F00F0008280F
:100BD000ACBF21464021284600F0CAF82846FFF75E
:100BE000EEFB00F003F8F0DB002070BD0021817304
:100BF0006D1C0160092D81607047DFF8B8044FF467
:100C000000610160BFF36F8FBFF34F8F0123DFF8E7
:100C1000CC241360BFF36F8FBFF34F8F03681B05A6
:100C2000FCD50160BFF36F8FBFF34F8F40F2E371CC
:100C3000DFF8A404016040214160BFF36F8FBFF370
:100C40004F8F8020D06140F2FF11DFF854048160A3
:100C50000021C160C170817002210170704780B5B0
:100C600000F030F8DFF86C04016841600020DFF824
:100C70006C1400F021F80021DFF82404C170012178
:100C8000017001BD10B5DFF8C023DFF85444002126
:100C9000517010B9FFF7DBFA08B1DFF84844DFF80C
:100CA000340404600721272000F023FBDFF8381408
:100CB000012000F001F810BD0860BFF36F8FBFF393
:100CC0004F8F704780B52720FFF79AFA78B1FFF76A
:100CD000F6FBDFF814140020FFF7EEFF8020DFF8AA
:100CE0000C1408604FF0FF30DFF80414086001BDF9
:100CF000DFF8AC030078022801DB012070470020F8
:100D00007047002010B500F0C8FADFF83C034078C7
:100D1000002478B1FFF7D3FBDFF898030168890559
:100D200008D4DFF8D01301220A60006880054CBFA8
:100D30000C6001240FE0002010B500F0AEFAC248AC
:100D40004078002400281EBFDFF8A80301680029AE
:100D50001CBF04600124FFF7AEFB204610BDDFF886
:100D6000901301E0DFF86C13DFF88C030860704724
:100D700010B50C46FFF723FB848110BD80B5FFF74B
:100D80001EFB808902BDFFF755BAF8B50446FFF790
:100D90007FFADFF8401308602046FFF74BFA58BB94
:100DA00004F00F000125220605FA00F0214903D5C1
:100DB0000A681043086002E04A681043486000F087
:100DC0003BF814F00F0017D0210615D4082813DAC9
:100DD00000F0B7F9204600F039F9B14EF768204627
:100DE000FFF7F7FA05FA00F027EA0000F0600020AC
:100DF000BDE8F24000F052BAF1BD10B50446FFF76D
:100E000002FB04F00F00012101FA00F0C0432206AA
:100E1000084903D50A681040086002E04A6810409B
:100E2000486000F009F82046FFF732FAB049086040
:100E300010BD000010750240BFF36F8FBFF34F8FDE
:100E40007047000000E100E000700240F8B507467E
:100E50000C46FFF7BEFA00F073F90F2007427A4EF6
:100E600004D1B078874218BF102439D1B168F06836
:100E7000C94389B2084320FA05F1C80748BF1124C5
:100E80002ED43846FFF79BFA07F00F010C2212FB15
:100E900001613A0611D52368143103F06043A2685A
:100EA000B3F1005F04D0D2074CBF944A944A06E0E5
:100EB000D2074CBF934A944A01E08031934A0260C2
:100EC0008CCC8CC10C39416000240021816081737D
:100ED0000121F068A9400843F06080208C49086037
:100EE00032E00000E00F00F0F8B504460D46FFF7D1
:100EF00070FA064600F025F90F200442524F04D143
:100F0000B878844218BF10241ED1B968F868C94364
:100F100089B2084320FA06F1C80748BF112413D448
:100F20002046FFF74CFA0021816000242968016007
:100F300069684160002181730121F868B14008436C
:100F4000F860802072490860FFF7B5FA2046F2BDCC
:100F50001948704738B50C46FFF731FA00F0F0F841
:100F6000A8682060286800280CBFAC7B1124FFF71C
:100F7000A2FA204632BD00F00F00082805DB6548C4
:100F80000068C10304D500207047634951F8200070
:100F90007047624916E0614916E000F00F01082928
:100FA00007DA00064CBF5E485E4850F82100012871
:100FB00000D0002070470000C80A00205A4908608D
:100FC000BFF34F8F40F480700860BFF36F8FBFF3A3
:100FD0004F8F704710B50446082100F0ADF9344832
:100FE00001682170416861708168C26841EA02212C
:100FF00061800169426941EA0221A1808169C06979
:1010000041EA0020E08010BD4006002010B5FFF747
:101010001EF958B1EFF3108472B64C20FFF7FAF8BE
:101020004C20FFF7F7F884F3108810BDBDE810409E
:101030004C20FFF7EFB85020FFF7ECB85420FFF733
:10104000E9B8174880787047600700202DE9F04123
:101050008046FFF7FCF808F00F040127104D70B12F
:1010600000F06FF800F068F800F060F861001A48CE
:1010700001F2C57101600021416000200BE000F029
:101080000CF900F059F800F051F80020224941F81D
:101090002400FFF7D1FEBDE8F04100F0FFB80000EA
:1010A0006007002068740240207502400072024010
:1010B0008074024000740240087502406C74024063
:1010C000A076024000760240A077024000770240FE
:1010D00074740240047302400078024000750240BC
:1010E0000714C0030714E0030475024084E100E024
:1010F000087302402C750240041480017F03000035
:10110000470300001D030000F9020000C5020000B3
:1011100004E200E0C0740240A0740240187502406E
:1011200020740240447402400C75024007FA00F03B
:1011300026EA0000A8607047AE684046FFF749B94C
:101140000546002000F0A9B808010C0110011401A7
:1011500018011C01200124012C0100003001340180
:1011600038013C014001440148014C01500100009C
:101170000600000006000000060000000600000057
:10118000000000000600000006000001050000004D
:10119000020000000300000004000000060000023E
:1011A000ED0400000D050000B9050000E905000090
:1011B000ED050000F1050000F5050000F90500004F
:1011C000FD050000010600006B0700000506000099
:1011D0004D0600009B0600009F060000A3060000CD
:1011E000A7060000AB060000AF060000B306000033
:1011F000B7060000F30600000F0800008307000098
:101200006B080000CB08000062B38B0708D0521EA9
:1012100011F8013B00F8013B00F024808B07F6D168
:10122000830740F0208000BF103A07D330B4B1E804
:101230003810103AA0E83810F9D230BC530724BF58
:10124000B1E80810A0E8081044BF51F8043B40F88A
:10125000043BD20724BF31F8022B20F8022B44BFF5
:101260000B7803707047083A07D3B1E80810083AC2
:1012700040F8043B40F804CBF7D25307E4E7FEE71D
:1012800072B607480168491C01607047044801684C
:10129000491E016000D162B67047F1E7F6E7000031
:1012A000340C00200B486FF07F4141600521016044
:1012B000704709490A680B68D31A1B021B0A83424C
:1012C000F9D370470549064A0968B1FBF2F1484372
:1012D000EFE7000010E000E018E000E02802002046
:1012E00040420F0080B500F0E9F8BDE8014000F091
:1012F00039B910B54901020006D50B4B00F00F04B7
:10130000E31803F8041C01E0084C015541090122CF
:1013100000F01F0002FA00F0054A42F82100054AD9
:1013200042F8210010BD000018ED00E000E400E0EC
:1013300080E200E000E100E0002200F05BB9FEE79F
:101340004FF0804181B000224250405800900098F8
:1013500001B0704700F18040006800B10120C0B2C8
:1013600070476849096801F0011140F480308142FA
:1013700001D1012070470020704780B563490120EA
:1013800008600120FFF7EDFF0028FAD15E494870A0
:1013900001BD38B55C4D2878002408B185240FE0E4
:1013A000A86068602861E86059480068C00703D4F5
:1013B00007210020FFF79DFF564901200860287093
:1013C000204632BD0268134600E01B6813B18B4211
:1013D000FBD170470A600160704738B54A4C05463A
:1013E000A07830B115B169680120884700F041F854
:1013F00013E0FFF752FF25B1294604F11000FFF773
:10140000E1FFE06848B94FF48270FFF799FF434964
:1014100002200860012042490860E068401CE0604A
:1014200022E038B5384C0546607830B115B16968AE
:101430000020884700F01DF813E0FFF72EFF25B1CC
:10144000294604F10800FFF7BDFF606848B94FF472
:101450008070FFF775FF3149012008604FF080412F
:1014600008606068401C60600020BDE83240FFF703
:1014700015BF0020FFF711BF80B5FFF7FAFF224824
:101480004168491E4160406808B9FFF776FFBDE832
:1014900002400020FFF702BF38B504001A4814BF0D
:1014A00000F1100500F1080504E0086828602046F6
:1014B0004968884729680029F7D131BD38B54FF40C
:1014C0008070FFF747FF104C134D48B14FF4807008
:1014D000FFF736FF0120286060700020FFF7DCFF77
:1014E0004FF48270FFF736FF50B14FF48270FFF770
:1014F00027FF022028600120A070BDE83240CBE722
:1015000031BD00000C040040A80B00200400004086
:1015100000E100E01805004008030040040300401B
:10152000080000404FF08042815811B100238350E1
:1015300001210846704710B5044600F00BF82068FA
:10154000010005D0284988604FF460702749086081
:10155000002010BD26494FF4607008600020224929
:101560008860704738B521481F4D0468600706D56C
:101570004FF48470FFF7D6FF08B128688047A006B3
:1015800007D54FF48A70FFF7CDFF10B169680020CE
:101590008847600607D54FF48C70FFF7C3FF10B182
:1015A000696801208847200607D54FF48E70FFF741
:1015B000B9FF10B1A96800208847E00507D54FF4AE
:1015C0009070FFF7AFFF10B1A96801208847A00510
:1015D00009D54FF49270FFF7A5FF20B1A968BDE8C7
:1015E00034400220084731BD080C002004030040AD
:1015F00008030040401810F0030308D0C91A1FD395
:10160000DB0748BF00F8012D28BF20F8022D13008A
:1016100030B414461546103928BF20E93C00FAD8EA
:10162000490728BF20E90C0048BF40F8042D890075
:1016300028BF20F8022D48BF00F8012D30BC7047AC
:10164000C91818BF00F8012DCB0728BF00F8012DDD
:101650007047FEE7027A914201D30020704701EB08
:1016600041010818093070474278914201D30020A7
:10167000704782781018081870474268126810473F
:10168000DFF8A41649680A0018BF08477047F8B584
:10169000154642680C461E46526831469047010086
:1016A00013D00022002303E05B1C007852FA80F282
:1016B0003068824209D250184778A742F5D1DBB290
:1016C0009D42F1D101783160F2BD0020F2BDDFF81A
:1016D000581600F00F02000601EBC20102D501F11D
:1016E000F400704701F11000704710B50C46FFF789
:1016F000EEFF002C04600EBF0021616809684160A4
:1017000010BDDFF82426014610695269104770B5F4
:10171000DFF8145682B0044605F1E40600A930460D
:1017200000F03AFB58B121680160304600A900F092
:1017300055FB2A68014610001CBF2046904773BD28
:10174000E5E70FF20460E2E758B50446801E02D0D8
:10175000C01E032801D8012000E00020DFF8C86582
:10176000317B891E02D0C91E032901D8012100E066
:10177000002188420BD0A01E02D0C01E032804D82E
:1017800006F59E70FFF74DFE01E0FFF775FE022C97
:10179000317B16BF082C01200020022916BF082922
:1017A00001210021884208D0022C18BF082C02D148
:1017B000FFF7D8FA01E0FFF7D2FA347351BDF8B55C
:1017C0000546DFF864450423842204F1600104F136
:1017D000E40000F0CDFA08B10320F2BDFFF7D9FD17
:1017E000DFF84805FFF7C8F958BB002D06BF0021F8
:1017F000002207CD07C40C3C00202073A065E065E3
:1018000000F025F800F01EF80024DFF82455E1B2BE
:101810002846FFF71FFF0646641C56B1002700F05C
:1018200057F97F1C0028F2D000782946FFF75DFFAA
:10183000F5E70FF218500068009000A92846FFF75E
:101840001CFFF2BD482104F1100000F013BB482139
:1018500004F1F40000F00EBBFFF7CFB9FFF7FFB9BA
:10186000DFF8D0040168890703D40168C907F9D4F7
:1018700070470FF2DC404AE780B50FF2D84002E033
:1018800080B50FF2D44000F001F801BD006800906F
:1018900000A83CE780B5012000F0A7FD20B10FF2C1
:1018A000BC40FFF7F3FF012002BD38B5DFF87854E4
:1018B00004462178287B002968D0012971D00229AB
:1018C00000F08E80032970D0042977D0052900F01C
:1018D0009780062900F098800B2900F08A808029E3
:1018E00036D0812906D0822918D0832938D084297E
:1018F0003ED031BD0FF2684400F09FF800F09BF835
:101900000920FFF7BDFEE86D00280CBF287A0120F2
:10191000FFF7B8F900F0F5F901205EE000F0F1F909
:10192000FFF7D0F90020FFF70FFF0FF2384400F067
:1019300082F800F082F80A20FFF7A2FE287B801EC2
:1019400002D0C01E032875D8BDE83140FFF794BD12
:10195000052841D06ED307283ED06BD208203CE04A
:10196000032867D1FFF7CDF9002863D0042034E0C5
:10197000032805D1FFF7C5F910B10420FFF7E4FEF5
:10198000FFF7D9F9002855D0062026E00020FFF700
:1019900077FEED6D002D4DD000F01DF928684568EB
:1019A000F8E700F0AEF9022000E00520FFF7CCFEDA
:1019B0000320FFF765FE00F040F81DE00320FFF76D
:1019C0005FFE0FF2A43400F038F800F034F8287B02
:1019D000062808BF072000D00220BDE83240B3E649
:1019E0000320FFF7B1FE0220FFF74AFE00F023F8C4
:1019F00006E00B20FFF744FE2046BDE83240DEE063
:101A00002046BDE832407CE6A078FFF760FE024643
:101A1000214610685268904700281EBFA0780F2109
:101A2000084207D000F00F010829BCBFBDE83240D2
:101A3000FFF7AFBA31BD2046C1E0204661E610B5E0
:101A400082B0DFF8F44200A9204600F0D7F930B1A7
:101A5000FFF72BFF00A9204600F0FCF9012016BD7E
:101A6000F8B50446002500F028F906466D1C6EB155
:101A7000002700F02DF87F1C0028F4D00078FFF735
:101A800026FE00680028F4D01120F2BD002500F0E9
:101A900014F906466D1C56B1002700F019F87F1C9A
:101AA0000028F4D000782146FFF71FFEF5E7DFF8A5
:101AB0008C0200E0086801680029FBD1046000A9DD
:101AC0000FF2A820006800902046FFF7D6FDF2BD77
:101AD000F9B23046C8E59A4901E01168091D0A6863
:101AE000002AFAD1086000207047954901E011688A
:101AF000091D0A6842B18242F9D1006842680A6051
:101B00000021416000207047052070478D48017812
:101B1000491C02E08B480178491E01700020704783
:101B20008848007800B10120704710B5044604F0E1
:101B30000F00082805DA2046FFF740FA2046FFF795
:101B40002AFA2046BDE81040FFF71FB97648806D9D
:101B500070472DE9F04180467348866D0D4601E0DF
:101B6000306806688EB1377A002400E0641CE4B265
:101B7000BC42F5DA21463046FFF76CFD007840455F
:101B8000F4D105B12C70304600E00020BDE8F081B2
:101B9000114672E510B50C46020600F00F0103D5A0
:101BA000092903DB102010BD0929FBDAFFF78FFD9F
:101BB00000680028F6D02146BDE810405DE538B544
:101BC00004465948856D03E000F005F8286805686B
:101BD000002DF9D131BD214628464EE538B5524990
:101BE0008D6D0446062001E029680D681DB1FFF7E0
:101BF000F2FF0628F8D032BD38B504460D46FFF78F
:101C0000C2F818B14848007B022801D0082032BD34
:101C100029462046BDE83440FFF718B938B50446D8
:101C20000D46FFF7B0F818B13F48007B022801D0FD
:101C3000082032BD29462046BDE83440FFF754B99C
:101C400070B504460D46606883681800164603D0D8
:101C500020469847062812D10EB1072070BD2946AC
:101C600000F02CF80446657805E000F009F8761CD1
:101C70000078FFF75AFFF6B2AE42F6DB002070BDE7
:101C800031462046F0E470B504460D466068C268EF
:101C900010001CBF20469047294600F00FF804466C
:101CA0000026657805E0FFF7EBFF761C0078FFF76C
:101CB000A4F8F6B2AE42F6DB70BDE9B22046FFF7FB
:101CC000C9BC10B50246002053681B691C0003D034
:101CD000BDE810401046184710BD70B51248846D1D
:101CE0000AE0002229462046FFF7AAFF6D1CEDB24C
:101CF000B542F6DB2068046814B1267A0025F6E7C1
:101D000070BD70B50848846D09E029462046FFF78C
:101D1000BAFF6D1CEDB2B542F7DB2068046814B160
:101D2000267A0025F6E770BD00000020411700006C
:101D3000F854000038040040E4000020580000205F
:101D40005C000020FB0B002080000000070000006A
:101D50008100000082000000830000008400000079
:101D6000090000000A000000030000000700000056
:101D700010B509B90E2010BD92FBF3F403FB142437
:101D80000CB1092010BD0160828100214160816099
:101D9000C381002010BD00003CB550E8015FAAB22D
:101DA000C3891A4483899A4228BFD21A03899A4266
:101DB00002BFBFF32F8F002407E0C2EA050240E80C
:101DC0000123002BE9D14FF0010400F03AF81AB1D9
:101DD00000680988081836BD002036BD0A88498881
:101DE0008A4209D150E8011FC1EA014140E80112CD
:101DF000002AF7D101207047002070473CB550E819
:101E0000025F1FFAA5F2C3889A4202BFBFF32F8F69
:101E100000240DE0C3891A4483899A4228BFD21A4C
:101E2000C5EA024240E80223002BE8D14FF001044A
:101E300000F007F81AB100684988081836BD00207C
:101E400036BD01958DF80040019A0A609DF800208A
:101E5000704700000A8849888A4209D150E8021F69
:101E6000C1EA214140E80212002AF7D1012070475F
:101E700000207047002200F0E5BAFEE7DFF8781591
:101E80000A7A824204D008720FF2A450FFF70DBD07
:101E90007047002070472DE9F84F0D4604466868EA
:101EA0009246012618B920600026606039E0FFF7ED
:101EB0004FF8FFF74DF88046E86800278245D14685
:101EC00002D9814600E00026B9F1000F26D0A868AB
:101ED000B8B1CB46814588BF834669685A4607EB4F
:101EE0000800FFF791F9A868A0EB0B00A860A9EB28
:101EF0000B09E868A0EB0B00E8605F446868584491
:101F00006860E8680028DED0A8680028DCD128686E
:101F100050B9686017B1574538BF0026C4F8008033
:101F200067603046BDE8F28F4268526805F10801EB
:101F3000904768602868006800682860C4E710B5AA
:101F400082B00C4600A800F048FA01460020087054
:101F50004870DFF8A424087840F001000870527A35
:101F6000C2F3400212B140F0020008700222601C6D
:101F700000F0F0F916BD2DE9F0410C4682B0207951
:101F8000012804D05BD303284DD004D357E012229C
:101F90000FF27C414FE0B4F807500A2D28BF092505
:101FA000FFF7D4FD4FF00908002607460AE07A68DB
:101FB000526800A93846904700988044387A8619BC
:101FC00038680768002FF2D100A800F006FA07462B
:101FD0002A460FF25041FFF717F93E71A7F8028029
:101FE000FFF79EFD18B1F87940F02000F871FFF777
:101FF000ADFDDFF8086430607760B560B4F80700C5
:10200000F0600020FFF749F90FF230418020FFF720
:1020100005FE040002D100F0CCF904460020FFF7D1
:102020003DF920460CE0B4F80510E07800F024FA01
:10203000010004D00A78601C00F08CF900E0062052
:10204000BDE8F68138B50C466178C1F34112002A2B
:102050005ED1A278DFF8A053C9091FD022B1062AA9
:1020600006D0082A08D053E02146FFF768FF32BDAA
:102070002146FFF780FF32BD00A800F0AEF901460F
:10208000287A052808BF012002D0042840D100206A
:1020900008700122601C00F05DF932BD287A697A6F
:1020A000012A16D0032A0DD0052A02D0092A18D0F9
:1020B0002EE003281CBF0428052816D1FFF721FEB7
:1020C00004201FE0B4F80300012821D141F00200F0
:1020D00005E0B4F8030001281AD101F0FD00687290
:1020E00012E0052818BF042801D0082032BDE0788E
:1020F00018B9FFF706FE042004E0012806D1FFF717
:10210000ECFD0520FFF7BAFE002032BD072032BDEE
:10211000062032BDF0B585B0064605208DF80000DA
:1021200006240DF10100FEF755FF9DF80100B24DA8
:1021300010F01F0005D002285AD00AD3032807D078
:102140009CE000A93046FFF77DFF0446062CF7D13E
:1021500090E09DF8050004A9FFF7FBFC060005D1FF
:102160001024FEF76BFF204605B0F0BD9DF810105F
:1021700000AAFFF70DFD0446062C0ED19DF80100C4
:102180009DF81070C0F341110029EAD1297A9DF819
:102190000220C00919D072B10A2A6FD1052918D1BD
:1021A00003A800F01AF9044639463046FFF789FDC6
:1021B0002070012258E005290BD103A800F00DF989
:1021C00000210180022201464FE00B2AC9D10529D6
:1021D00001D00824C5E7BDF80300FF28C8BF0724C5
:1021E000BFDC9DF8032039463046FFF729FD44E067
:1021F0009DF805000F21084205D000A9FFF7CAFC91
:102200000446062C3AD19DF80100C0F34110002885
:10221000A7D19DF80560BDF803109DF8022006F0D7
:102220000F00C2B1012A02D0032A0BD026E00828F1
:1022300097DA002995D13046FEF7C0FE3046FEF70A
:10224000AAFE06E008288CDA00298AD13046FEF77B
:10225000A0FE002414E003A800F0BFF804463046B6
:10226000FEF79BFE2080022221460DF1010000F0C6
:1022700071F802E000A8FFF7B1FC0446002CE4D19D
:10228000286810B9FEF7D7FE6DE7FEF7BFFE6AE7D4
:1022900070B50C4606252178574E491E092954D899
:1022A000DFE801F0052D09531E2F2D22242A0320DB
:1022B000FFF7E4FD49E006F10C03002453E8002F8A
:1022C00002EA040143E8001090F0000FF6D1B2B129
:1022D0004B4901200860BFF36F8FBFF34F8F0EE0B3
:1022E000FFF718FF054630E0002006E0454800688B
:1022F000C00748BF022000D40120FFF7BFFD002522
:1023000023E0326810001DD0002030607168E07852
:102310009047050017D13068C8B9A078A8B93A48E5
:102320000178082904BF017911F00F0F07D1017A54
:1023300011F0F00F04BF007B10F0F00F05D0FEF796
:102340007AFE02E00E25FEF779FE284670BDFEF704
:102350005DFEFAE770B5C0881646B04284B00D46FF
:1023600019D204460020010018BF012102910095F6
:1023700001940020FEF791FF00A98020FFF73CFCAC
:10238000040002D100F015F804460020FEF786FF95
:10239000204604B070BD86423446E3D28020FEF76A
:1023A000EDFCB6FBF0F100FB1160401E8041C00F58
:1023B000D9E70FF280018020FFE738B504460D46CB
:1023C000FEF73FFEA04201D0102032BDD5E900014A
:1023D000094AC2E90001002032BD08B14021016074
:1023E0000A4870470448007A70470349497A21FA3D
:1023F00000F202F001007047BC0B0020CC0B002063
:102400005C70024038040040E00F00F0480A0020F1
:10241000120100020000004015190E5200010102D5
:102420000301000009020000000100C0FA000000E2
:102430000B000000931E000000000000971E00002B
:10244000CC0B002000B500BF13009646944610390F
:1024500028BFA0E80C50FAD85FEA417C28BF0CC026
:1024600048BF40F8042BC90728BF20F8022B48BFFB
:1024700000F8012B00BDFEE710B90FF220007047F5
:10248000052801D3002070470FF21401405C10B101
:10249000014951F820007047D401002004030900CD
:1024A000000102030400000081B000220A50085815
:1024B0000090009801B07047085800B10120C0B2E8
:1024C000704700F2445001E000F234500160426075
:1024D0007047202832BFDFF8CC1400F01F00DFF86F
:1024E000C81407E0202832BFDFF8C01400F01F0036
:1024F000DFF8BC14012202FA00F008607047000007
:10250000002840D0DFF8AC14DFF8AC24096800BF25
:1025100000BF00BF00BF00BF00BF00BF00BF9142AF
:102520002FD000BF00BF00BF00BF00BF00BF00BF73
:1025300000BF00BF00BF00BF00BF00BF00BF00BFA3
:1025400000BF00BF00BF00BF00BF00BF00BF00BF93
:1025500000BF00BF00BF00BF00BF00BF00BF00BF83
:1025600000BF00BF00BF00BF00BF00BF00BF00BF73
:1025700000BF00BF00BF00BF00BF00BF00BF00BF63
:1025800000BF401EC3D170470128DFF8301402D1CC
:1025900001F108007047084670470321820748BFD1
:1025A00048F20121400748BF48F20221084670471F
:1025B00038B50446DFF80854616840F20C6000F05A
:1025C00034F86068FFF785FF2068FFF782FF6168D5
:1025D00040F20D6000F029F8002500F02CF820688A
:1025E000202832BFDFF8DC1300F01F00DFF8D8131B
:1025F000096821FA00F2D00701D56DB931BD6068D4
:10260000FFF770FF00F017F86068FFF762FF00F057
:1026100012F86D1C092DE2DB2068FFF763FF00F064
:102620000AF82068BDE8324053E745F821002168E8
:1026300045F821007047042062E7F8B50C460746CC
:10264000DFF888033979282515FB010505F12206F5
:10265000307808B10820F2BD2A606B60A860F07085
:10266000B070A07B7071607B10B12046FFF7A0FFB7
:10267000DFF84C03626840F20C6140F822102268D7
:1026800040F8221038682168636800F5A162136081
:102690005160A168D161296821B1217B0003001636
:1026A000FEF727FE012030700020F2BD38B5044649
:1026B000DFF818032179282212FB0105286858B198
:1026C000206800030016012100F01F029140DFF88E
:1026D0000023400942F82010204600F022F805F1BE
:1026E0002200417961B92168DFF8D42201F5A161A6
:1026F00040F202330C6842F82430496842F8213035
:102700000021017031BD0279DFF8C0120068282372
:1027100013FB02110622C0F80025022081F82200D6
:1027200070470279DFF8A4120068282313FB021116
:10273000002241F8082F4FF0FF32C0F80823D0F8EC
:1027400000220022C0F80022C0F80025012088766F
:10275000704700F5A86011F0010218BF012211F0C6
:102760000201026118BF0121016070472DE9F84F95
:10277000044608208DF8020017464FF48270ADF829
:1027800000000D46786800F06040B0F1005F1E4622
:102790004FF000086DD105F541714FF0FF304860F2
:1027A00094F8240020B1A068C5F804031120C8E003
:1027B00006F01400401E8041C00F84F8240004F18C
:1027C0000C000ECF0EC0300904F1240100F001000E
:1027D0000C3F48704FF482717878DFF8F891C5F8B3
:1027E00088054FF4807A00F0B9F800F0B5F831466A
:1027F0002846FFF7AEFF3878002840F2022B43D07E
:1028000002282ED056D3032862D1B86800F0604069
:10281000B0F1005F2DD1C5F800A200F099F84FF497
:10282000A87100F09BF84FF4B07100F097F84FF4E6
:10283000A47100F093F801202862A8604FF4A871F9
:102840002846FFF739FE0028F8D04FF4A87100F0B1
:1028500085F8FA78B9682846FFF733FEC4F808907F
:1028600038E000F075F8B96801F06040B0F1005F41
:1028700001D0102065E0FA782846FFF725FE4FF4D6
:10288000845000F060F825E000F062F8B0060CD546
:10289000C5F800A2C4F808904FF4A47100F05EF8E7
:1028A0004FF4A470ADF800000FE04FF4007000F09A
:1028B0004AF80AE0BA7879682846FFF705FE4FF42F
:1028C000805000F040F88DF802800120286201E07D
:1028D0004FF00708300706D43878032803D09DF856
:1028E0000210012048512068B8B1700744BF4FF46E
:1028F0000070A060A068C5F8040320E04FF4927156
:102900002846FFF7D9FD40B100F026F801202862E3
:1029100068614FF48270ADF800002846BDF90010E0
:10292000FFF7CAFD0028E9D0D5F8C404C5F8C404EF
:10293000002184F8241010B1FFF72FFE80465FFAC3
:1029400088F0BDE8F28FC5F80002C4F808B07047FF
:10295000BA7879682846B4E54FF492712846A3E521
:1029600038B513460A4601680079184C282515FB2E
:10297000004001B0BDE83040F8E6FEB50FF2580562
:10298000B5E8C01000ACA4E8C01000F005F80022C3
:1029900000A9FFF7E5FFFEBD8DF8011001928DF84B
:1029A0000230704708050050080800500C05005020
:1029B0000C080050280200200024F400FC01002034
:1029C000000700501005005010080050B00900200A
:1029D00080E100E0000204000100000000000000AF
:1029E0000000000081B000220A50085800900098B2
:1029F00001B07047085800B10120C0B2704700F222
:102A00000C5001E000F5A16001608260704741EA6E
:102A1000420141EA830210B50299202842EA0122CC
:102A200032BF4FF0A04400F01F00DFF83444039998
:102A300004EB800042EA0141C0F8001710BD00B568
:102A400083B000210191009101220023114606E08C
:102A500000B583B00022019200920B460021FFF7DF
:102A6000D6FF07BD202832BFDFF8F81300F01F00A3
:102A7000DFF8F413012202FA00F008607047DFF873
:102A8000EC1308B90846704701F10800704738B5E3
:102A90000D460446286810F1010F04D0FFF7E2FF4D
:102AA0002868FFF7CCFF686810F1010F1CBF0021F8
:102AB000FFF7CEFF2068AA6900F224510A606A7D00
:102AC0002B7D1A438A6429686A68FFF798FF287D7E
:102AD000012815D1A86810F1010F1CBF0021FFF7D4
:102AE000B7FFE86810F1010F04D0FFF7BBFFE868FB
:102AF000FFF7A5FFAA68E9682068BDE8384081E7CC
:102B000031BD38B504460D4620684FF48871FFF793
:102B100069FF20684FF49071FFF764FF20684FF45D
:102B20009271FFF75FFF00F0CDF82068DFF84013E7
:102B3000C0F8041300032946BDE834400016FEF730
:102B4000D8BBF8B500F023F800EB41161746F07E2D
:102B500008B10820F2BD687F307729462046FFF78C
:102B600096FF776028693060706818B1297F204629
:102B7000FFF7C7FF21680820C1F800050020F075A5
:102B80003076B0750120F0760020B076F2BD0D46AB
:102B90000446DFF8E00221797047F8B500F0E4F868
:102BA0004FF49071FFF71EFF20684FF4AC71FFF7F0
:102BB00019FF2168A87DAB6801F24452002613601A
:102BC000506001208860686870B920684FF4907187
:102BD000FFF710FF074600F0C3F850EA0701F4D0F2
:102BE00000B10F260020A8753046F2BDF8B5FFF7FA
:102BF000CEFF00EB411705F06040B0F1005F1646D4
:102C00000AD1204600F00CF840B9BE75BD60B8820C
:102C10002046BDE8F240C0E71020F2BD1120F2BD11
:102C20000079944901EB4010807D00B1012070478C
:102C30002DE9F04104460E462068174698464FF4A9
:102C40008871FFF7CFFE00F03DF8206800F23451A4
:102C500000250E60B8F1000F4F6002D10121016024
:102C600005E0D0F8001241F02001C0F800122179EF
:102C7000804E06EB41114968E9B920684FF488712C
:102C8000FFF7B8FE804620684FF4A271FFF7B2FE4E
:102C9000074620684FF49271FFF7ACFE47EA08013F
:102CA0000143EAD0217906EB4111CD7500B103252E
:102CB0002FB10F2503E04FF40471C0F80413284628
:102CC000BDE8F08120684FF4A2718BE670B50479FD
:102CD000684B03EB441401F06043B3F1005F13D180
:102CE000666800234FF404751EB1066806F5417648
:102CF0007560E67D76B1237E43B1616811B10068ED
:102D0000C0F80453112070BD102070BD0123216153
:102D1000227603E0E275E16063762376BDE87040D9
:102D200086E700B585B0034601208DF808108DF8C0
:102D30000000019200A819685A680EE000B585B03D
:102D4000024600208DF800008DF808109068019070
:102D50000020907500A811685268904705B000BD2A
:102D600020684FF4AC7145E604464248217900EBF7
:102D70004115206870477FB50C464FF492710546A7
:102D8000FFF738FE05F23C56C0B14FF4927100F0E7
:102D90005EF802208DF80000D5F88004C5F88004A4
:102DA000039030688DF80800E06801900020E0751D
:102DB00020762168626800A8904722E04FF488716D
:102DC0002846FFF717FEE0B14FF4887100F03FF896
:102DD0003168E07DC9B2814213D1E268207E60B1E2
:102DE000D5F8000220F02000C5F80002207EE07532
:102DF0002069E0600020207600E0E0752046FFF7C3
:102E000090FF4FF4A2712846FFF7F4FD68B14FF42C
:102E1000A27100F01CF8E07D38B10020E07520467A
:102E20003168E268C9B2FFF77CFF4FF49071284621
:102E3000FFF7E0FD50B14FF4907100F008F8A07D6D
:102E400020B13169C9B22046FFF778FF7FBD28461F
:102E5000C8E5084908488EE7084909488BE700009B
:102E60000003005008050050080800500C02002024
:102E700010030200880A002000200040A80A002059
:102E8000008002402DE9FC4104460D46FFF7F7FDA6
:102E900000F057F9287806EB041706EB840838B3DE
:102EA000012832D16868017807F11C0000F043FA6C
:102EB00060B907F11C0000F00BFA38B10C2010FBD0
:102EC00004F08119097A09B18059804707F11C0083
:102ED00000F0FEF9398C814206D3012208F15C0131
:102EE00000A8FFF7F3FE10E0A119012088760CE09E
:102EF00008F1640107F13C0000F02DFA28B9012225
:102F000008F1640100A8FFF771FEBDE8F3810146F6
:102F10000020B7E701460120B4E72DE9F04204465E
:102F2000022C8AB0894616461F4680F2A3800FF213
:102F30008031DFF8485302A891EC080B80EC080BB5
:102F40002046FFF79CFD0246D2E90001CDE90001D1
:102F50000C2010FB0450002101724172B9F5966FEC
:102F6000039602972FD0B9F5166F2FD0B9F5965F5B
:102F70002FD0B9F5165F2ED0B9F5615F2DD0B9F518
:102F8000964F2CD0B9F5E14F2BD0B9F5164F2AD07A
:102F9000B9F5614F2AD0B9F5963F2AD0B9F5E13F8E
:102FA00029D0B9F5613F29D0DFF8D402814528D076
:102FB000B9F5E12F28D0B9F5612F28D0DFF8C40288
:102FC000814527D029E04FF49E2025E04FF41D20B5
:102FD00022E0AD4820E0AD481EE0AD481CE0AD4821
:102FE0001AE0AD4818E04FF41D0015E04FF46B00F7
:102FF00012E0AA4810E04FF0EB700DE04FF06C705B
:103000000AE04FF0806007E04FF0E86004E04FF026
:10301000706001E04FF08050089005EB041705EB5D
:103020008406042206F15C0107F11C0000F072F92D
:1030300000BB042206F1640107F13C0000F06AF9CC
:10304000C0B9002C0CBF964A964A02A900A8FFF707
:1030500078FD78B90398FF280ED09DF8250010B9A7
:1030600000A8C046C046012206F15C0100A8FFF797
:103070002DFE08B1002002E06119012008760AB097
:10308000BDE8F082022801DB002070470C2250438B
:103090007A4A815080180121017201207047F8B5E9
:1030A0000446022C0D46164601DB0020F2BD002727
:1030B00004E07919204600F01EF87F1CB742F8D3CF
:1030C0000120F2BDF8B5022804460D4616460EDA78
:1030D0006A494018007E50B1002700E07F1CB742CB
:1030E00007D2795D204600F032F80028F6D10020A2
:1030F000F2BD0120F2BD2DE9FC410546022D8846B6
:103100000CDAFFF7BCFC00F01CF8AF1906EB051059
:10311000BC7E41461C3000F01EF908B100200EE0D4
:1031200064B1B876012206EB850000F15C0100A8CD
:10313000FFF7CCFD401E8041C00F00E00120BDE83C
:10314000F6814E4ED0E90023CDE9002370472DE9EA
:10315000FC410446022C0D46A8BF002035DAFFF7DB
:103160008EFCFFF7EEFF06EB041808F13C0000F0C0
:10317000AFF8B8F84010814206D3294608F13C0068
:1031800000F0D9F8074605E04FF47A71204600F0C8
:103190001FF800B9A7B900A8FFF742FDA0B906EBD8
:1031A000840404F1640108F13C0000F0D4F8070045
:1031B00006D1012204F1640100A8FFF717FD0746BC
:1031C000781E8041C00F00E00120BDE8F6810000BC
:1031D00030B583B00C46FFF752FC334DD0E90023E5
:1031E000CDE9002300E0641E00A8FFF719FD0028C8
:1031F00042D029682D4A012000BF00BF00BF00BF98
:1032000000BF00BF00BF00BF91422FD000BF00BF72
:1032100000BF00BF00BF00BF00BF00BF00BF00BFB6
:1032200000BF00BF00BF00BF00BF00BF00BF00BFA6
:1032300000BF00BF00BF00BF00BF00BF00BF00BF96
:1032400000BF00BF00BF00BF00BF00BF00BF00BF86
:1032500000BF00BF00BF00BF00BF00BF00BF00BF76
:1032600000BF00BF00BF00BF00BF00BF401EC3D1F2
:10327000002CB8D100203EBD01203EBDDC0800205E
:1032800090D0030040420F0000B013000050270010
:1032900000F03A0000A04E0000C0750000903A0116
:1032A0000F2F0000152F0000280200200024F4003A
:1032B000FFFFFFFFFFFFFFFFFFFFFFFFFFFFFFFF1E
:1032C00000000000000000000000D601070100001F
:1032D0008168C068401A704710B50268C368848866
:1032E00023409954C168491CC16010BD10B50368E2
:1032F0008468808814FA81F10840C05C107010BDA9
:1033000010B50A4604460021FFF7F0FFA068401CF4
:10331000A06010BD09B90E20704712B1531E1342B0
:1033200001D0092070470160511E81800021816019
:10333000C1600020704738B504460D46FFF7C8FF4E
:10334000A188814205D329462046FFF7C5FF00200A
:1033500032BD042032BD38B504460D46FFF7B8FF34
:1033600028B129462046FFF7CBFF002032BD0520BB
:1033700032BDFEE781B000220A5008580090009844
:1033800001B07047085800B10120C0B2704741EA4F
:10339000420141EA830210B50299202842EA012243
:1033A00032BF4FF0A04400F01F00DFF8D84203996D
:1033B00004EB800042EA0141C0F8001710BD00B5DF
:1033C00083B0002101910091012200231146FFF7F3
:1033D000DEFF07BD202832BFAB4900F01F00AB491C
:1033E00005E0202832BFAA4900F01F00A9490122A8
:1033F00002FA00F008607047A74918B1022806D009
:1034000002D307E00846704701F10800704701F158
:103410001000704701F1180070472DE9FC47054680
:103420004FF0240A6879DFF874821AFB00840E4694
:10343000207F08B108206DE022606360317C307825
:10344000022902DAFFF7CDFF01E0FFF7C3FF0020FA
:10345000019000900246307800230121FFF797FF8A
:103460007778FF2F4FF0FF3906D03846FFF7B9FFC6
:103470003846FFF7A4FF00E04F46B078FF2809D098
:103480008146002001900090014601230022484619
:10349000FFF77DFFF078FF2804D0FFF79BFFF0785F
:1034A000FFF78DFF6879F1781AFB00808177286833
:1034B000327800F5A0618A60CF60C1F81090F268A0
:1034C0004A62737C327C03B10123012A09D00AD3FA
:1034D000032A03D038BF43F0040304E043F006039B
:1034E00001E043F002034B657279C0F8C025226801
:1034F00012B14022C0F8042307200860206820B1E0
:10350000317995F90400FDF7F4FE00206077012081
:1035100020770020BDE8F68700B585B000918DF8D2
:1035200004200293002206998DF80C1000A900F0E7
:103530005BF805B000BD00F54170002907BF4021D0
:10354000416040210160704700F5A86011F0010260
:1035500018BF012211F00201026118BF01210160B0
:103560007047F8B5044610680D4600281CBF00F0EF
:103570006041B1F1005F1E4607D1916800291CBF70
:1035800001F06043B3F1005F03D0002068771020A2
:10359000F2BD137904F2345738617B61107B3960D6
:1035A000786000F068F831462046FFF7CDFF30071D
:1035B0005CBF01202061286860B94FF48C712046FF
:1035C000FFF7E0FE0028F8D0A87FFF280AD0FFF719
:1035D00001FF07E0B00800F0010080F00101204683
:1035E000FFF7A9FF0020F2BDF8B50D4604461646C8
:1035F00061792A48242212FB0107787F08B1112043
:10360000F2BD386820B116F0140F04BF012078779E
:1036100095E80F0007F10C0C8CE80F0097F82100DB
:1036200000F0F80087F82100B87FFF2818BFFFF7E7
:10363000D8FE206833462A46394601B0BDE8F0403E
:103640008FE738B50D4604464FF48C71FFF79AFEAC
:1036500080B100F010F8A87FFF2818BFFFF7BAFE6E
:1036600000206877287269682A6805F10800BDE8BB
:103670003840104731BD4FF48C7120467AE6074937
:103680000748DEE700030050080500500808005016
:103690000C0500500C080050B40100204C0800201C
:1036A00000300040027A914201D30020704701EBC4
:1036B00041010818093070474278914201D3002037
:1036C00070478278101808187047C269130018BF35
:1036D0001047704780B5002101E080B50121FFF758
:1036E000E1FF0021FFF7E8FF007802BD80B501216E
:1036F000FFF7D8FF0121F5E780B508B1032002BD2F
:10370000086810F8081F202906D1811C07220C30F8
:10371000FDF77AFD002002BD062002BD30B504464B
:1037200085B08B782068202B00F1080202D0222B74
:103730002DD04DE0B1F80720072A49D1202200F80A
:10374000082F0022B1F807104170002302A9154686
:103750002CC1811C0291407803901046FDF79DFD1D
:1037600002A92846FEF748FA05000BD10FF2B41063
:1037700000A9D0E90023CDE9002301940020FEF741
:103780001CFE05460020FDF789FD284621E0B1F822
:103790000700E8B9107DB1F8031000F0010001F056
:1037A0000105A842918211D0002D14BF02210321EE
:1037B0002046FFF78AFF4DB92046FFF78EFFFCF742
:1037C0007DFE2046FFF792FFFCF778FE002000E028
:1037D000062005B030BD10B50C4682B061784A09AC
:1037E000C90902F0030221D012B1012A0ED024E04F
:1037F000A178062921D10021009100ABE27821793E
:10380000FDF745FF010018D0009A0BE00068A17891
:103810000830212904BFB4F8071007290DD1072269
:1038200000F10C01601CFEF795FD16BD2AB1012ABE
:1038300003D12146FFF772FF16BD062016BD00001A
:1038400070B50D460446287800260A2824D8DFE8FB
:1038500000F02D2D2D2D23060A25292D2D00204683
:10386000FFF7B9FF21E02046FFF734FFA97888422F
:103870001CD0E878090602D520B9012106E020B164
:10388000012813D0032811D004E000212046FFF7BF
:103890001CFF0BE0032609E0062607E02046FEF7A2
:1038A0001AF902E02046FEF720F90646304670BDC0
:1038B00082690A604069704770B584B000F021F8F1
:1038C00058BF082003D5FFF708FF00F020F804B028
:1038D00070BD80B5FFF70AFF00A9FDF73BFB08B1FB
:1038E000002002BD009802BD70B584B000F009F858
:1038F00058BF082003D5FFF7F9FE00F008F804B020
:1039000070BD0D460168097FC9071446704700A9BC
:103910000022002316464CC10095019400A9FEF731
:103920006BB90000F936000000000000012100F032
:103930001F029140904A04E0012100F01F029140D3
:103940008E4A400942F8201070474901002806D5E8
:103950008B4A00F00F00801800F8041C7047894A59
:103960008154704781B000220A5008580090009896
:1039700001B070472DE9F8450446032C0D4651DA95
:10398000844FE05D00284DD1FDF703FD0020FDF7D9
:1039900024FDDFF8FC817C4EDFF8F0A124B1012C7E
:1039A0000CBF5046404600E03046C0F808551CB1F8
:1039B000022C18D00CD32AE002210B20FFF7C5FF00
:1039C0000B20FFF7B9FF0B20FFF7B0FF304615E0E3
:1039D00002211120FFF7B9FF1120FFF7ADFF1120E1
:1039E000FFF7A4FF17E002212420FFF7AEFF2420F9
:1039F000FFF7A2FF2420FFF799FF40464FF48071A4
:103A0000FFF7B0FF4CB1012C08D1D04606E0002CE6
:103A1000DCD0012CF1D15046F0E7B0460120C8F8C7
:103A20000403E055BDE8F18520B101280CBF5748DB
:103A3000574800E05448FFE70121016070475748AC
:103A4000006800B9704710B54FF480714E4800F01F
:103A500020F8207808B1A0688047207918B1BDE827
:103A6000104000202CE010BD4D48006800B97047A0
:103A700010B54FF48071454800F00BF8607808B13C
:103A8000E0688047607918B1BDE81040012017E078
:103A900010BD414C66E74348006800B9704710B557
:103AA0004FF480713A48FFF7F4FFA07808B120691D
:103AB0008047A07918B1BDE81040022000E010BD99
:103AC000032800DB704770B53749384B4018027B3C
:103AD000521C0273D2B21C785D789E78082A10D1ED
:103AE000641CE4B200223C2C01BF00246D1CEDB22A
:103AF0003C2D027305D1761C0025F6B2182E08BFA6
:103B000000269E705D701C70087A48B118780A789B
:103B1000904205D300200872BDE870400869004754
:103B200070BD10B5032804460EDA1B494018017910
:103B300051B901210171204640F6FF71FFF71AFFCC
:103B40002046BDE810406FE710BD00210022084666
:103B5000FFE7164B187059709A7070471348007839
:103B6000704737B500A934C90F48012134C00C385B
:103B70000172036137BD000000E100E080E200E077
:103B800018ED00E000E400E000B00040001001404B
:103B900000400240380C0020800B002000B10040A3
:103BA0000011014000410240E80100203C0C0020CF
:103BB00010B5012202FA01F450E8003F43EA040282
:103BC00040E8002191F0000FF6D110BD10B50122A0
:103BD00002FA01F1CC4350E8003F03EA040240E856
:103BE000002191F0000FF6D110BDCB6919001CBF68
:103BF00011461847704738B51D460C46697801F0E4
:103C00001F01012904BFA978062913D100210091C1
:103C100000ABEA782979FDF73AFD010018BF009A58
:103C200004D12879222805D1E268A168681CFEF732
:103C300091FB32BD062032BD38B50C4611465A788C
:103C4000D50927D0520912F0030202D0012A06D06A
:103C500047E00A46214601B0BDE83040CBE79A78FC
:103C6000012A0ED03DD3032A01D003D339E001222B
:103C7000093101E001220831581CBDE83840FEF747
:103C800069BB197901292CD11946A2691268BDE8CE
:103C900038401047520912F0030222D0012A20D1E5
:103CA0009A78092A12D01CD30B2A01D00AD318E023
:103CB000B3F803204A724A7A02B101222146FFF783
:103CC00094FF01E018790872002032BD19790229A9
:103CD00007D1A269116821B11946BDE83840526880
:103CE0001047062032BD70B50446D8780D461646FA
:103CF00018B903222046FFF778FF706828B1032126
:103D00003046FFF763FF002070BD2046A96989682F
:103D1000BDE8704008470000F8B504461878002751
:103D20000A280D4616462ED8DFE800F0061D3A3C5C
:103D30002D1F2346525E6300307A00285DD05988DB
:103D4000800091FBF0F200FB1210002855D1706842
:103D500048B93068400702D5FDF79CFD4DE030685A
:103D600000074AD422E0032144E02046FFF764FF25
:103D700020E09878000603D52046FFF7B4FF19E04D
:103D8000A869C06808B9062737E0D87818B90222B0
:103D90002046FFF72AFFA969C9682046884709E03D
:103DA000022122E002213046FFF710FFA96989684D
:103DB00020468847074620E02046FDF78CFE070096
:103DC0001BD12046FDF7A2FE070016D100210CE012
:103DD0002046FDF78AFE07000FD12046FDF79AFE28
:103DE00007000AD1002105E001213046FFF7E0FE7F
:103DF00003E001213046FFF7E9FE3846F2BDFEE759
:103E0000DFF81C120858012818BF0020704700F185
:103E1000804000F5C040002181B001600068009042
:103E2000009801B07047202832BFDFF8FC2100F075
:103E30001F00DFF8F82152F8203023F4403342F815
:103E4000203052F8203043EA01411BE07CB50FF2EC
:103E5000EC1460CC00AB60C3034607E000AC54F840
:103E60002340D4F8104542F8044B5B1C0C18A342C5
:103E7000F4D373BD012200F00703C0089A40405CF0
:103E80001040704742F8201070472DE9F04F89B07C
:103E900002A800210A4606C000264FF480790127B7
:103EA00008250FFA89F0FFF7ABFF00281EBF614815
:103EB0000068384204D00FFA89F0FFF7A8FF3E43AC
:103EC0007F006D1E09F10409EBD14FF4BE70FFF7BE
:103ED00097FF50B14FF4BE70FFF799FF02AA02217D
:103EE0000020FFF7B3FF46F000463006DFF84091B0
:103EF00015D00127504C37420DD054F8250054F806
:103F0000251059F82520130005D0090C01F00301F4
:103F1000C0F3052090477F006D1C082DEBD3002EC9
:103F20007BD506A80021002206C04FF0FF3000908C
:103F3000019006AE06E0049A02924160069A70680B
:103F4000009201900027002505EB090090F9600020
:103F5000C4B210F1010F24F0C0084BD000A94046B4
:103F6000FFF788FF002845D0A00900F0030408EB04
:103F7000090090F9300059F820A0BAF1000F02D1E1
:103F8000032C37D101E0032C08D14FEAD8000122DD
:103F9000815D08F007039A4011438155404620286F
:103FA00032BF4FF0A04100F01F001E4901EB80001E
:103FB00002A9D0F80007000C00F0030B4046FFF701
:103FC00059FF18B1BBF1020F14D102E0BBF1030F8E
:103FD00010D1032C08D1BBF1020F0CBF0321022129
:103FE0004046FFF720FF7F1CBAF1000F02D02146A8
:103FF0004046D0476D1C042DA6D3FFB26FB104AA72
:1040000002210020FFF722FF049A029B059902A8D3
:104010009A4204BF426891428DD109B0BDE8F08F49
:10402000006000400003005000070050000A0050EC
:104030004809002004630040106500400000005063
:104040000003005080B5012200A90020FFF727F8E7
:10405000012200A9012008E080B5012200A9012069
:10406000FFF71DF8012200A90020FFF72BF801BD82
:1040700000F052B980B500F0A5F80A2000F001FA6E
:10408000002100F0A0F8BDE802400A2000F0F9B9D4
:1040900010B50446002100F092F804F07F010020E2
:1040A00000F0EEFA0021002000F0EAFA044600F0E9
:1040B00085F8204610BD80B5062308224FF4E13173
:1040C0000020FEF72AFF222321224FF4E1310120B4
:1040D000FEF723FF59490020FEF7D4FFBDE8044056
:1040E00057490120FEF7CEBF2F232E222D2100207D
:1040F00000F03EBA80B51F221E21002000F0D0FA49
:104100004FF0CC71002000F012FB01208DF8000070
:104110009DF80010002000F02CFB08B100F084F89E
:104120000A2000F0AEF99DF80000401C8DF8000058
:104130009DF800008028EBDB01BD10B584B00220A3
:10414000FFF703FD0FF214111CC900A81CC00F20BB
:104150008DF8000000A807C80FF2D903FFF701FD92
:1041600004B0BDE810400220FFF7DBBC80B500F0D2
:1041700062FB00F0B2F8BDE80240324800F0C6B879
:1041800080B5FFF7F3FFFFF796FFFFF7ADFFFFF7EF
:10419000B1FFFFF7D2FF09210D2000F0DBFB092161
:1041A0002C2000F0D7FB00F009F80921032000F0D3
:1041B000D1FB00F007F8BDE801405BE701212C20AE
:1041C00000F0F8BB0121032000F0F4BB10B582B071
:1041D00000F048FC00F048F91B4C2168401AB0F58B
:1041E0007A7F20D300F040F920600D2000F0E3FB3F
:1041F0004220FFF74DFF8DF8010001220DF1010172
:104200000020FEF75FFFFFF7A9FC8DF8000000F02B
:104210000BF8A068411CA160062261684A438242F3
:10422000BCBF481C606013BD012200A90020FEF73E
:1042300049BF000005490020087070474540000054
:1042400059400000714000001C020020420C002078
:1042500080B5FFF795FFFFF7B9FFFCE7000000000E
:104260000101D0070000000070B50FF2AC15674CDB
:10427000C9B1022903D013D303290ED070BD012088
:1042800020744FF4806204F114012846FFF72CFBE0
:1042900010B3BDE8704000F0FBBB0020207470BD7F
:1042A0000020A07470BDFFF714FB0646207B20B1F0
:1042B000A268314604F114009047207918B101201A
:1042C000A671607170BD04F114012846BDE870400C
:1042D0004FF48062FFF708BB70BD10B54B4C607C9B
:1042E00008B1002010BD20732071607100F0A8FBA0
:1042F00000F096FB08B100F08AFB0FF21C10FDF7EE
:10430000AFFB00F078FB0120607410BD3F490860EE
:10431000012008717047000010B53C4C227C002A37
:1043200058D02279002A1EBF4FF47A72A37C002B4A
:104330000ED10A4601460FF2E000FFF7BDFA014632
:104340000120A074C8B2401E8041C00F10BD521E93
:104350002F48304B0168012000BF00BF00BF00BFE5
:1043600000BF00BF00BF00BF99422FD000BF00BFF9
:1043700000BF00BF00BF00BF00BF00BF00BF00BF45
:1043800000BF00BF00BF00BF00BF00BF00BF00BF35
:1043900000BF00BF00BF00BF00BF00BF00BF00BF25
:1043A00000BF00BF00BF00BF00BF00BF00BF00BF15
:1043B00000BF00BF00BF00BF00BF00BF00BF00BF05
:1043C00000BF00BF00BF00BF00BF00BF401EC3D181
:1043D000002ABCD1002010BD10B50C4C207900285B
:1043E0001CBF6079002810D000206071A17922687C
:1043F00004F11400904704F11401BDE810404FF49B
:1044000080620FF21400FFF76FBA10BD2C0200207B
:10441000280200200024F400600B0020AC550000AE
:1044200002030106040204848303000038540000E0
:104430004200000069420000194800684FF47A7198
:10444000B0FBF1F0401EB0F1807F0CD21549164A46
:104450004860E0201070002088600720086001207C
:10446000124908707047FEE710B5104C207808B963
:10447000FFF7E2FF606810BD0C484168491C4160CD
:10448000704738B5094D0446287808B9FFF7D4FFBE
:104490002CB16868611E6A68121A9142FBD231BD64
:1044A0002802002010E000E023ED00E01C0C0020BA
:1044B0006B4A801801210171704701460020F7E71F
:1044C00001460120F4E701460220F1E701460320FE
:1044D000EEE7000030B5624A624D00E0491E131D50
:1044E000C35C002B42D0604B1C68012300BF00BF9F
:1044F00000BF00BF00BF00BF00BF00BFAC422FD055
:1045000000BF00BF00BF00BF00BF00BF00BF00BFB3
:1045100000BF00BF00BF00BF00BF00BF00BF00BFA3
:1045200000BF00BF00BF00BF00BF00BF00BF00BF93
:1045300000BF00BF00BF00BF00BF00BF00BF00BF83
:1045400000BF00BF00BF00BF00BF00BF00BF00BF73
:1045500000BF00BF00BF00BF00BF00BF00BF00BF63
:104560005B1EC3D10029B9D1002030BD012030BD70
:1045700070B50446042C01DB002070BD3B4D1426B1
:1045800016FB04546170FF21E1706171A171A2708A
:1045900000212174E17123704FF08041E16000211E
:1045A0006174072121712146BDE87040F0B50446D1
:1045B000042C83B00E4624DAFEF71EFF2B4DD0E903
:1045C0000023CDE90023142010FB04F778193146AD
:1045D0001422FCF729FE224EA119002008711CB1FB
:1045E000022C05D002D305E0214A04E0214A02E072
:1045F000214A00E0214A0023791900A8FEF70DFFA7
:1046000008B10020FEBD0120A055FEBD2DE9F042FD
:104610000446042C84B00D4616469946A8BF0020D7
:104620001ADA0F4FE05DB8B12046FEF7E5FE02460C
:104630004B46D2E90001CDE901013246E1190020E3
:10464000087129460A98009001A8FEF765FF4FF40B
:104650007A712046FFF73EFF04B0BDE8F08200000B
:10466000240C00200024F400280200204401002033
:10467000BB440000C1440000C7440000CD4400001A
:1046800000B583B001AB8DF8051001220121009126
:104690000DF10501FFF7BAFF08B19DF804000EBD4A
:1046A00010B5022801DB002010BD03012D4C19516B
:1046B00019194A60BDE81040BCB50446022C0D46ED
:1046C00014DAFDF761FF274FD0E90023CDE900237D
:1046D00095E80F0007EB041585E80F000023002282
:1046E00007EB041100A8FDF7A8FF08B10020B6BD34
:1046F0001D490120605400A8FEF705F80120B6BD51
:1047000030B50446022C83B001DB00203EBD164DBF
:10471000615D51B1FDF738FFD0E90023CDE90023F9
:1047200000A8FDF7C3FF0020605501203EBD38B54D
:104730000D46B5F1CC7F1CBFB5F1806FB5F1CD6FE3
:10474000044601D0002032BDFFF7DAFF18B100F0B7
:1047500003F88D600AE032BD024800EB04112046E8
:104760007047000094010020400C0020BDE8344058
:10477000A2E710B5022884B00C46A8BF00200EDACC
:10478000FDF702FF2146D0E90023CDE9012301A86E
:10479000012300AAFEF7F1F8401E8041C00F04B0CB
:1047A00010BDFEE7802801DB7F20704710F1800FED
:1047B00002DA6FF07F00704740B2704738B5274C7F
:1047C000207B80BB205EB4F90250002801BF002D81
:1047D00021796279914226D021792172FFF7E2FF97
:1047E00060722846FFF7DEFFA072042204F1080180
:1047F0000FF2700000F0C2F9A8B901202073207AEE
:1048000060710020FCF749FD208894F90910401AD6
:10481000208094F90A106088401A60800020BDE86A
:104820003240FCF73BBD31BD032903D10B490020C9
:104830000873C3E7704780B500F002F9074900200C
:10484000087300F0EDF808B100F0E1F80FF2140081
:10485000FDF706F900F0CFF8012002BDEC0B0020B7
:10486000ACE70000940B0020185500000102010382
:1048700081000000B0530000190000007C530000CC
:10488000340000002C0C0020CC5300000855000020
:1048900029480000D453000041EA420141EA830262
:1048A00010B50299202842EA012232BF4FF0A044FD
:1048B00000F01F00224C039904EB800042EA014102
:1048C000C0F8001710BD00B583B00022019200921D
:1048D0000B46002106E000B583B00B460192002193
:1048E00000220092FFF7D8FF07BD202832BF1549EC
:1048F00000F01F00144905E0202832BF134900F0E2
:104900001F001349012202FA00F0086070472028B6
:1049100032BF4FF0A04100F01F00094901F20451DD
:1049200001230A6803FA00F020EA02034B601040FA
:1049300088607047002908BFFFF7DEBFD5E7000099
:104940000003005008050050080800500C050050F6
:104950000C080050092900D9704700B583B0DFE882
:1049600001F00507090E101214171A20002102E0A9
:10497000032100E0012103B05DF804EBA3E703226B
:1049800004E0032205E0032206E00222002104E005
:104990000222032101E00222012103B05DF804EBB1
:1049A00099E7002101910091012200231146FFF7B0
:1049B00073FF07BDBEE7AAE720B1022804D00A288A
:1049C00004D07047FDF70EBDFCF75ABFFCF746BF99
:1049D00080B5224918B102280AD007D301BDFCF7DF
:1049E00087F938B9BDE80140FCF736BF002000E088
:1049F0000120087001BD80B50FF28400FCF79BFD1B
:104A000000281CBFBDE8024000F042B801BD80B5DF
:104A1000FCF724FFFCF730FF10490020087001BDAF
:104A20000E48007870470D48017842788A4206D0D7
:104A30004170002918BFFCF713BFFCF71DBF70477A
:104A400010B5074C207808B1002010BD0FF23400DB
:104A5000FCF7B5FE0120207010BD0000F90B00200E
:104A6000430C002080B5FCF7EAFF0028FBD1FFF7DC
:104A7000DAFFFFF7B1FCBDE80140FFF7F1BE00002F
:104A8000D149000000000000B94900000100000009
:104A900010B584B000A90022002314461CC1029066
:104AA00000AA194644F2010000F0FEF81FBDFEE71F
:104AB000027A914201D30020704701EB41010818AE
:104AC000093070474278914201D3002070478278C4
:104AD000101808187047000010B5012202FA01F101
:104AE000CC4350E8003F03EA040240E8002191F083
:104AF000000FF6D110BD0000FEB507460021386852
:104B000000F108043846FFF7D3FF0021FFF7DAFF72
:104B1000032105782046FFF7DFFF386B00F09AF994
:104B200008B10020FEBD07F110000069C04606462E
:104B3000386B0022314600F03DF900A80021002228
:104B40000B460EC030680090706801900846FCF774
:104B5000A4FB00A92846FDF74FF8050009D108235A
:104B600054E8002F42EA030144E8001090F0000FDF
:104B7000F6D10020FCF792FB2846FEBD7CB504462A
:104B80002068009100F10805019200A9206B00F057
:104B9000C2F808B1112076BD28680026400702D56A
:104BA000FCF778FE06E02868000703D42046FFF7EC
:104BB000A3FF0646304676BD42680A60006870472B
:104BC0000620704780B50A4608B1032002BD104692
:104BD000D26A02219047002002BD30B5044685B05C
:104BE000606A0268C9781170002202A90023154684
:104BF0002CC10168491C02914068401E0390104678
:104C0000FCF74BFB02A92846FCF7F6FF05000BD189
:104C10000FF28C0000A9D0E90023CDE90023019414
:104C20000020FDF7CAFB05460020FCF737FB2846AD
:104C300005B030BD38B50446206800F10805206B8A
:104C400000F008F928B103212846FFF745FF0020AE
:104C500032BD2046BDE832404EE73EB50446002155
:104C6000FFF726FF0121FFF72DFF616A00AA00234D
:104C700000241D4638C20A6800924968019100A9C3
:104C80000078FCF7B9FF3EBD0B46016801F1080250
:104C900000F11001FFF740B810308DE70000000070
:104CA000C54B00000000000008480068C00700D5A0
:104CB00000BEBFF34F8F0648064A016801F4E06169
:104CC00011430160BFF34F8F00BFFDE7F0ED00E03F
:104CD0000CED00E00400FA058068814201D2481C16
:104CE00070470020704701680A684968914201D303
:104CF000881A70478068401C801A0818704710B5E1
:104D000001680C684968FFF7E7FFA04201D1012064
:104D100010BD002010BD2DE9F04104460E4600F004
:104D200096F82046FFF7EBFF00255FEA00081CBF5E
:104D3000207C00283CD12068476800F07FF821687B
:104D4000B8F1000F486004D0096800F078F82168D5
:104D50000860E268012A06D0022A08D0042A0BD093
:104D6000082A0ED015E061683078785417E0616841
:104D7000308821F8170012E06168306841F8270098
:104D80000DE06268D6E9000102EBC702C2E900014A
:104D900005E06068314602FB0700FCF735FA00F0D9
:104DA00050F821688A68824238BF02468A6000E073
:104DB00004253EE02DE9F04107460C46904600F000
:104DC00046F8384600F046F8002588BB3868066883
:104DD000B8F1000F05D101683846FFF77DFF39684B
:104DE0000860FA68012A06D0022A08D0042A0BD0EB
:104DF000082A0ED015E07868305C207019E07868D9
:104E000030F81600208014E0786850F82600206002
:104E10000FE0786800EBC600D0E90023C4E9002366
:104E200007E0786802FB06012046FCF7EDF900E098
:104E3000052500F008F82846BDE8F08141682046C5
:104E40004AE720464FE70020FCF728BA0446002036
:104E5000FCF723BA006801684068814201D1012053
:104E6000704700207047FEE7DFF87011405800B12E
:104E70000120C0B27047DFF8641181B000224250B7
:104E800040580090009801B0704770B584B04FF45E
:104E90008270DFF84C41DFF84461FFF7E5FF04F171
:104EA0002D0510B300F093F8A978687881F001011E
:104EB00008421AD100218DF8001061680191218902
:104EC000ADF80810E16811B90020207408E0228BC9
:104ED0006283616022810021E16008B901203060B5
:104EE00000A8216888470020A870687840B34FF474
:104EF0008070FFF7B9FF18B300F06CF82878638B67
:104F0000DFF8E010984208D21A1A628392B223891D
:104F100065689A1A05EB420207E083420CD1E26809
:104F200032B10123AB70002363830A60486003E061
:104F30000120A8700020608300F049F80120706013
:104F40004FF48870FFF790FF58B14FF48870FFF767
:104F500092FF0020207402208DF8000000A8216834
:104F600088474FF48A70FFF77FFF30B14FF48A70A3
:104F7000FFF781FF002020747FBD656924E0B5FA4A
:104F800085F04FF0004121FA00F2800000F58C76A8
:104F9000954330B2FFF768FFB0B130B2FFF76BFF57
:104FA00001208DF8000036B2A6F58C70C0088DF88F
:104FB00004003606B00E00F0010080F001008DF80C
:104FC000050000A821688847002DD8D17FBD4FF487
:104FD000827050E74FF480704DE700000070004091
:104FE000080B00202C7600403F480168082904BFC8
:104FF0004168002906D13D4900220A604A6000212B
:105000003B4A11600168082904BF4168002923D187
:10501000384A394913680B6053684B6093688B605A
:10502000D368CB6013690B6153694B6193690B6261
:10503000D3694B62136A8B62536ACB62936A0B63C8
:10504000D36A4B63136B0B64536B4B64936B8B642E
:10505000D36BCB64126C0A650168082904BF4168F0
:10506000002902D1254A264911600168082904BF98
:105070004168002902D1234AFB21116001680829F7
:1050800004BF4168002909D11F49204B0A681B78D9
:10509000120903F00F0343EA02120A6001680829AB
:1050A00004BF4168002903D1194A4FF4007111600F
:1050B0000168082904BF4068002806D11548016826
:1050C000C90744BF6FF0010101601348016841F452
:1050D00070010160BFF34F8FBFF36F8F0F4910480E
:1050E0000860704700000000300100100C01004013
:1050F000380500400404001020C500408C560040D4
:105100004881030018F50040E40E004058020010EA
:10511000409602400004004088ED00E02802002094
:105120000090D00381B000220A50085800900098E7
:1051300001B07047085800B10120C0B2704700F2BA
:10514000445001E000F2345001604260704710B5F5
:105150000C4684B0617D012904D020D3032908D0F6
:1051600002D31FBD41621FBD00208DF800000190D9
:1051700009E001218DF8001000F23C500168C9B22D
:1051800001910069C0B20290A06808B9FFF780FCE5
:1051900000A807C8A36804B0BDE8104018471FBDA9
:1051A0004A75D4E738B50D4604464FF49471FFF7BD
:1051B000C1FFD0B14FF494712046FFF7B3FF687D73
:1051C000012812D12A68E968D2B22046FFF7B7FF5A
:1051D0006A682969D2B22046FFF7B4FF0120A062B5
:1051E000022229462046FFF7DBFF4FF4827120465A
:1051F000FFF7A0FF68B14FF482712046FFF792FFDE
:10520000687D022805D129462046BDE838400322A2
:10521000C6E731BD01490248C4E70000300A00205A
:1052200000300240816807E00268116853688918FD
:105230005B18C36008320260C2689142F4D04A1C15
:105240008260087870472DE9FF4D00F10801009158
:1052500000270268520801EBC2010191B846002103
:10526000029103910168490800EBC101406800F018
:10527000010501F10804400804EBC00630E000A875
:10528000FFF7D0FF4FFA80FA0AE00098016808188B
:10529000009902904968081803900098083000901F
:1052A000029803998842F0D010F801BB029047455C
:1052B0000CD1B44208BF00F01DF8276805B14F4477
:1052C000606800EB070808344745F2D0BAF1000FD8
:1052D00007F801BB0AD51AF1010AE8D14745CED13A
:1052E000B442CCD1304604B0BDE8F08DBAF1010A29
:1052F000D6D5F3E7012000F001B8FEE7202109032D
:1053000026311820ABBEF9E7280356006500670078
:1053100061002D004100620073006F006C00750099
:10532000740065002E00200032003000310038008B
:105330001E036E0052004600350078002000550024
:105340005300420020005600650067006100000025
:105350001A033000300030003000300030003000E0
:105360003000300030003000300000000E035500E7
:105370007300650072002000310000000501090281
:10538000A1010901A1000509190129021500250142
:1053900075019502810275069501810105010930AB
:1053A000093109381581257F750895038106C0C02C
:1053B000090402000103010000092111010001227A
:1053C000340007058103400001000000440C002068
:1053D00001000000FC0B0020DC0B0020010000009D
:1053E000080000000000000010B5124A02EB400364
:1053F00002EB80029C888C439C80BDE810401269BF
:1054000010470C4881880020EEE70A48C188012037
:10541000EAE7084801890220E6E7064841890320B7
:10542000E2E7044881890420DEE70248C1890520BB
:10543000DAE70000380B0020080B0302020201002B
:1054400009040300010202010005240010010524E3
:10545000010304042402020524060304070584034F
:1054600040001009040400020A000000070583023E
:1054700040000007050302400000000019E050F85A
:10548000041BCB0744BFA9F101035918121F0023C5
:10549000042A41F8043BF9D25FEA827C0B4604D52A
:1054A0004FF0000CA1F800C09B1CD10744BF0021A5
:1054B000197050F8042B002AE1D1704710B5074944
:1054C00079441831064C7C44163404E00A68081DFF
:1054D000511888470146A142F8D110BD7400000060
:1054E0009C0000009122000000000000000000006D
:1054F0000000000000000000140C0020E454000034
:105500000100020300800000C14B0000DB4B0000E3
:10551000354C00005B4C0000894C0000994C0000A9
:105520000000000000000000000000004EF688515E
:10553000CEF20001086840F470000860BFF34F8F9E
:10554000BFF36F8F4FF00070E1EE100A704700005C
:105550002DFFFFFF1C0A00002C02002000000000AD
:10556000E7FCFFFF020000000200000098000000BE
:10557000B7000000000000202C020000FEE7000041
:105580000120C046002801D0FFF798FF0020C04648
:10559000C046FEF75DFE00F000F800F001B8FEE73F
:1055A00007463846FFF7AAFEFBE7FEE74138000052
:1055B000B138000000000000000000000000000002
:1055C0000148804701480047E94F0000D1550000DD
:1055D000C046C046FFF7AAFFFFF7D2FFFEE7FEE78F
:1055E000FEE7FEE7FEE7FEE7FEE7FEE7FEE7FEE793
:1055F000FEE7FEE7FEE7FEE7FEE7FEE7FEE7FEE783
:10560000FEE7FEE781008100BE000343170000FCB7
:10561000FF0207FFFFF8000040FC00FCFF0207FF4D
:10562000FFF8000040FC00FCFF0207FFFFF800004D
:1056300040FC00FCFF0207FFFFF8000040FC0000F8
:105640001EFD00001FFB0002980107FD00001EFD6B
:1056500000001FFB0002980107FC003030004003EF
:10566000000100004000400401010000300240231E
:1056700002010000F002402F0301009C24000008FA
:1056800053000030530000505300006C53FA0003E5
:105690000101D007F300043000400001FD00044088
:1056A00000400101FD0002200040FB000380024099
:0B56B00001F9000001F8000290D00397
:04000005000055D1D1
:00000001FF
