:1000000068340220815B00007F1200003F13000073
:100010005316000047240000C33100000000000018
:100020000000000000000000000000002732000077
:10003000F741000000000000C75100009D4E000085
:10004000E5120000A3540000D73C00000345000067
:10005000CB580000115B0000A34A0000335B000096
:100060003F5B00009D5B00009F5B00003B46000083
:10007000A15B0000A35B0000A55B0000A75B000084
:10008000A95B000065460000AB5B0000AD5B0000B3
:10009000BB590000C3590000CB590000D3590000E0
:1000A000DB590000E3590000AF5B0000B15B0000CA
:1000B000B35B0000B55B0000000000000000000022
:1000C000B75B0000B95B0000BB5B0000015700009C
:1000D00093460000BD5B0000BF5B0000250A0000E6
:1000E000DD3C0000C15B0000C35B000000000000BD
:1000F00000000000C55B000000000000C75B0000BE
:1001000000000000000000000000000000000000EF
:1001100000000000000000000000000000000000DF
:1001200000000000000000000000000000000000CF
:1001300000000000000000000000000000000000BF
:1001400000000000000000000000000000000000AF
:10015000000000000000000000000000000000009F
:10016000000000000000000000000000000000008F
:10017000000000000000000000000000000000007F
:10018000000000000000000000000000000000006F
:10019000000000000000000000000000000000005F
:1001A000000000000000000000000000000000004F
:1001B000000000000000000000000000000000003F
:1001C000000000000000000000000000000000002F
:1001D000000000000000000000000000000000001F
:1001E000000000000000000000000000000000000F
:1001F00000000000000000000000000000000000FF
:10020000DFF8401C420951F8221000F01F0021FACB
:1002100000F219E0DFF8302C0121815000F0D5BE4A
:10022000DFF8242C0021815000F0CFBEDFF8181C2D
:1002300040586FE000F00F01DFF8F82B00064CBFCC
:100240001068506820FA01F202F001007047DFF8F0
:10025000940C0178082901BF017911F00F0F017A80
:1002600011F0F00F06D1007B00F0F000401E80413D
:10027000C00F70470020704710B550E8004F04EAE7
:10028000010240E8002393F0000FF6D1104610BDA4
:10029000010600F00F004CBF0FF210010FF2180121
:1002A0000122405C02FA00F07047000002030405DE
:1002B000060708090B0000000C0D0E0F1011121399
:1002C0001400000030B54C689C4204D20025456003
:1002D0000968016007E04360E41A0D6805604C603E
:1002E0000868181808609A4203D1200002D0012043
:1002F00000E00020C0B230BD4B689A4288BF1A4669
:100300000B68036042604868801A486008681018EB
:100310000860486800B10120C0B270474B689A423B
:1003200088BF1A46002A0CBF00230B680360426096
:100330004868801A4860086810180860100018BFE4
:100340000120C0B27047F8B50C4605466068DFF87A
:10035000687C21681646864288BF06463246384683
:1003600000F052FF2F606E606068801B6060206844
:1003700030182060606800B10120C0B2F2BDF8B54D
:100380000C46064660681546854288BF054645B15D
:10039000DFF8247C21682A46384600F035FF3760B4
:1003A00001E00020306075606068401B606020687C
:1003B00028182060280018BF0120C0B2F2BDDFF865
:1003C000481C020648BF903100F00F0001EB0010FE
:1003D000704701064CBF0021102100F00F004018AB
:1003E000C0B270471028ACBF103840F08000C0B2D7
:1003F000704701064CBF0421282100F00F0001EBDB
:100400008000C0B206E72DE9F843804600F099FE6F
:100410004046FFF7D4FF05465FEA08604FF0010948
:10042000DFF8247C40461AD4FFF7D3FFFE68F1437F
:1004300021FA00F2D00703D5404600F007FE0BE09A
:100440000020286000F079FE00F02EF8B96809FA63
:1004500000F021EA0000B8600320A8731EE0FFF757
:10046000B8FFBC68FE6866EA040121FA00F2D00712
:1004700014D500F062FE00F017F809FA00F02043EE
:10048000B860002028600320A8730FF218000068ED
:10049000796800908DF8028000A8884700F00BF87A
:1004A000BDE8F1830600000309FA00F026EA000027
:1004B000F86040468DE7002000F0F0BEA3E770B57D
:1004C000DFF8DC4BA168E068090C50EA014508E060
:1004D00095FAA5F000F0A2FAFFF795FF0120B040D1
:1004E0008543F5D140F2FF10A06070BD80B5DFF804
:1004F000B01B0020487088700FF20C00006849683B
:10050000009000A8884701BD0100000038B5DFF861
:10051000940B0468046000F08FFC002C04E000F0F1
:10052000CEF90120A8408443F9D131BD70B500F067
:100530003DF801262846FFF742FF817B03291CBFB7
:10054000006800280AD12846FFF743FF06FA00F0AA
:10055000C14304F10C00BDE870408DE670BD70B57C
:1005600000F024F882B02846FFF729FF0126817B9E
:10057000032907D12846FFF72CFF06FA00F000F008
:1005800042F910E0006870B92846FFF722FF06FA2A
:1005900000F000F038F90FF6E03000F07AF88DF84E
:1005A000025000A8884700F091F973BD0546DFF8B6
:1005B000F04A0020E070704738B500F041F8802024
:1005C000FFF7FDFE817B03291CBF006800280AD1CC
:1005D0008020FFF7FEFE05FA00F0C14304F10C0095
:1005E000BDE8344048E631BD81209FE782209DE789
:1005F00083209BE7842099E7852097E7862095E76D
:10060000872093E738B500F01BF88820FFF7D7FE66
:10061000817B032905D18820FFF7DBFE00F0F1F88C
:1006200031BD006858B98820FFF7D3FE00F0E9F823
:100630000FF63C3000F02DF8882000F026F831BD90
:10064000DFF85C4A0020E0700125704738B5FFF7FD
:10065000F7FFFFF7B4FE817B032907D10020FFF7E6
:10066000B8FE00F0CEF800F0D1FC31BD00680028E3
:10067000F9D1FFF7AEFE00F0C4F80FF6F82000F055
:1006800008F8002000F001F831BD8DF8020000A844
:100690000847006861680090704701205FE702200A
:1006A0005DE703205BE7042059E7052057E70620B4
:1006B00055E7072053E710B5DFF8E4490020E07064
:1006C00082B00820FFF77BFE817B032910D00068F1
:1006D00070B90820FFF77DFE012101FA00F000F05B
:1006E00092F80FF69820FFF7D4FF0820FFF7CDFF10
:1006F00013BDF8B50FF68820DFF84C59006800905C
:100700000124DFF8A4090068ADF802008820FFF793
:1007100060FEAE6804FA00F70820FFF75AFE04FAFC
:1007200000F038433043A86000A869688847F1BDED
:10073000DFF86C2910B5936801248C402343936043
:1007400082B0D46824FA01F35168020604D5DA07AE
:100750000AD40FF6302203E0DA0705D40FF6282278
:1007600012680092FFF791FF13BD10B5DFF8300952
:1007700084782046FFF72DFE01462046BDE8104054
:10078000D6E7F8B5DFF82409DFF8BC48016821F0A6
:1007900004010160DFF818090568A168E068A6781F
:1007A000C94389B241EA00073046FFF712FE27FA33
:1007B00000F1C80744BF3046FFF725FE280654BFA6
:1007C00000208020A07001260020FFF702FE0546D1
:1007D0008020FFF7FEFD06FA05F106FA00F0084357
:1007E00000F011F8A5688020FFF7F3FD06FA00F08D
:1007F0002843A0600FF69410FFF74BFF00A888472E
:10080000F1BD05FA00F0C14304F10C0034E538B540
:10081000DFF8A00800F048F8E005DFF82C5805D50F
:10082000012068700FF6681000F01AF8A00505D5D1
:10083000002068700FF65C1000F012F860050ED50D
:10084000687860B1002068700120DFF86C180860DB
:100850005820FFF7DFFC0FF6401000F001F831BD23
:1008600000686968009000A8084738B5DFF84C08B0
:1008700000F01AF8FFF7EBFC88B1DFF824080169F3
:1008800021F0011201F001111443016107E000F0B1
:1008900016F80121A9408C43E9B2FFF749FF002C6B
:1008A000F5D1BDE8314011E004680460BFF36F8FFB
:1008B000BFF34F8FBFF36F8FBFF34F8F704794FA23
:1008C000A4F0B0FA80F5E8B28CE570472DE9FE435C
:1008D000DFF87457E878002840F09E800FE002208F
:1008E000B873214605F10C00FFF7C6FC0FF6AC000B
:1008F0000068696802908DF80A8002A88847E86855
:10090000A968084000F0888090FAA0F000F086F80E
:100910008046FFF754FD07460120B040C44318F05D
:10092000800611D0BA8979683B6800A898470028EA
:1009300004BF3860B8F1800F18D1DFF87007016884
:1009400041F00401016011E0404600F014FB8146D3
:10095000BA897968D7F800C04B4600A8E0470099EB
:1009600011B101994945BAD300B938600120E87046
:10097000A86801992040A86008F00F05B868081819
:10098000B8602A46019800994EB1082DA8BFDFF83B
:10099000302708DA14235A43DFF828370AE0082DF5
:1009A00004DBDFF824271160506006E014235A436B
:1009B000DFF81837D150D1184860FFF748FC40B332
:1009C0004FF48270FFF72CFC4046FFF712FD022027
:1009D00000F078FC4FF48270FFF728FC0028EFD07D
:1009E0001E2000E0022000F06DFCDFF8E406006845
:1009F0008006F7D5012000F065FC002E14BF0FF231
:100A000048700FF2587030F91500FFF70FFC18B955
:100A1000D6E74046FFF7EDFCBDE8F783B0FA80F675
:100A2000F0B2DFE42DE9F843DFF8A806D0F8008043
:100A3000474600264FF00109002F11E097FAA7F072
:100A4000B0FA80F0810001F5807409FA00F520B257
:100A5000FFF7ECFB18B120B2FFF7E2FB2E43AF43E8
:100A6000ECD1FFF7F4FB002869D0DFF8DC05C17892
:100A7000002964D1B10262D5DFF85C1640F2A97298
:100A80000A604B68DFB217B14F683B40DBB240F2FF
:100A9000AA770F60D1F804C05FFA8CF424B14C68D7
:100AA00004EA0C045FFA84FC40F2AB7EC1F800E07B
:100AB0004C68E5B215B14D682C40E4B240F2AC751B
:100AC0000D604D682B40DBB22BB105691D430561FC
:100AD0000A604B604A6840F2AD720A604A6802EAF6
:100AE0000C02D2B232B1036943EA024303610F60E0
:100AF0004A604A6840F2AE720A604A682240D2B246
:100B00005AB1D307C1F800E048BF46F400064A6076
:100B1000D306496848BF46F00106016931F0011269
:100B20001CBF08F08072164311F0011F07D05FEA66
:100B3000485204D521F00111016146F48066F00DA0
:100B400000F0010536F400060FF2546709E096FA4A
:100B5000A6F0B0FA80F457F82400804709FA04F0B0
:100B60008643F4D1FFF7B2FE002D1CBFBDE8F14370
:100B7000FFF707BEBDE8F18370B50446FFF767FBDA
:100B800008B100F08FFB200001D1072070BDDFF815
:100B90001005017809B1082070BD44600121017081
:100BA00000254FF4007445F0800606F00F00082879
:100BB000ACBF21464021304600F0DAF83046FFF75E
:100BC000FEFB00F013F8EEDB002505F00F0008280F
:100BD000ACBF21464021284600F0CAF82846FFF75E
:100BE000EEFB00F003F8F0DB002070BD0021817304
:100BF0006D1C0160092D81607047DFF8B8044FF467
:100C000000610160BFF36F8FBFF34F8F0123DFF8E7
:100C1000CC241360BFF36F8FBFF34F8F03681B05A6
:100C2000FCD50160BFF36F8FBFF34F8F40F2E371CC
:100C3000DFF8A404016040214160BFF36F8FBFF370
:100C40004F8F8020D06140F2FF11DFF854048160A3
:100C50000021C160C170817002210170704780B5B0
:100C600000F030F8DFF86C04016841600020DFF824
:100C70006C1400F021F80021DFF82404C170012178
:100C8000017001BD10B5DFF8C023DFF85444002126
:100C9000517010B9FFF7DBFA08B1DFF84844DFF80C
:100CA000340404600721272000F023FBDFF8381408
:100CB000012000F001F810BD0860BFF36F8FBFF393
:100CC0004F8F704780B52720FFF79AFA78B1FFF76A
:100CD000F6FBDFF814140020FFF7EEFF8020DFF8AA
:100CE0000C1408604FF0FF30DFF80414086001BDF9
:100CF000DFF8AC030078022801DB012070470020F8
:100D00007047002010B500F0C8FADFF83C034078C7
:100D1000002478B1FFF7D3FBDFF898030168890559
:100D200008D4DFF8D01301220A60006880054CBFA8
:100D30000C6001240FE0002010B500F0AEFAC248AC
:100D40004078002400281EBFDFF8A80301680029AE
:100D50001CBF04600124FFF7AEFB204610BDDFF886
:100D6000901301E0DFF86C13DFF88C030860704724
:100D700010B50C46FFF723FB848110BD80B5FFF74B
:100D80001EFB808902BDFFF755BAF8B50446FFF790
:100D90007FFADFF8401308602046FFF74BFA58BB94
:100DA00004F00F000125220605FA00F0214903D5C1
:100DB0000A681043086002E04A681043486000F087
:100DC0003BF814F00F0017D0210615D4082813DAC9
:100DD00000F0B7F9204600F039F9B14EF768204627
:100DE000FFF7F7FA05FA00F027EA0000F0600020AC
:100DF000BDE8F24000F052BAF1BD10B50446FFF76D
:100E000002FB04F00F00012101FA00F0C0432206AA
:100E1000084903D50A681040086002E04A6810409B
:100E2000486000F009F82046FFF732FAB049086040
:100E300010BD000010750240BFF36F8FBFF34F8FDE
:100E40007047000000E100E000700240F8B507467E
:100E50000C46FFF7BEFA00F073F90F2007427A4EF6
:100E600004D1B078874218BF102439D1B168F06836
:100E7000C94389B2084320FA05F1C80748BF1124C5
:100E80002ED43846FFF79BFA07F00F010C2212FB15
:100E900001613A0611D52368143103F06043A2685A
:100EA000B3F1005F04D0D2074CBF944A944A06E0E5
:100EB000D2074CBF934A944A01E08031934A0260C2
:100EC0008CCC8CC10C39416000240021816081737D
:100ED0000121F068A9400843F06080208C49086037
:100EE00032E00000E00F00F0F8B504460D46FFF7D1
:100EF00070FA064600F025F90F200442524F04D143
:100F0000B878844218BF10241ED1B968F868C94364
:100F100089B2084320FA06F1C80748BF112413D448
:100F20002046FFF74CFA0021816000242968016007
:100F300069684160002181730121F868B14008436C
:100F4000F860802072490860FFF7B5FA2046F2BDCC
:100F50001948704738B50C46FFF731FA00F0F0F841
:100F6000A8682060286800280CBFAC7B1124FFF71C
:100F7000A2FA204632BD00F00F00082805DB6548C4
:100F80000068C10304D500207047634951F8200070
:100F90007047624916E0614916E000F00F01082928
:100FA00007DA00064CBF5E485E4850F82100012871
:100FB00000D00020704700004C1302205A490860FE
:100FC000BFF34F8F40F480700860BFF36F8FBFF3A3
:100FD0004F8F704710B50446082100F0ADF9344832
:100FE00001682170416861708168C26841EA02212C
:100FF00061800169426941EA0221A1808169C06979
:1010000041EA0020E08010BD300E022010B5FFF74D
:101010001EF958B1EFF3108472B64C20FFF7FAF8BE
:101020004C20FFF7F7F884F3108810BDBDE810409E
:101030004C20FFF7EFB85020FFF7ECB85420FFF733
:10104000E9B8174880787047500F02202DE9F04129
:101050008046FFF7FCF808F00F040127104D70B12F
:1010600000F06FF800F068F800F060F861001A48CE
:1010700001F2C57101600021416000200BE000F029
:101080000CF900F059F800F051F80020224941F81D
:101090002400FFF7D1FEBDE8F04100F0FFB80000EA
:1010A000500F022068740240207502400072024016
:1010B0008074024000740240087502406C74024063
:1010C000A076024000760240A077024000770240FE
:1010D00074740240047302400078024000750240BC
:1010E0000714C0030714E0030475024084E100E024
:1010F000087302402C750240041480017F03000035
:10110000470300001D030000F9020000C5020000B3
:1011100004E200E0C0740240A0740240187502406E
:1011200020740240447402400C75024007FA00F03B
:1011300026EA0000A8607047AE684046FFF749B94C
:101140000546002000F0A9B808010C0110011401A7
:1011500018011C01200124012C0100003001340180
:1011600038013C014001440148014C01500100009C
:101170000600000006000000060000000600000057
:10118000000000000600000006000001050000004D
:10119000020000000300000004000000060000023E
:1011A000ED0400000D050000B9050000E905000090
:1011B000ED050000F1050000F5050000F90500004F
:1011C000FD050000010600006B0700000506000099
:1011D0004D0600009B0600009F060000A3060000CD
:1011E000A7060000AB060000AF060000B306000033
:1011F000B7060000F30600000F0800008307000098
:101200006B080000CB08000062B38B0708D0521EA9
:1012100011F8013B00F8013B00F024808B07F6D168
:10122000830740F0208000BF103A07D330B4B1E804
:101230003810103AA0E83810F9D230BC530724BF58
:10124000B1E80810A0E8081044BF51F8043B40F88A
:10125000043BD20724BF31F8022B20F8022B44BFF5
:101260000B7803707047083A07D3B1E80810083AC2
:1012700040F8043B40F804CBF7D25307E4E7FEE71D
:1012800072B607480168491C01607047044801684C
:10129000491E016000D162B67047F1E7F6E7000031
:1012A000501402200B486FF07F414160052101601E
:1012B000704709490A680B68D31A1B021B0A83424C
:1012C000F9D370470549064A0968B1FBF2F1484372
:1012D000EFE7000010E000E018E000E02C02002042
:1012E00040420F0080B500F0E9F8BDE8014000F091
:1012F00039B910B54901020006D50B4B00F00F04B7
:10130000E31803F8041C01E0084C015541090122CF
:1013100000F01F0002FA00F0054A42F82100054AD9
:1013200042F8210010BD000018ED00E000E400E0EC
:1013300080E200E000E100E0002200F05BB9FEE79F
:101340004FF0804181B000224250405800900098F8
:1013500001B0704700F18040006800B10120C0B2C8
:1013600070476849096801F0011140F480308142FA
:1013700001D1012070470020704780B563490120EA
:1013800008600120FFF7EDFF0028FAD15E494870A0
:1013900001BD38B55C4D2878002408B185240FE0E4
:1013A000A86068602861E86059480068C00703D4F5
:1013B00007210020FFF79DFF564901200860287093
:1013C000204632BD0268134600E01B6813B18B4211
:1013D000FBD170470A600160704738B54A4C05463A
:1013E000A07830B115B169680120884700F041F854
:1013F00013E0FFF752FF25B1294604F11000FFF773
:10140000E1FFE06848B94FF48270FFF799FF434964
:1014100002200860012042490860E068401CE0604A
:1014200022E038B5384C0546607830B115B16968AE
:101430000020884700F01DF813E0FFF72EFF25B1CC
:10144000294604F10800FFF7BDFF606848B94FF472
:101450008070FFF775FF3149012008604FF080412F
:1014600008606068401C60600020BDE83240FFF703
:1014700015BF0020FFF711BF80B5FFF7FAFF224824
:101480004168491E4160406808B9FFF776FFBDE832
:1014900002400020FFF702BF38B504001A4814BF0D
:1014A00000F1100500F1080504E0086828602046F6
:1014B0004968884729680029F7D131BD38B54FF40C
:1014C0008070FFF747FF104C134D48B14FF4807008
:1014D000FFF736FF0120286060700020FFF7DCFF77
:1014E0004FF48270FFF736FF50B14FF48270FFF770
:1014F00027FF022028600120A070BDE83240CBE722
:1015000031BD00000C040040E8130220040000403C
:1015100000E100E01805004008030040040300401B
:10152000080000404FF08042815811B100238350E1
:1015300001210846704710B5044600F00BF82068FA
:10154000010005D0284988604FF460702749086081
:10155000002010BD26494FF4607008600020224929
:101560008860704738B521481F4D0468600706D56C
:101570004FF48470FFF7D6FF08B128688047A006B3
:1015800007D54FF48A70FFF7CDFF10B169680020CE
:101590008847600607D54FF48C70FFF7C3FF10B182
:1015A000696801208847200607D54FF48E70FFF741
:1015B000B9FF10B1A96800208847E00507D54FF4AE
:1015C0009070FFF7AFFF10B1A96801208847A00510
:1015D00009D54FF49270FFF7A5FF20B1A968BDE8C7
:1015E00034400220084731BD2C140220040300407F
:1015F00008030040401810F0030308D0C91A1FD395
:10160000DB0748BF00F8012D28BF20F8022D13008A
:1016100030B414461546103928BF20E93C00FAD8EA
:10162000490728BF20E90C0048BF40F8042D890075
:1016300028BF20F8022D48BF00F8012D30BC7047AC
:10164000C91818BF00F8012DCB0728BF00F8012DDD
:101650007047FEE70178407840EA01207047017842
:10166000427841EA02218278C07841EA024141EAA7
:101670000060704742780178120442EA0161827882
:10168000C07841EA022108437047027A914201D3AF
:101690000020704701EB410108180930704742787B
:1016A000914201D3002070478278101808187047C3
:1016B00038B500F01DF829680068814201D3072081
:1016C00032BD2946204622689268BDE8384010475E
:1016D00038B500F00DF829680068814201D3072071
:1016E00032BD294620462268D268BDE838401047FE
:1016F00004460D4621684969084703681B69184775
:1017000080B50021FFF7C1FF002104E080B5002172
:10171000FFF7BBFF0121FFF7C2FF007802BD70B5E4
:1017200084B0016801F10804FFF7F0FF05461F21AE
:10173000204600F085FE0FF6F0414CC900A800A934
:101740004CC00094284601F03CF910B9022184F8FD
:101750002C1004B070BDFEB50F46016801F10804FD
:10176000FFF7CEFF05460D2104F11F00FFF7E4FD52
:1017700004220FF6A44104F11F00FFF745FD0422E7
:10178000211D04F12300FFF73FFD042204F1440171
:1017900004F12700FFF738FD04F12B060FF6944102
:1017A000377000A88CC98CC004F11F00009000A9FC
:1017B000284601F006F908B908217170FEBDFEB592
:1017C00000F017F8FFF79CFF04E0FEB500F011F8F9
:1017D000FFF79CFF00A9002200239446A1E80C100B
:1017E0000096019400A901F0ECF808B987F82C5094
:1017F000FEBD0E46016814461D4601F108077047FC
:10180000F8B504460D46206800F108062046FFF7AB
:1018100077FF074600F067F804463846FFF7B9FB44
:101820002046FFF7B6FB3846FEF748FE2046FEF797
:1018300045FE86F82C50F1BD70B500F056F800F06A
:101840006AFA08B1012604E0012100F0E7FC002655
:1018500070B109212046FFF7D3FF4EB1287B000667
:1018600003D400F040F8FFF7F1FB00F054FA68648D
:10187000002070BD0A21C3E7F8B500F036F84878BB
:1018800000F01F00022804BF8878012829D1B1F890
:10189000030030BB95F82C000A2801D10F20F2BDBF
:1018A0004F793846FFF78AFB3846FFF774FB00266E
:1018B000380614D595F82C00092802D00B2806D03C
:1018C0000DE000F010F8FFF766FB012104E000F0E6
:1018D0000AF8FFF760FB022100F0A0FC0646304644
:1018E000F2BD0620F2BD204610E70446206800F154
:1018F00008057047F8B5FFF7F8FF8878FF2804BFA0
:10190000B1F80300002818D1B1F80700A8B92046A3
:10191000FFF7F6FE0646FFF7E6FF07463046FEF7FE
:10192000CDFD3846FEF7CAFD95F82C0002281CBFF5
:101930002046FFF7F4FE0020F2BD0620F2BD70B590
:101940000D46044668784109C00982B001F00301E0
:101950002CD011B101290FD036E0A878062833D158
:1019600000200090EA78297900AB204600F089FD3C
:10197000010029D0009A15E0A878FE2801BFB5F82B
:1019800003000028B5F8070001281DD100A801F0C8
:1019900082FB0646606A401E30802046FFF7BFFE8D
:1019A00001223146681C01F033FB76BD11B10129DB
:1019B00005D009E029462046FFF75EFF76BD29469F
:1019C0002046FFF797FF76BD062076BDFEB501687D
:1019D00001F1080202F13004002102F150032176E6
:1019E00001215D781E7801FA05F7BE431E70A768D5
:1019F000002F08BF002E06D10021E16061606178F0
:101A0000FFF7A9FEFEBDC6B9026A257852F8252067
:101A1000E569C6697540E56118BF0125A9401970DF
:101A200061680091216901918069E169081802905B
:101A300000A91046FFF73CFEFEBDE66885F00107F1
:101A400002F154055F70A96821B987F00100587050
:101A50000020FEBD6A6805237243FFF7B0FE28B977
:101A6000002100220B460EC501212176FEBDCA6B66
:101A7000C069896BB0FBF2F0B1FBF2F1814238BF73
:101A80000846704770B50446154605F10D004278CA
:101A9000062A03D30078496A884200D33EE100F069
:101AA0003AF905F160061228306088BF12203060D4
:101AB00000B937E1122105F1640000F0C1FCF0200B
:101AC00030710B20F07205F1640132682046CFE1DD
:101AD000E0B5086A537B50F82300343200231375B5
:101AE000137793610123137713680093D3680193ED
:101AF000896992695118029100A9FFF7D9FD0EBDBD
:101B00002DE9F84300F075F809F10F07417806292F
:101B100003D30078696A884200D375E0296A51F8D6
:101B2000206009F130042070B81CFFF793FD79782C
:101B300001F01F0140EA0140606000F063F9A0601D
:101B400000F01FF949464068E06000F05BF8206152
:101B50004A46E06839794843A16888423CBF081A80
:101B6000606108E170B502F138050C46A9686B6840
:101B70002A686E695943914238BF0A46A169062313
:101B80007118FFF722FE58B900216976297E41F0CD
:101B900001012976E269696951406961012129746D
:101BA00070BD2DE9F84300F024F809F10F044178E5
:101BB000062903D30078696A884200D324E0296AA1
:101BC00051F8206009F130073870A01CFFF742FD82
:101BD00000F017F900F0D4F800F011F838614A4627
:101BE000F86821794843B96888423CBF081A78618F
:101BF000EFE080460D46914609F10D0070474946D9
:101C00004068F860284632E74046BDE8F24313E6F4
:101C1000F8B515460446687C0E4618B9687B716AAB
:101C2000884203D32046FFF707FEF2BD00F073F8A9
:101C30002866242888BF2420286610B900F0EDFA11
:101C4000F2BD05F164070020387000AA802078708A
:101C50000620B8701220F87020203871306A697B35
:101C600050F821000021009105F184060121FFF7C1
:101C700044FD009898B10168082205F16C0001F05C
:101C800039FA00984168102205F1740001F032FA27
:101C9000009881680422304601F02CFA09E005F131
:101CA0006C000021002206C00B468C46A0E80E10F6
:101CB000316003232A6E39462046FFF780FDF2BDCE
:101CC00070B515460446A87B0A280E4603D3687BE8
:101CD000716A884200D321E000F01DF828660828C8
:101CE00088BF0820286600B91CE0306A697B50F87C
:101CF000210001684969884701682A6E491E09BAAE
:101D0000696605F16401406800BAA86603232046AD
:101D1000BDE8704053E505F10800A0E42046BDE8A9
:101D2000704089E52046BDE87040002113E52DE9AB
:101D3000F84300F06AF80AD37878696A884206D2D4
:101D400000F060F800B96FE03878000600D45BE777
:101D500000F04EF800F055F800F012F8FFF74FFFD2
:101D60003861E01DFFF776FC00F059F800F036F816
:101D70003CBF401A786129464046BDE8F843A7E6D3
:101D8000B86030463168496908472DE9F84300F0EA
:101D90003CF80AD37878696A884206D200F032F8B3
:101DA00000B941E03878000600D52DE700F020F8B2
:101DB00000F027F8FFF7E4FFFFF721FF3861E01D8F
:101DC000FFF748FC00F02BF800F008F83CBF401A81
:101DD000786129464046BDE8F843C3E6F9686143A7
:101DE00088428041C00F78704A46B8688142704787
:101DF000296A787851F8206009F130073870A01C02
:101E000038E4786009F1080029E48046914609F138
:101E10000C070D46B8780A2809F10F0470470446EC
:101E200009F10800FFF71BBC4046BDE8F44301215F
:101E300091E470B515460446A87B0A2803D3687B55
:101E4000496A884200D369E7FFF765FF28660428DE
:101E500088BF0420286605F1640608213046FFF794
:101E60006BFA0620707031460020307020462A6ED2
:101E7000BDE870400323A2E438B504463021206851
:101E800000F1080505F1300000F0DAFAFFF72BFD4C
:101E900000A9FFF75FF8002804BF00981F2806D1AB
:101EA00004220FF27C51284601F05AF920B1204655
:101EB000FFF7E0FC002032BDE87BF0B1032828D01A
:101EC00004286FD0082829D00A282CD012282FD017
:101ED00015285DD01A2830D01B2859D01D2857D07E
:101EE0001E2855D0252844D0282847D02A284AD053
:101EF00055284DD05A284DD051E0FFF70CFF00284F
:101F000004BFA87B06284DD1687B616A884249D20C
:101F10003EE000F04FF8FFF7B5FD32BD00F04AF8A3
:101F2000FFF7EEFD32BD00F045F8FFF73AFE32BD97
:101F300000F040F8FFF76CFE32BDA87B062831D3D5
:101F4000687B616A88422DD2FFF7E5FE2866042887
:101F500088BF0420286605F164010320087003236C
:101F6000002048708870C87020462A6EFFF727FC52
:101F700032BD00F01FF8FFF7A3FE32BD00F01AF8E3
:101F8000FFF7D5FE32BD00F015F8FFF7FEFE32BDBB
:101F900000210CE000F00EF8FFF74BFF32BDFFF719
:101FA000BAFE18B12046FFF747FC32BD012100F010
:101FB00035F932BD2A4621462046704770B50546A0
:101FC00084B0286800F10801002001F1500601F1F9
:101FD000300420763178E268032920D0216951430A
:101FE000A26891421BD2521A914238BF0A46B2B13E
:101FF000A869E169091806232846FFF7E6FB70B9CE
:102000007178327881F001017170012303FA01F1D6
:1020100011433170EA69E16923765140E161617EE3
:10202000A9B9286A217850F821003278E169032A99
:102030001CBFEA6951406268009222690192AA6954
:10204000891802910121617600A9FFF741FB04B0D4
:1020500070BD38B504462068C978083000250129CC
:102060000BD190F82C00062839D0082818BF012879
:1020700035D12046FFF753FB23E0032903D101218B
:1020800080F82C100CE090F82C0002290AD10628C8
:1020900003D10B212046FFF7B3FB2046FFF7EAFBF5
:1020A000002032BD022806D0042808D006280AD015
:1020B000082814D012E02046FFF7DEFE01E000F011
:1020C000ACF805460BE00020FFF7E7F82046FFF7E5
:1020D00075FF05460020FFF7E1F800E006252846D9
:1020E00032BD00002DE9F84304460A782068002735
:1020F0000A2A00F108054FF001081DD8DFE802F0B8
:102100008A8A2A8A89060A37565B74002046FFF7B6
:1021100016FC4EE08A78120618D5C978002979D1C4
:1021200090F8340003280CD0052806D0062818BFE4
:1021300008286FD0092807D16BE02046FFF746FC3E
:1021400037E000F06BF834E0032763E02046FFF748
:1021500080FF2EE00025606A85425BD2206A50F83D
:10216000250000221146FFF7C8FA6D1CF3E7002195
:10217000032001F027F8B8B1017849080D2913D3DD
:10218000012230F81230A3F16105062D21BFA3F121
:102190004105062D303B0A2B06D2521C8A42F0D351
:1021A000204600F087FB04E0062034E0204600F0E3
:1021B0008BFB07462EE000260FF22129606A86423B
:1021C00028D2206A50F8260003681B682246494638
:1021D0009847070006D1B5F8880008FA06F10843C9
:1021E000A5F88800761CE9E70026606A864211D2CD
:1021F000206A50F82600016849688847070006D120
:10220000B5F8880008FA06F18843A5F88800761C1E
:10221000EBE706273846BDE8F28300212046FFF7AA
:102220009ABA42690A60006970472DE9FE438D68D9
:102230008046286800F1080404F13406F068D6F8F6
:102240000890B76907B101274968B1E8085004F15F
:1022500054020021A2E808507175316841183160BC
:1022600000FB09F07168884234BF081A00207060D2
:102270002146FFF7C7FCF060307D98B9543477777A
:1022800005236068A16809FB00F22846FFF797FA6A
:1022900018B12846FFF7D0FA04E00021002207C455
:1022A00001203075307F03281CBFF16800291AD047
:1022B000B169EA695140B16118BF0121012202FAF6
:1022C00001F10843307730680090F0680190B169FF
:1022D000A8690818029000A94046FFF7E9F910B173
:1022E0002846FFF7A9FABDE8F7832DE9F0478C6887
:1022F0004968D4F818E084B022688F68083202F187
:102300003405B1E80007EB68AE68774502F1540E7A
:102310000CBF4FF0FE0C4FF0FD0CAEE80007297F1C
:10232000D5F804E003FB06F70CEA010C00216975FF
:1023300085F81CC0296859187745296019D2BEEB69
:1023400007076F6017D07343BB421DD3AA69BCF166
:10235000030F1CBFE3695A400091E9680191A1692C
:10236000511802910121697500A9FFF7B1F998B3DD
:102370002FE0002068600020A8602860204692F8C6
:102380003110FFF7E8F927E0287D28BBFE1AB34299
:1023900038BF1E4606B311462046FFF768FBE860CB
:1023A0000623A069A969091832462046FFF70DFAED
:1023B00078B9687F297F80F001006877012202FAEE
:1023C00000F008432877E169A8692A754840A861A8
:1023D00002E02046FFF730FABDE8FF8738B50D462A
:1023E00004462878022802D0032808D031BD0020F6
:1023F000FEF753FF29462046FFF717FF06E00020AF
:10240000FEF74BFF29462046FFF76FFFBDE832403D
:102410000020FEF743BF0000555342530000000068
:102420005553424300000000000000001F00000060
:1024300000000000000000000D000000000000008F
:10244000002200F0D7BEFEE7027A914201D30020BD
:10245000704701EB410108180930704742789142FA
:1024600001D300207047827810180818704742681E
:1024700012681047DFF87C1649680A0018BF084741
:102480007047F8B5154642680C461E4652683146FC
:102490009047010013D00022002303E05B1C00786A
:1024A00052FA80F23068824209D250184778A74227
:1024B000F5D1DBB29D42F1D101783160F2BD00204F
:1024C000F2BDDFF8301600F00F02000601EBC2018A
:1024D00002D501F1F400704701F11000704710B50A
:1024E0000C46FFF7EEFF002C04600EBF0021616870
:1024F0000968416010BDDFF8FC250146106952698A
:10250000104770B5DFF8EC5582B0044605F1E406DB
:1025100000A9304600F09CFE58B1216801603046A9
:1025200000A900F0B7FE2A68014610001CBF204633
:10253000904773BDE5E70FF2DC50E2E758B504467B
:10254000801E02D0C01E032801D8012000E0002018
:10255000DFF8A065317B891E02D0C91E032901D88E
:10256000012100E0002188420BD0A01E02D0C01E35
:10257000032804D806F59E70FEF753FF01E0FEF72E
:102580007BFF022C317B16BF082C01200020022982
:1025900016BF082901210021884208D0022C18BF4B
:1025A000082C02D1FEF7DEFB01E0FEF7D8FB347306
:1025B00051BDF8B50546DFF83C450423842204F1FB
:1025C000600104F1E40000F02FFE08B10320F2BD29
:1025D000FEF7DFFEDFF82005FEF7CEFA58BB002D30
:1025E00006BF0021002207CD07C40C3C0020207349
:1025F000A065E06500F025F800F01EF80024DFF883
:10260000FC54E1B22846FFF71FFF0646641C56B192
:10261000002700F04CF97F1C0028F2D000782946F2
:10262000FFF75DFFF5E70FF2F0400068009000A9AA
:102630002846FFF71CFFF2BD482104F11000FFF708
:10264000FFBE482104F1F400FFF7FABEFEF7D5BA49
:10265000FEF705BBDFF8A8040168890703D4016809
:10266000C907F9D470470FF2B4404AE780B50FF2BA
:10267000B04002E080B50FF2AC4000F001F801BDBF
:102680000068009000A83CE738B5DFF868540446BD
:102690002178287B002968D0012971D0022900F017
:1026A0008E80032970D0042977D0052900F0978007
:1026B000062900F098800B2900F08A80802936D006
:1026C000812906D0822918D0832938D084293ED088
:1026D00031BD0FF2544400F09FF800F09BF8092040
:1026E000FFF7C8FEE86D00280CBF287A0120FEF72E
:1026F000C9FA00F0EBF901205EE000F0E7F9FEF71F
:10270000E1FA0020FFF71AFF0FF2204400F082F8F0
:1027100000F082F80A20FFF7ADFE287B801E02D071
:10272000C01E032875D8BDE83140FEF7A5BE0528B8
:1027300041D06ED307283ED06BD208203CE003285E
:1027400067D1FEF7DEFA002863D0042034E00328C6
:1027500005D1FEF7D6FA10B10420FFF7EFFEFEF721
:10276000EAFA002855D0062026E00020FFF782FE76
:10277000ED6D002D4DD000F013F928684568F8E79D
:1027800000F0A4F9022000E00520FFF7D7FE0320A7
:10279000FFF770FE00F040F81DE00320FFF76AFE2F
:1027A0000FF28C3400F038F800F034F8287B06285B
:1027B00008BF072000D00220BDE83240BEE603205B
:1027C000FFF7BCFE0220FFF755FE00F023F806E0FD
:1027D0000B20FFF74FFE2046BDE83240D4E02046F4
:1027E000BDE8324087E6A078FFF76BFE024621463F
:1027F00010685268904700281EBFA0780F21084239
:1028000007D000F00F010829BCBFBDE83240FEF739
:10281000C0BB31BD2046B7E020466CE610B582B0A3
:10282000DFF8E04200A9204600F044FD30B1FFF798
:102830002BFF00A9204600F069FD012016BDF8B568
:102840000446002500F01EF906466D1C6EB10027F7
:1028500000F02DF87F1C0028F4D00078FFF731FE3F
:1028600000680028F4D01120F2BD002500F00AF91C
:1028700006466D1C56B1002700F019F87F1C002891
:10288000F4D000782146FFF72AFEF5E7DFF878025A
:1028900000E0086801680029FBD1046000A90FF27C
:1028A0009420006800902046FFF7E1FDF2BDF9B2E8
:1028B0003046D3E5954901E01168091D0A68002AF0
:1028C000FAD1086000207047904901E01168091DA5
:1028D0000A6842B18242F9D1006842680A60002168
:1028E000416000207047052070478948007800B19A
:1028F0000120704710B5044604F00F00082805DADF
:102900002046FEF75BFB2046FEF745FB2046BDE870
:102910001040FEF73ABA7748806D70472DE9F041D4
:1029200080467448866D0D4601E0306806688EB1B9
:10293000377A002400E0641CE4B2BC42F5DA214698
:102940003046FFF781FD00784045F4D105B12C7089
:10295000304600E00020BDE8F081114687E510B563
:102960000C46020600F00F0103D5092903DB1020F5
:1029700010BD0929FBDAFFF7A4FD00680028F6D096
:102980002146BDE8104072E538B504465948856DCA
:1029900003E000F005F828680568002DF9D131BD85
:1029A0002146284663E538B552498D6D0446062018
:1029B00001E029680D681DB1FFF7F2FF0628F8D085
:1029C00032BD38B504460D46FEF7DDF918B1494869
:1029D000007B022801D0082032BD29462046BDE8F0
:1029E0003440FEF733BA38B504460D46FEF7CBF94E
:1029F00018B14048007B022801D0082032BD29468A
:102A00002046BDE83440FEF76FBA70B504460D4667
:102A1000606883681800164603D020469847062849
:102A200012D10EB1072070BD294600F02CF80446E3
:102A3000657805E000F009F8761C0078FFF75AFF8A
:102A4000F6B2AE42F6DB002070BD3146204605E509
:102A500070B504460D466068C26810001CBF204671
:102A60009047294600F00FF804460026657805E0F7
:102A7000FFF7EBFF761C0078FEF7BFF9F6B2AE4227
:102A8000F6DB70BDE9B22046FFF7DEBC10B50246AA
:102A9000002053681B691C0003D0BDE8104010469D
:102AA000184710BD70B51348846D0AE0002229460E
:102AB0002046FFF7AAFF6D1CEDB2B542F6DB206899
:102AC000046814B1267A0025F6E770BD70B5094890
:102AD000846D09E029462046FFF7BAFF6D1CEDB270
:102AE000B542F7DB2068046814B1267A0025F6E7C2
:102AF00070BD00000000002035250000B05A000025
:102B000038040040E4000020580000205C00002051
:102B10006014022080000000070000008100000017
:102B20008200000083000000090000000A0000008D
:102B30000300000007000000DFF86C150A7A8242EB
:102B400004D008720FF29850FFF79EBD7047002026
:102B500070472DE9F84F0D460446686892460126F5
:102B600018B920600026606039E0FEF7F1F9FEF741
:102B7000EFF98046E86800278245D14602D98146B0
:102B800000E00026B9F1000F26D0A868B8B1CB4606
:102B9000814588BF834669685A4607EB0800FEF7FF
:102BA00033FBA868A0EB0B00A860A9EB0B09E86851
:102BB000A0EB0B00E8605F44686858446860E86810
:102BC0000028DED0A8680028DCD1286850B96860E9
:102BD00017B1574538BF0026C4F8008067603046FB
:102BE000BDE8F28F4268526805F1080190476860BD
:102BF0002868006800682860C4E710B582B00C46F9
:102C000000A800F048FA0146002008704870DFF87C
:102C10009824087840F001000870527AC2F340020C
:102C200012B140F0020008700222601C00F0F0F9BE
:102C300016BD2DE9F0410C4682B02079012804D060
:102C40005BD303284DD004D357E012220FF270411A
:102C50004FE0B4F807500A2D28BF0925FFF75BFEA7
:102C60004FF00908002607460AE07A68526800A972
:102C70003846904700988044387A86193868076843
:102C8000002FF2D100A800F006FA07462A460FF2FC
:102C90004441FEF7B9FA3E71A7F80280FFF725FE1E
:102CA00018B1F87940F02000F871FFF734FEDFF832
:102CB000FC6330607760B560B4F80700F060002016
:102CC000FEF7EBFA0FF224418020FFF78CFE0400A0
:102CD00002D100F0CCF904460020FEF7DFFA2046CE
:102CE0000CE0B4F80510E07800F06CFA010004D0B4
:102CF0000A78601C00F08CF900E00620BDE8F6813F
:102D000038B50C466178C1F34112002A5ED1A27831
:102D1000DFF89453C9091FD022B1062A06D0082A29
:102D200008D053E02146FFF768FF32BD2146FFF788
:102D300080FF32BD00A800F0AEF90146287A0528D0
:102D400008BF012002D0042840D1002008700122D1
:102D5000601C00F05DF932BD287A697A012A16D02C
:102D6000032A0DD0052A02D0092A18D02EE0032804
:102D70001CBF0428052816D1FFF7A8FE04201FE079
:102D8000B4F80300012821D141F0020005E0B4F8B5
:102D9000030001281AD101F0FD00687212E0052835
:102DA00018BF042801D0082032BDE07818B9FFF719
:102DB0008DFE042004E0012806D1FFF773FE0520F4
:102DC000FFF7BAFE002032BD072032BD062032BD1B
:102DD000F0B585B0064605208DF8000006240DF1FB
:102DE0000100FEF7F7F89DF80100AF4D10F01F004D
:102DF00005D002285AD00AD3032807D09CE000A9A6
:102E00003046FFF77DFF0446062CF7D190E09DF891
:102E1000050004A9FFF782FD060005D11024FEF786
:102E20000DF9204605B0F0BD9DF8101000AAFFF77F
:102E300094FD0446062C0ED19DF801009DF81070FB
:102E4000C0F341110029EAD1297A9DF80220C00976
:102E500019D072B10A2A6FD1052918D103A800F040
:102E60001AF9044639463046FFF710FE2070012259
:102E700058E005290BD103A800F00DF900210180CD
:102E8000022201464FE00B2AC9D1052901D00824AE
:102E9000C5E7BDF80300FF28C8BF0724BFDC9DF8C5
:102EA000032039463046FFF7B0FD44E09DF80500A9
:102EB0000F21084205D000A9FFF751FD0446062C5A
:102EC0003AD19DF80100C0F341100028A7D19DF828
:102ED0000560BDF803109DF8022006F00F00C2B196
:102EE000012A02D0032A0BD026E0082897DA00290D
:102EF00095D13046FEF762F83046FEF74CF806E012
:102F000008288CDA00298AD13046FEF742F80024DE
:102F100014E003A800F0BFF804463046FEF73DF881
:102F20002080022221460DF1010000F071F802E03C
:102F300000A8FFF738FD0446002CE4D1286810B93A
:102F4000FEF779F86DE7FEF761F86AE770B50C46B1
:102F500006252178544E491E092954D8DFE801F08E
:102F6000052D09531E2F2D22242A0320FFF7E4FDEF
:102F700049E006F10C03002453E8002F02EA0401A3
:102F800043E8001090F0000FF6D1B2B1484901209B
:102F90000860BFF36F8FBFF34F8F0EE0FFF718FF8E
:102FA000054630E0002006E042480068C00748BF00
:102FB000022000D40120FFF7BFFD002523E0326886
:102FC00010001DD0002030607168E0789047050047
:102FD00017D13068C8B9A078A8B93748017808294E
:102FE00004BF017911F00F0F07D1017A11F0F00F32
:102FF00004BF007B10F0F00F05D0FEF71CF802E0D4
:103000000E25FEF71BF8284670BDFDF7FFFFFAE717
:1030100070B5C0881646B04284B00D4619D2044639
:103020000020010018BF01210291009501940020A9
:10303000FEF733F900A98020FFF7C3FC040002D19A
:1030400000F015F804460020FEF728F9204604B0E9
:1030500070BD86423446E3D28020FDF78FFEB6FB7A
:10306000F0F100FB1160401E8041C00FD9E70FF264
:1030700074018020FFE738B504460D46FDF7E1FFF7
:10308000A04201D0102032BDD5E90001064AC2E9B4
:103090000001002032BD08B140210160074870479F
:1030A0000148007A70470000FC1302200C14022033
:1030B0005C70024038040040E00F00F0CC120220A7
:1030C000120100020000004015190E520001010219
:1030D0000301000009020000000100C0FA00000026
:1030E0000B0000004F2B000000000000532B0000DD
:1030F0000C14022001B58B0718D1121F21D351F8EF
:10310000043BA3F1013C2CEA030C1CF0803C04BFFF
:1031100040F8043BF1E79CFA8CFCBCFA8CF1C1F15D
:1031200018018B40CB4040F8043B13E0042A09D33C
:1031300011F8013B521E00F8013B5BB18B07F7D140
:10314000DBE7121D5AB111F8013B521E00F8013B9A
:1031500003B1F8D111001CBF0022FEF74BFA01BDEC
:103160000300002013F0030F09D0521E22BF13F8F2
:10317000010B11F801CBB0EB0C00F3D07047121F1C
:1031800022BF53F8040B51F804CB6045F7D0121D51
:103190000AD200BA9CFA8CFCB0EB0C0038BF6FF07E
:1031A000000088BF01207047521E22BF13F8010B98
:1031B00011F801CBB0EB0C00F6D0521C08BF104642
:1031C0007047FEE710B90FF220007047052801D3C1
:1031D000002070470FF21401405C10B1014951F812
:1031E00020007047D40100200403090000010203FD
:1031F0000400000000B500BF130096469446103945
:1032000028BFA0E80C50FAD85FEA417C28BF0CC068
:1032100048BF40F8042BC90728BF20F8022B48BF3D
:1032200000F8012B00BDFEE710B509B90E2010BD56
:1032300092FBF3F403FB14240CB1092010BD0160D0
:103240008281002141608160C381002010BD0000A7
:103250003CB550E8015FAAB2C3891A4483899A42F7
:1032600028BFD21A03899A4202BFBFF32F8F0024CE
:1032700007E0C2EA050240E80123002BE9D14FF044
:10328000010400F03AF81AB100680988081836BD40
:10329000002036BD0A8849888A4209D150E8011FBA
:1032A000C1EA014140E80112002AF7D1012070472C
:1032B000002070473CB550E8025F1FFAA5F2C388B2
:1032C0009A4202BFBFF32F8F00240DE0C3891A4436
:1032D00083899A4228BFD21AC5EA024240E80223F3
:1032E000002BE8D14FF0010400F007F81AB1006894
:1032F0004988081836BD002036BD01958DF800407C
:10330000019A0A609DF80020704700000A884988E9
:103310008A4209D150E8021FC1EA214140E8021265
:10332000002AF7D1012070470020704781B00022A9
:103330000A5008580090009801B07047085800B132
:103340000120C0B2704700F2445001E000F2345056
:10335000016042607047202832BFDFF8CC1400F0D3
:103360001F00DFF8C81407E0202832BFDFF8C014C0
:1033700000F01F00DFF8BC14012202FA00F0086020
:1033800070470000002840D0DFF8AC14DFF8AC2410
:10339000096800BF00BF00BF00BF00BF00BF00BF83
:1033A00000BF91422FD000BF00BF00BF00BF00BFD1
:1033B00000BF00BF00BF00BF00BF00BF00BF00BF15
:1033C00000BF00BF00BF00BF00BF00BF00BF00BF05
:1033D00000BF00BF00BF00BF00BF00BF00BF00BFF5
:1033E00000BF00BF00BF00BF00BF00BF00BF00BFE5
:1033F00000BF00BF00BF00BF00BF00BF00BF00BFD5
:1034000000BF00BF00BF401EC3D170470128DFF8D6
:10341000301402D101F108007047084670470321BB
:10342000820748BF48F20121400748BF48F2022105
:103430000846704738B50446DFF80854616840F222
:103440000C6000F034F86068FFF785FF2068FFF734
:1034500082FF616840F20D6000F029F8002500F05D
:103460002CF82068202832BFDFF8DC1300F01F00A2
:10347000DFF8D813096821FA00F2D00701D56DB939
:1034800031BD6068FFF770FF00F017F86068FFF764
:1034900062FF00F012F86D1C092DE2DB2068FFF7D7
:1034A00063FF00F00AF82068BDE8324053E745F8B2
:1034B0002100216845F821007047042062E7F8B533
:1034C0000C460746DFF888033979282515FB0105E6
:1034D00005F12206307808B10820F2BD2A606B6041
:1034E000A860F070B070A07B7071607B10B1204656
:1034F000FFF7A0FFDFF84C03626840F20C6140F870
:103500002210226840F8221038682168636800F5AC
:10351000A16213605160A168D161296821B1217B4A
:1035200000030016FDF7E5FE012030700020F2BD1B
:1035300038B50446DFF818032179282212FB01056B
:10354000286858B1206800030016012100F01F020E
:103550009140DFF80023400942F82010204600F097
:1035600022F805F12200417961B92168DFF8D422FF
:1035700001F5A16140F202330C6842F82430496839
:1035800042F821300021017031BD0279DFF8C0120C
:103590000068282313FB02110622C0F80025022030
:1035A00081F8220070470279DFF8A412006828230E
:1035B00013FB0211002241F8082F4FF0FF32C0F830
:1035C0000823D0F800220022C0F80022C0F800250D
:1035D00001208876704700F5A86011F0010218BF3D
:1035E000012211F00201026118BF01210160704740
:1035F0002DE9F84F044608208DF8020017464FF4D5
:103600008270ADF800000D46786800F06040B0F1BF
:10361000005F1E464FF000086DD105F541714FF077
:10362000FF30486094F8240020B1A068C5F8040376
:103630001120C8E006F01400401E8041C00F84F83D
:10364000240004F10C000ECF0EC0300904F1240157
:1036500000F001000C3F48704FF482717878DFF879
:10366000F891C5F888054FF4807A00F0B9F800F0B9
:10367000B5F831462846FFF7AEFF3878002840F20B
:10368000022B43D002282ED056D3032862D1B8682B
:1036900000F06040B0F1005F2DD1C5F800A200F04D
:1036A00099F84FF4A87100F09BF84FF4B07100F056
:1036B00097F84FF4A47100F093F801202862A860F5
:1036C0004FF4A8712846FFF739FE0028F8D04FF4D0
:1036D000A87100F085F8FA78B9682846FFF733FE3C
:1036E000C4F8089038E000F075F8B96801F060405F
:1036F000B0F1005F01D0102065E0FA782846FFF7AE
:1037000025FE4FF4845000F060F825E000F062F8E8
:10371000B0060CD5C5F800A2C4F808904FF4A47107
:1037200000F05EF84FF4A470ADF800000FE04FF425
:10373000007000F04AF80AE0BA7879682846FFF786
:1037400005FE4FF4805000F040F88DF80280012013
:10375000286201E04FF00708300706D438780328C4
:1037600003D09DF80210012048512068B8B17007BD
:1037700044BF4FF40070A060A068C5F8040320E0C7
:103780004FF492712846FFF7D9FD40B100F026F8BA
:103790000120286268614FF48270ADF8000028466D
:1037A000BDF90010FFF7CAFD0028E9D0D5F8C40420
:1037B000C5F8C404002184F8241010B1FFF72FFECF
:1037C00080465FFA88F0BDE8F28FC5F80002C4F8C1
:1037D00008B07047BA7879682846B4E54FF492711A
:1037E0002846A3E538B513460A4601680079184C07
:1037F000282515FB004001B0BDE83040F8E6FEB5D5
:103800000FF25805B5E8C01000ACA4E8C01000F0F5
:1038100005F8002200A9FFF7E5FFFEBD8DF80110B5
:1038200001928DF8023070470805005008080050DA
:103830000C0500500C0800502C0200200024F4005D
:10384000FC01002000070050100500501008005037
:103850003412022080E100E00002040001000000B8
:10386000000000000000000081B000220A5008584B
:103870000090009801B07047085800B10120C0B214
:10388000704700F20C5001E000F5A1600160826019
:10389000704741EA420141EA830210B502992028AB
:1038A00042EA012232BF4FF0A04400F01F00DFF8CF
:1038B0003444039904EB800042EA0141C0F8001748
:1038C00010BD00B583B000210191009101220023B9
:1038D000114606E000B583B00022019200920B462B
:1038E0000021FFF7D6FF07BD202832BFDFF8F8130D
:1038F00000F01F00DFF8F413012202FA00F0086064
:103900007047DFF8EC1308B90846704701F108006A
:10391000704738B50D460446286810F1010F04D0F1
:10392000FFF7E2FF2868FFF7CCFF686810F1010F8E
:103930001CBF0021FFF7CEFF2068AA6900F22451C6
:103940000A606A7D2B7D1A438A6429686A68FFF7DA
:1039500098FF287D012815D1A86810F1010F1CBF20
:103960000021FFF7B7FFE86810F1010F04D0FFF75F
:10397000BBFFE868FFF7A5FFAA68E9682068BDE813
:10398000384081E731BD38B504460D4620684FF414
:103990008871FFF769FF20684FF49071FFF764FFAB
:1039A00020684FF49271FFF75FFF00F0CDF82068B8
:1039B000DFF84013C0F8041300032946BDE8344083
:1039C0000016FDF796BCF8B500F023F800EB4116A1
:1039D0001746F07E08B10820F2BD687F307729468F
:1039E0002046FFF796FF776028693060706818B14D
:1039F000297F2046FFF7C7FF21680820C1F800058E
:103A00000020F0753076B0750120F0760020B07699
:103A1000F2BD0D460446DFF8E00221797047F8B5A3
:103A200000F0E4F84FF49071FFF71EFF20684FF4A8
:103A3000AC71FFF719FF2168A87DAB6801F2445211
:103A400000261360506001208860686870B92068A3
:103A50004FF49071FFF710FF074600F0C3F850EAEB
:103A60000701F4D000B10F260020A8753046F2BD42
:103A7000F8B5FFF7CEFF00EB411705F06040B0F15D
:103A8000005F16460AD1204600F00CF840B9BE751A
:103A9000BD60B8822046BDE8F240C0E71020F2BD0C
:103AA0001120F2BD0079944901EB4010807D00B1F6
:103AB000012070472DE9F04104460E462068174664
:103AC00098464FF48871FFF7CFFE00F03DF820686C
:103AD00000F2345100250E60B8F1000F4F6002D1A2
:103AE0000121016005E0D0F8001241F02001C0F88A
:103AF00000122179804E06EB41114968E9B920682E
:103B00004FF48871FFF7B8FE804620684FF4A27129
:103B1000FFF7B2FE074620684FF49271FFF7ACFE44
:103B200047EA08010143EAD0217906EB4111CD753E
:103B300000B103252FB10F2503E04FF40471C0F845
:103B400004132846BDE8F08120684FF4A2718BE68B
:103B500070B50479684B03EB441401F06043B3F192
:103B6000005F13D1666800234FF404751EB1066828
:103B700006F541767560E67D76B1237E43B16168D6
:103B800011B10068C0F80453112070BD102070BD41
:103B900001232161227603E0E275E16063762376FA
:103BA000BDE8704086E700B585B0034601208DF87A
:103BB00008108DF80000019200A819685A680EE0FC
:103BC00000B585B0024600208DF800008DF8081081
:103BD000906801900020907500A811685268904785
:103BE00005B000BD20684FF4AC7145E6044642487C
:103BF000217900EB4115206870477FB50C464FF4E2
:103C000092710546FFF738FE05F23C56C0B14FF4FD
:103C1000927100F05EF802208DF80000D5F8800463
:103C2000C5F88004039030688DF80800E0680190C2
:103C30000020E07520762168626800A8904722E0A5
:103C40004FF488712846FFF717FEE0B14FF48871F2
:103C500000F03FF83168E07DC9B2814213D1E268DB
:103C6000207E60B1D5F8000220F02000C5F80002E7
:103C7000207EE0752069E0600020207600E0E0759D
:103C80002046FFF790FF4FF4A2712846FFF7F4FD9E
:103C900068B14FF4A27100F01CF8E07D38B100204B
:103CA000E07520463168E268C9B2FFF77CFF4FF447
:103CB00090712846FFF7E0FD50B14FF4907100F08D
:103CC00008F8A07D20B13169C9B22046FFF778FF1E
:103CD0007FBD2846C8E5084908488EE708490948D5
:103CE0008BE7000000030050080500500808005052
:103CF0000C020020100302000C13022000200040E0
:103D00002C130220008002402DE9FC4104460D46A0
:103D1000FFF7F7FD00F057F9287806EB041706EBDC
:103D2000840838B3012832D16868017807F11C0093
:103D300000F043FA60B907F11C0000F00BFA38B14B
:103D40000C2010FB04F08119097A09B180598047D1
:103D500007F11C0000F0FEF9398C814206D30122E4
:103D600008F15C0100A8FFF7F3FE10E0A1190120A3
:103D700088760CE008F1640107F13C0000F02DFAB0
:103D800028B9012208F1640100A8FFF771FEBDE81F
:103D9000F38101460020B7E701460120B4E72DE991
:103DA000F0420446022C8AB0894616461F4680F22D
:103DB000A3800FF28031DFF8485302A891EC080B82
:103DC00080EC080B2046FFF79CFD0246D2E900017B
:103DD000CDE900010C2010FB04500021017241725A
:103DE000B9F5966F039602972FD0B9F5166F2FD0BD
:103DF000B9F5965F2FD0B9F5165F2ED0B9F5615F92
:103E00002DD0B9F5964F2CD0B9F5E14F2BD0B9F59F
:103E1000164F2AD0B9F5614F2AD0B9F5963F2AD06E
:103E2000B9F5E13F29D0B9F5613F29D0DFF8D402D7
:103E3000814528D0B9F5E12F28D0B9F5612F28D0D8
:103E4000DFF8C402814527D029E04FF49E2025E009
:103E50004FF41D2022E0AD4820E0AD481EE0AD4803
:103E60001CE0AD481AE0AD4818E04FF41D0015E025
:103E70004FF46B0012E0AA4810E04FF0EB700DE039
:103E80004FF06C700AE04FF0806007E04FF0E860A0
:103E900004E04FF0706001E04FF08050089005EBB7
:103EA000041705EB8406042206F15C0107F11C00EF
:103EB00000F072F900BB042206F1640107F13C0036
:103EC00000F06AF9C0B9002C0CBF964A964A02A9C4
:103ED00000A8FFF778FD78B90398FF280ED09DF869
:103EE000250010B900A8C046C046012206F15C01B9
:103EF00000A8FFF72DFE08B1002002E061190120A3
:103F000008760AB0BDE8F082022801DB0020704785
:103F10000C2250437A4A81508018012101720120FD
:103F20007047F8B50446022C0D46164601DB00200A
:103F3000F2BD002704E07919204600F01EF87F1C2E
:103F4000B742F8D30120F2BDF8B5022804460D4669
:103F500016460EDA6A494018007E50B1002700E08C
:103F60007F1CB74207D2795D204600F032F8002866
:103F7000F6D10020F2BD0120F2BD2DE9FC4105463D
:103F8000022D88460CDAFFF7BCFC00F01CF8AF19D4
:103F900006EB0510BC7E41461C3000F01EF908B14E
:103FA00000200EE064B1B876012206EB850000F136
:103FB0005C0100A8FFF7CCFD401E8041C00F00E06F
:103FC0000120BDE8F6814E4ED0E90023CDE9002363
:103FD00070472DE9FC410446022C0D46A8BF002085
:103FE00035DAFFF78EFCFFF7EEFF06EB041808F159
:103FF0003C0000F0AFF8B8F84010814206D32946E3
:1040000008F13C0000F0D9F8074605E04FF47A715A
:10401000204600F01FF800B9A7B900A8FFF742FD3D
:10402000A0B906EB840404F1640108F13C0000F03F
:10403000D4F8070006D1012204F1640100A8FFF7BB
:1040400017FD0746781E8041C00F00E00120BDE843
:10405000F681000030B583B00C46FFF752FC334DBB
:10406000D0E90023CDE9002300E0641E00A8FFF79B
:1040700019FD002842D029682D4A012000BF00BF49
:1040800000BF00BF00BF00BF00BF00BF91422FD0E4
:1040900000BF00BF00BF00BF00BF00BF00BF00BF28
:1040A00000BF00BF00BF00BF00BF00BF00BF00BF18
:1040B00000BF00BF00BF00BF00BF00BF00BF00BF08
:1040C00000BF00BF00BF00BF00BF00BF00BF00BFF8
:1040D00000BF00BF00BF00BF00BF00BF00BF00BFE8
:1040E00000BF00BF00BF00BF00BF00BF00BF00BFD8
:1040F000401EC3D1002CB8D100203EBD01203EBDE2
:104100006011022090D0030040420F0000B0130065
:104110000050270000F03A0000A04E0000C07500DB
:1041200000903A01933D0000993D00002C020020D0
:104130000024F400FFFFFFFFFFFFFFFFFFFFFFFF73
:10414000FFFFFFFF00000000000000000000D6019C
:10415000070100008168C068401A704710B5026806
:10416000C368848823409954C168491CC16010BD4C
:1041700010B503688468808814FA81F10840C05C37
:10418000107010BD10B50A4604460021FFF7F0FF7D
:10419000A068401CA06010BD09B90E20704712B184
:1041A000531E134201D0092070470160511E8180C7
:1041B00000218160C1600020704738B504460D467B
:1041C000FFF7C8FFA188814205D329462046FFF7A3
:1041D000C5FF002032BD042032BD38B504460D466F
:1041E000FFF7B8FF28B129462046FFF7CBFF002094
:1041F00032BD052032BDFEE781B000220A500858CA
:104200000090009801B07047085800B10120C0B27A
:10421000704741EA420141EA830210B50299202821
:1042200042EA012232BF4FF0A04400F01F00DFF845
:10423000D842039904EB800042EA0141C0F800171C
:1042400010BD00B583B0002101910091012200232F
:104250001146FFF7DEFF07BD202832BFAB4900F053
:104260001F00AB4905E0202832BFAA4900F01F001B
:10427000A949012202FA00F008607047A74918B165
:10428000022806D002D307E00846704701F1080073
:10429000704701F11000704701F1180070472DE9D7
:1042A000FC4705464FF0240A6879DFF874821AFB50
:1042B00000840E46207F08B108206DE02260636014
:1042C000317C3078022902DAFFF7CDFF01E0FFF7F9
:1042D000C3FF0020019000900246307800230121A6
:1042E000FFF797FF7778FF2F4FF0FF3906D038465A
:1042F000FFF7B9FF3846FFF7A4FF00E04F46B0785C
:10430000FF2809D08146002001900090014601233A
:1043100000224846FFF77DFFF078FF2804D0FFF722
:104320009BFFF078FFF78DFF6879F1781AFB00802A
:1043300081772868327800F5A0618A60CF60C1F883
:104340001090F2684A62737C327C03B10123012A27
:1043500009D00AD3032A03D038BF43F0040304E092
:1043600043F0060301E043F002034B657279C0F8A5
:10437000C025226812B14022C0F80423072008603B
:10438000206820B1317995F90400FCF7B2FF0020D4
:104390006077012020770020BDE8F68700B585B062
:1043A00000918DF804200293002206998DF80C10DC
:1043B00000A900F05BF805B000BD00F541700029D0
:1043C00007BF4021416040210160704700F5A860AF
:1043D00011F0010218BF012211F00201026118BFA1
:1043E000012101607047F8B5044610680D460028A9
:1043F0001CBF00F06041B1F1005F1E4607D191681B
:1044000000291CBF01F06043B3F1005F03D000201E
:1044100068771020F2BD137904F2345738617B615C
:10442000107B3960786000F068F831462046FFF76D
:10443000CDFF30075CBF01202061286860B94FF4D0
:104440008C712046FFF7E0FE0028F8D0A87FFF28F7
:104450000AD0FFF701FF07E0B00800F0010080F08C
:1044600001012046FFF7A9FF0020F2BDF8B50D4677
:104470000446164661792A48242212FB0107787FF8
:1044800008B11120F2BD386820B116F0140F04BF36
:104490000120787795E80F0007F10C0C8CE80F00ED
:1044A00097F8210000F0F80087F82100B87FFF2876
:1044B00018BFFFF7D8FE206833462A46394601B0B8
:1044C000BDE8F0408FE738B50D4604464FF48C71D7
:1044D000FFF79AFE80B100F010F8A87FFF2818BF00
:1044E000FFF7BAFE00206877287269682A6805F12C
:1044F0000800BDE83840104731BD4FF48C712046AC
:104500007AE607490748DEE7000300500805005037
:10451000080800500C0500500C080050B4010020A1
:10452000D010022000300040012100F01F02914015
:10453000904A04E0012100F01F0291408E4A400998
:1045400042F8201070474901002806D58B4A00F038
:104550000F00801800F8041C7047894A8154704786
:1045600081B000220A5008580090009801B07047AE
:104570002DE9F8450446032C0D4651DA844FE05DE1
:1045800000284DD1FCF705FF0020FCF726FFDFF8DF
:10459000FC817C4EDFF8F0A124B1012C0CBF504609
:1045A000404600E03046C0F808551CB1022C18D037
:1045B0000CD32AE002210B20FFF7C5FF0B20FFF7E9
:1045C000B9FF0B20FFF7B0FF304615E002211120A4
:1045D000FFF7B9FF1120FFF7ADFF1120FFF7A4FF90
:1045E00017E002212420FFF7AEFF2420FFF7A2FFEF
:1045F0002420FFF799FF40464FF48071FFF7B0FF8A
:104600004CB1012C08D1D04606E0002CDCD0012CA6
:10461000F1D15046F0E7B0460120C8F80403E05558
:10462000BDE8F18520B101280CBF5748574800E08C
:104630005448FFE70121016070475748006800B9FE
:10464000704710B54FF480714E4800F020F8207884
:1046500008B1A0688047207918B1BDE8104000205B
:104660002CE010BD4D48006800B9704710B54FF4FC
:104670008071454800F00BF8607808B1E068804729
:10468000607918B1BDE81040012017E010BD414C21
:1046900066E74348006800B9704710B54FF4807171
:1046A0003A48FFF7F4FFA07808B120698047A07965
:1046B00018B1BDE81040022000E010BD032800DB67
:1046C000704770B53749384B4018027B521C027353
:1046D000D2B21C785D789E78082A10D1641CE4B2AE
:1046E00000223C2C01BF00246D1CEDB23C2D027356
:1046F00005D1761C0025F6B2182E08BF00269E7044
:104700005D701C70087A48B118780A78904205D319
:1047100000200872BDE870400869004770BD10B500
:10472000032804460EDA1B494018017951B90121CA
:104730000171204640F6FF71FFF71AFF2046BDE8E1
:1047400010406FE710BD002100220846FFE7164B1E
:10475000187059709A70704713480078704737B5D1
:1047600000A934C90F48012134C00C38017203611B
:1047700037BD000000E100E080E200E018ED00E05D
:1047800000E400E000B000400010014000400240A2
:1047900054140220D413022000B100400011014043
:1047A00000410240E801002058140220027A9142A0
:1047B00001D30020704701EB410108180930704710
:1047C0004278914201D3002070478278101808186F
:1047D0007047C269130018BF1047704780B50021A9
:1047E00001E080B50121FFF7E1FF0021FFF7E8FFBD
:1047F000007802BD80B50121FFF7D8FF0121F5E760
:1048000080B508B1032002BD086810F8081F2029F0
:1048100006D1811C07220C30FCF7F6FC002002BDFB
:10482000062002BD30B5044685B08B782068202B69
:1048300000F1080202D0222B2DD04DE0B1F8072064
:10484000072A49D1202200F8082F0022B1F80710CA
:104850004170002302A915462CC1811C02914078A9
:1048600003901046FCF719FD02A92846FEF7A9F8A7
:1048700005000BD10FF2981000A9D0E90023CDE973
:10488000002301940020FEF7F6FB05460020FCF70C
:1048900005FD284621E0B1F80700E8B9107DB1F820
:1048A000031000F0010001F00105A842918211D02F
:1048B000002D14BF022103212046FFF78AFF4DB9C6
:1048C0002046FFF78EFFFBF7F9FD2046FFF792FF2A
:1048D000FBF7F4FD002000E0062005B030BD10B568
:1048E0000C4682B061784A09C90902F0030221D05E
:1048F00012B1012A0ED024E0A178062921D100218D
:10490000009100ABE2782179FDF7BBFD010018D0E2
:10491000009A0BE00068A1780830212904BFB4F8A0
:10492000071007290DD1072200F10C01601CFEF7CA
:104930006FFB16BD2AB1012A03D12146FFF772FF92
:1049400016BD062016BD000070B50D460446287839
:1049500000260A2824D8DFE800F02D2D2D2D23066F
:104960000A25292D2D002046FFF7B9FF21E020461A
:10497000FFF734FFA97888421CD0E878090602D5F1
:1049800020B9012106E020B1012813D0032811D05D
:1049900004E000212046FFF71CFF0BE0032609E09E
:1049A000062607E02046FDF785FF02E02046FDF7DA
:1049B0008BFF0646304670BD82690A6040697047C9
:1049C00080B5FFF717FF00A9FCF7C4FA08B1002073
:1049D00002BD009802BD70B584B000F009F858BF60
:1049E000082003D5FFF706FF00F008F804B070BDFB
:1049F0000D460168097FC9071446704700A90022C7
:104A0000002316464CC10095019400A9FDF7D9BFBB
:104A10000148000000000000DFF81C1208580128BF
:104A200018BF0020704700F1804000F5C040002111
:104A300081B0016000680090009801B070472028A4
:104A400032BFDFF8FC2100F01F00DFF8F82152F838
:104A5000203023F4403342F8203052F8203043EA2B
:104A600001411BE07CB50FF2EC1460CC00AB60C3DD
:104A7000034607E000AC54F82340D4F8104542F850
:104A8000044B5B1C0C18A342F4D373BD012200F04D
:104A90000703C0089A40405C1040704742F820105D
:104AA00070472DE9F04F89B002A800210A4606C0E0
:104AB00000264FF48079012708250FFA89F0FFF7C7
:104AC000ABFF00281EBF61480068384204D00FFACF
:104AD00089F0FFF7A8FF3E437F006D1E09F104092E
:104AE000EBD14FF4BE70FFF797FF50B14FF4BE709B
:104AF000FFF799FF02AA02210020FFF7B3FF46F05B
:104B000000463006DFF8409115D00127504C37425F
:104B10000DD054F8250054F8251059F8252013001D
:104B200005D0090C01F00301C0F3052090477F0078
:104B30006D1C082DEBD3002E7BD506A8002100228A
:104B400006C04FF0FF300090019006AE06E0049AD8
:104B500002924160069A7068009201900027002539
:104B600005EB090090F96000C4B210F1010F24F0C8
:104B7000C0084BD000A94046FFF788FF002845D069
:104B8000A00900F0030408EB090090F9300059F87F
:104B900020A0BAF1000F02D1032C37D101E0032C81
:104BA00008D14FEAD8000122815D08F007039A403E
:104BB000114381554046202832BF4FF0A04100F0FC
:104BC0001F001E4901EB800002A9D0F80007000C6D
:104BD00000F0030B4046FFF759FF18B1BBF1020F7D
:104BE00014D102E0BBF1030F10D1032C08D1BBF1AB
:104BF000020F0CBF032102214046FFF720FF7F1C5C
:104C0000BAF1000F02D021464046D0476D1C042D5A
:104C1000A6D3FFB26FB104AA02210020FFF722FF42
:104C2000049A029B059902A89A4204BF42689142E5
:104C30008DD109B0BDE8F08F006000400003005046
:104C400000070050000A0050CC110220046300400D
:104C500010650040000000500003005080B50122A4
:104C600000A90020FFF75DF9012200A9012008E05A
:104C700080B5012200A90120FFF753F9012200A904
:104C80000020FFF761F901BD80B500F097F80A2018
:104C900000F009F9002100F092F8BDE802400A2076
:104CA00000F001B910B50446002100F084F804F0CA
:104CB0007F01002000F0F6F90021002000F0F2F959
:104CC000044600F077F8204610BD80B50623082280
:104CD0004FF4E1310020FFF762F8222321224FF444
:104CE000E1310120FFF75BF852490020FFF70CF992
:104CF000BDE8044050490120FFF706B92F232E22BA
:104D00002D21002000F046B980B51F221E21002071
:104D100000F0D8F94FF0CC71002000F01AFA012011
:104D20008DF800009DF80010002000F034FA08B162
:104D300000F076F80A2000F0B6F89DF80000401C5C
:104D40008DF800009DF800008028EBDB01BD10B558
:104D500084B000F059FA00F078FAFFF7B6FFFFF7D9
:104D6000CDFFFFF7D1FF0220FFF7EDFC0FF2E001CE
:104D70001CC900A81CC00F208DF8000000A807C89F
:104D80000FF2A903FFF7EBFC0220FFF7C8FC092193
:104D90000D2000F0DFFA09212C2000F0DBFA00F0F2
:104DA00009F80921032000F0D5FA00F007F8BDE862
:104DB0001F4069E701212C2000F0FCBA01210320EB
:104DC00000F0F8BA10B582B000F04CFB00F05EF8CD
:104DD0001A4C2168401AB0F57A7F20D300F056F8BB
:104DE00020600D2000F0E7FA4220FFF75BFF8DF80E
:104DF000010001220DF101010020FFF7A5F8FFF7E6
:104E0000ABFC8DF8000000F00BF8A068411CA1601D
:104E1000062261684A438242BCBF481C606013BDE1
:104E2000012200A90020FFF78FB8000004490020EC
:104E3000087070475D4C0000714C00001C0200209F
:104E40006114022080B5FFF782FFFFF7BBFFFCE78C
:104E5000000000000101D0070000000019480068B0
:104E60004FF47A71B0FBF1F0401EB0F1807F0CD2AC
:104E70001549164A4860E02010700020886007201D
:104E800008600120124908707047FEE710B5104C09
:104E9000207808B9FFF7E2FF606810BD0C48416850
:104EA000491C4160704738B5094D0446287808B957
:104EB000FFF7D4FF2CB16868611E6A68121A91422C
:104EC000FBD231BD2C02002010E000E023ED00E019
:104ED000401402206B4A801801210171704701467D
:104EE0000020F7E701460120F4E701460220F1E740
:104EF00001460320EEE7000030B5624A624D00E053
:104F0000491E131DC35C002B42D0604B1C6801235B
:104F100000BF00BF00BF00BF00BF00BF00BF00BF99
:104F2000AC422FD000BF00BF00BF00BF00BF00BF1A
:104F300000BF00BF00BF00BF00BF00BF00BF00BF79
:104F400000BF00BF00BF00BF00BF00BF00BF00BF69
:104F500000BF00BF00BF00BF00BF00BF00BF00BF59
:104F600000BF00BF00BF00BF00BF00BF00BF00BF49
:104F700000BF00BF00BF00BF00BF00BF00BF00BF39
:104F800000BF00BF5B1EC3D10029B9D1002030BDD6
:104F9000012030BD70B50446042C01DB002070BD3B
:104FA0003B4D142616FB04546170FF21E1706171C2
:104FB000A171A27000212174E17123704FF0804132
:104FC000E16000216174072121712146BDE8704034
:104FD000F0B50446042C83B00E4624DAFFF74EF9F0
:104FE0002B4DD0E90023CDE90023142010FB04F75A
:104FF000781931461422FCF717F9224EA119002026
:1050000008711CB1022C05D002D305E0214A04E04E
:10501000214A02E0214A00E0214A0023791900A830
:10502000FFF73DF908B10020FEBD0120A055FEBDEF
:105030002DE9F0420446042C84B00D4616469946EC
:10504000A8BF00201ADA0F4FE05DB8B12046FFF785
:1050500015F902464B46D2E90001CDE9010132467D
:10506000E1190020087129460A98009001A8FFF76D
:1050700095F94FF47A712046FFF73EFF04B0BDE882
:10508000F0820000481402200024F4002C020020CA
:1050900044010020DF4E0000E54E0000EB4E000012
:1050A000F14E000000B583B001AB8DF80510012270
:1050B000012100910DF10501FFF7BAFF08B19DF83C
:1050C00004000EBD10B5022801DB002010BD030155
:1050D0002D4C195119194A60BDE81040BCB5044661
:1050E000022C0D4614DAFEF791F9274FD0E9002380
:1050F000CDE9002395E80F0007EB041585E80F00C4
:105100000023002207EB041100A8FEF7D8F908B12C
:105110000020B6BD1D490120605400A8FEF735FAF5
:105120000120B6BD30B50446022C83B001DB00205F
:105130003EBD164D615D51B1FEF768F9D0E900231F
:10514000CDE9002300A8FEF7F3F900206055012007
:105150003EBD38B50D46B5F1CC7F1CBFB5F1806FB3
:10516000B5F1CD6F044601D0002032BDFFF7DAFF64
:1051700018B100F003F88D600AE032BD024800EB80
:105180000411204670470000940100205C140220A6
:10519000BDE83440A2E710B5022884B00C46A8BF91
:1051A00000200EDAFEF732F92146D0E90023CDE9DE
:1051B000012301A8012300AAFEF721FB401E804124
:1051C000C00F04B010BDFEE738B50FF25C040D4D02
:1051D00061B1022914D14FF4806229462046FFF7BD
:1051E000FAFB68B1BDE8324000F04CB9FFF7E8FBCC
:1051F00029462046BDE838404FF48062FFF7EBBBFC
:1052000031BD0000300A022080B500F019F900F02D
:1052100007F908B100F0FBF80FF20C00FDF70FFBE7
:1052200000F0E9F8012002BDB4130220585B000031
:10523000020301060402048483030000F059000005
:1052400042000000C9510000704780B500F0F8F836
:1052500000F0E6F808B100F0DAF80FF21000FDF700
:10526000EEFA00F0C8F8012002BD00003C10022058
:105270006C5B0000010002038101000088590000FE
:105280001700000030020220000400002802002065
:10529000010000004952000041EA420141EA830254
:1052A00010B50299202842EA012232BF4FF0A044F3
:1052B00000F01F00224C039904EB800042EA0141F8
:1052C000C0F8001710BD00B583B000220192009213
:1052D0000B46002106E000B583B00B460192002189
:1052E00000220092FFF7D8FF07BD202832BF1549E2
:1052F00000F01F00144905E0202832BF134900F0D8
:105300001F001349012202FA00F0086070472028AC
:1053100032BF4FF0A04100F01F00094901F20451D3
:1053200001230A6803FA00F020EA02034B601040F0
:1053300088607047002908BFFFF7DEBFD5E700008F
:105340000003005008050050080800500C050050EC
:105350000C080050092900D9704700B583B0DFE878
:1053600001F00507090E101214171A20002102E09F
:10537000032100E0012103B05DF804EBA3E7032261
:1053800004E0032205E0032206E00222002104E0FB
:105390000222032101E00222012103B05DF804EBA7
:1053A00099E7002101910091012200231146FFF7A6
:1053B00073FF07BDBEE7AAE720B1022804D00A2880
:1053C00004D07047FDF76CBEFDF754B9FDF740B946
:1053D00080B5224918B102280AD007D301BDFBF7D6
:1053E00087FC38B9BDE80140FDF730B9002000E086
:1053F0000120087001BD80B50FF27800FCF79BF822
:1054000000281CBFBDE8024000F03CB801BD80B5DB
:10541000FDF71EF9FDF72AF910490020087001BDBB
:105420000E48007870470D48017842788A4206D0CD
:105430004170002918BFFDF70DB9FDF717B9704786
:1054400010B5074C207808B1002010BD0FF22800DD
:10545000FDF7AFF80120207010BD00005E1402209F
:105460006214022080B5FDF7D9F90028FBD1BDE810
:105470000140D8E7D153000000000000B9530000FC
:105480000100000010B584B000A9002200231446DA
:105490001CC1029000AA194644F2010000F002F873
:1054A0001FBDFEE708480068C00700D500BEBFF377
:1054B0004F8F0648064A016801F4E061114301601C
:1054C000BFF34F8F00BFFDE7F0ED00E00CED00E013
:1054D0000400FA053F480168082904BF4168002913
:1054E00006D13D4900220A604A6000213B4A116012
:1054F0000168082904BF4168002923D1384A394985
:1055000013680B6053684B6093688B60D368CB6003
:1055100013690B6153694B6193690B62D3694B62E9
:10552000136A8B62536ACB62936A0B63D36A4B63D1
:10553000136B0B64536B4B64936B8B64D36BCB64B7
:10554000126C0A650168082904BF4168002902D16C
:10555000254A264911600168082904BF41680029CD
:1055600002D1234AFB2111600168082904BF416868
:10557000002909D11F49204B0A681B78120903F042
:105580000F0343EA02120A600168082904BF416858
:10559000002903D1194A4FF40071116001680829EC
:1055A00004BF4068002806D115480168C90744BFF8
:1055B0006FF0010101601348016841F4700101605E
:1055C000BFF34F8FBFF36F8F0F49104808607047CC
:1055D00000000000300100100C01004038050040C0
:1055E0000404001020C500408C5600404881030090
:1055F00018F50040E40E00405802001040960240AA
:105600000004004088ED00E02C0200200090D00350
:1056100081B000220A5008580090009801B07047ED
:10562000085800B10120C0B2704700F2445001E0B8
:1056300000F2345001604260704710B50C4684B0EF
:10564000617D012904D020D3032908D002D31FBDD6
:1056500041621FBD00208DF80000019009E001218A
:105660008DF8001000F23C500168C9B20191006948
:10567000C0B20290A06808B9FFF704FF00A807C8ED
:10568000A36804B0BDE8104018471FBD4A75D4E7B1
:1056900038B50D4604464FF49471FFF7C1FFD0B101
:1056A0004FF494712046FFF7B3FF687D012812D1B3
:1056B0002A68E968D2B22046FFF7B7FF6A6829690D
:1056C000D2B22046FFF7B4FF0120A0620222294691
:1056D0002046FFF7DBFF4FF482712046FFF7A0FF63
:1056E00068B14FF482712046FFF792FF687D02286F
:1056F00005D129462046BDE838400322C6E731BD22
:1057000001490248C4E70000B41202200030024000
:105710003EB5C36904695C6005698469B4FBF5F44E
:105720001C60DA60996049B100A900220024154686
:1057300034C1D968029100A99A68904700203EBD03
:1057400070B5C469A16884B049B10FF29C0268CAFF
:1057500000A968C1E168029100A9A26890470020F1
:105760000021024603460FC404B070BDFEB50446D6
:105770000E46E56960693168B36817466A6802FBDE
:105780000100022F06BF01461846194673685A43A6
:10579000FBF73AFDA86868B100A8002100220B467B
:1057A0000EC08DF80070019600A9E86802902046AE
:1057B000AA6890470020FEBD0222D7E70322D5E762
:1057C00011B1012904D00AE03AB10020107004E0C0
:1057D0000AB907207047001D10600020704706209E
:1057E0007047C06970470000010000000000000021
:1057F00000000000816807E002681168536889189A
:105800005B18C36008320260C2689142F4D04A1C3F
:105810008260087870472DE9FF4D00F10801009182
:1058200000270268520801EBC2010191B84600212D
:10583000029103910168490800EBC101406800F042
:10584000010501F10804400804EBC00630E000A89F
:10585000FFF7D0FF4FFA80FA0AE0009801680818B5
:105860000099029049680818039000980830009049
:10587000029803998842F0D010F801BB0290474586
:105880000CD1B44208BF00F01DF8276805B14F44A1
:10589000606800EB070808344745F2D0BAF1000F02
:1058A00007F801BB0AD51AF1010AE8D14745CED164
:1058B000B442CCD1304604B0BDE8F08DBAF1010A53
:1058C000D6D5F3E7012000F001B8FEE72021090357
:1058D00026311820ABBEF9E72803560065006700A3
:1058E00061002D004100620073006F006C007500C4
:1058F000740065002E0020003200300031003800B6
:105900001E036E005200460035007800200055004E
:10591000530042002000560065006700610000004F
:105920001A0330003000300030003000300030000A
:105930003000300030003000300000000E03550011
:105940007300650072002000310000005665676139
:10595000000000004162736F6C7574650000000008
:10596000312E303000000000405B00004C59000038
:10597000545900006059000000020000300200206D
:10598000000002001C140220090400000208065056
:1059900000070581024000000705010240000000E9
:1059A00010B5124A02EB400302EB80029C888C4344
:1059B0009C80BDE81040126910470C488188002087
:1059C000EEE70A48C1880120EAE708480189022079
:1059D000E6E7064841890320E2E70448818904207C
:1059E000DEE70248C1890520DAE700008C130220B7
:1059F000080B030202020100090403000102020174
:105A000000052400100105240103040424020205FA
:105A1000240603040705840340001009040400025F
:105A20000A0000000705830240000007050302404A
:105A30000000000019E050F8041BCB0744BFA9F197
:105A400001035918121F0023042A41F8043BF9D21C
:105A50005FEA827C0B4604D54FF0000CA1F800C031
:105A60009B1CD10744BF0021197050F8042B002A59
:105A7000E1D1704710B5074979441831064C7C4490
:105A8000163404E00A68081D511888470146A142EF
:105A9000F8D110BD50000000780000004D2F00002C
:105AA00000000000000000000000000000000000F6
:105AB000381402209C5A00000100020300800000FC
:105AC0004EF68851CEF20001086840F4700008607C
:105AD000BFF34F8FBFF36F8F4FF00070E1EE100AEE
