:10000000E02B0020654A000007120000C712000024
:10001000AB1500002B1D00005F1D0000000000005C
:100020000000000000000000000000001732000087
:1000300003420000000000008B440000D93E000095
:100040006D120000CF470000F72C000023350000A0
:10005000E9490000434A0000C33A00004F4A00004B
:10006000854A0000874A0000894A00005B3600008C
:100070008B4A00008D4A00008F4A0000914A000020
:10008000934A000085360000954A0000974A000018
:100090006B480000734800007B4800008348000064
:1000A0008B48000093480000994A00009B4A0000DA
:1000B0009D4A00009F4A0000000000000000000070
:1000C000A14A0000A34A0000A54A0000E94600003A
:1000D000B3360000A74A0000A94A0000250A000024
:1000E000FD2C0000AB4A0000AD4A000000000000FB
:1000F00000000000AF4A000000000000B14A00000C
:1001000000000000000000000000000000000000EF
:1001100000000000000000000000000000000000DF
:1001200000000000000000000000000000000000CF
:1001300000000000000000000000000000000000BF
:1001400000000000000000000000000000000000AF
:10015000000000000000000000000000000000009F
:10016000000000000000000000000000000000008F
:10017000000000000000000000000000000000007F
:10018000000000000000000000000000000000006F
:10019000000000000000000000000000000000005F
:1001A000000000000000000000000000000000004F
:1001B000000000000000000000000000000000003F
:1001C000000000000000000000000000000000002F
:1001D000000000000000000000000000000000001F
:1001E000000000000000000000000000000000000F
:1001F00000000000000000000000000000000000FF
:10020000DFF8C81B420951F8221000F01F0021FA44
:1002100000F219E0DFF8B82B0121815000F099BEFF
:10022000DFF8AC2B0021815000F093BEDFF8A01B5B
:1002300040586FE000F00F01DFF8802B00064CBF44
:100240001068506820FA01F202F001007047DFF8F0
:100250001C0C0178082901BF017911F00F0F017AF8
:1002600011F0F00F06D1007B00F0F000401E80413D
:10027000C00F70470020704710B550E8004F04EAE7
:10028000010240E8002393F0000FF6D1104610BDA4
:10029000010600F00F004CBF0FF210010FF2180121
:1002A0000122405C02FA00F07047000002030405DE
:1002B000060708090B0000000C0D0E0F1011121399
:1002C0001400000030B54C689C4204D20025456003
:1002D0000968016007E04360E41A0D6805604C603E
:1002E0000868181808609A4203D1200002D0012043
:1002F00000E00020C0B230BD4B689A4288BF1A4669
:100300000B68036042604868801A486008681018EB
:100310000860486800B10120C0B270474B689A423B
:1003200088BF1A46002A0CBF00230B680360426096
:100330004868801A4860086810180860100018BFE4
:100340000120C0B27047F8B50C4605466068DFF87A
:10035000F07B21681646864288BF064632463846FC
:1003600000F016FF2F606E606068801B6060206880
:1003700030182060606800B10120C0B2F2BDF8B54D
:100380000C46064660681546854288BF054645B15D
:10039000DFF8AC7B21682A46384600F0F9FE37606A
:1003A00001E00020306075606068401B606020687C
:1003B00028182060280018BF0120C0B2F2BDDFF865
:1003C000D01B020648BF903100F00F0001EB001077
:1003D000704701064CBF0021102100F00F004018AB
:1003E000C0B270471028ACBF103840F08000C0B2D7
:1003F000704701064CBF0421282100F00F0001EBDB
:100400008000C0B206E72DE9F843804600F05DFEAB
:100410004046FFF7D4FF05465FEA08604FF0010948
:10042000DFF8AC7B40461AD4FFF7D3FFFE68F143F8
:1004300021FA00F2D00703D5404600F0CBFD0BE0D7
:100440000020286000F03DFE00F02EF8B96809FA9F
:1004500000F021EA0000B8600320A8731EE0FFF757
:10046000B8FFBC68FE6866EA040121FA00F2D00712
:1004700014D500F026FE00F017F809FA00F020432A
:10048000B860002028600320A8730FF218000068ED
:10049000796800908DF8028000A8884700F00BF87A
:1004A000BDE8F1830600000309FA00F026EA000027
:1004B000F86040468DE7002000F0B4BEA3E770B5B9
:1004C000DFF8644BA168E068090C50EA014508E0D8
:1004D00095FAA5F000F0A2FAFFF795FF0120B040D1
:1004E0008543F5D140F2FF10A06070BD80B5DFF804
:1004F000381B0020487088700FF20C0000684968B3
:10050000009000A8884701BD0100000038B5DFF861
:100510001C0B0468046000F053FC002C04E000F0A5
:10052000CEF90120A8408443F9D131BD70B500F067
:100530003DF801262846FFF742FF817B03291CBFB7
:10054000006800280AD12846FFF743FF06FA00F0AA
:10055000C14304F10C00BDE870408DE670BD70B57C
:1005600000F024F882B02846FFF729FF0126817B9E
:10057000032907D12846FFF72CFF06FA00F000F008
:1005800042F910E0006870B92846FFF722FF06FA2A
:1005900000F000F038F90FF6683000F07AF88DF8C6
:1005A000025000A8884700F091F973BD0546DFF8B6
:1005B000784A0020E070704738B500F041F880209C
:1005C000FFF7FDFE817B03291CBF006800280AD1CC
:1005D0008020FFF7FEFE05FA00F0C14304F10C0095
:1005E000BDE8344048E631BD81209FE782209DE789
:1005F00083209BE7842099E7852097E7862095E76D
:10060000872093E738B500F01BF88820FFF7D7FE66
:10061000817B032905D18820FFF7DBFE00F0F1F88C
:1006200031BD006858B98820FFF7D3FE00F0E9F823
:100630000FF6C42000F02DF8882000F026F831BD18
:10064000DFF8E4490020E0700125704738B5FFF776
:10065000F7FFFFF7B4FE817B032907D10020FFF7E6
:10066000B8FE00F0CEF800F095FC31BD006800281F
:10067000F9D1FFF7AEFE00F0C4F80FF6802000F0CD
:1006800008F8002000F001F831BD8DF8020000A844
:100690000847006861680090704701205FE702200A
:1006A0005DE703205BE7042059E7052057E70620B4
:1006B00055E7072053E710B5DFF86C490020E070DC
:1006C00082B00820FFF77BFE817B032910D00068F1
:1006D00070B90820FFF77DFE012101FA00F000F05B
:1006E00092F80FF62020FFF7D4FF0820FFF7CDFF88
:1006F00013BDF8B50FF61020DFF8D458006800904D
:100700000124DFF82C090068ADF802008820FFF70B
:1007100060FEAE6804FA00F70820FFF75AFE04FAFC
:1007200000F038433043A86000A869688847F1BDED
:10073000DFF8F42810B5936801248C4023439360BC
:1007400082B0D46824FA01F35168020604D5DA07AE
:100750000AD40FF6B81203E0DA0705D40FF6B01288
:1007600012680092FFF791FF13BD10B5DFF8B808CB
:1007700084782046FFF72DFE01462046BDE8104054
:10078000D6E7F8B5DFF8AC08DFF84448016821F097
:1007900004010160DFF8A0080568A168E068A67898
:1007A000C94389B241EA00073046FFF712FE27FA33
:1007B00000F1C80744BF3046FFF725FE280654BFA6
:1007C00000208020A07001260020FFF702FE0546D1
:1007D0008020FFF7FEFD06FA05F106FA00F0084357
:1007E00000F011F8A5688020FFF7F3FD06FA00F08D
:1007F0002843A0600FF61C10FFF74BFF00A88847A6
:10080000F1BD05FA00F0C14304F10C0034E538B540
:10081000DFF8280800F048F8E005DFF8B45705D500
:10082000012068700FF6F00000F01AF8A00505D559
:10083000002068700FF6E40000F012F860050ED595
:10084000687860B1002068700120DFF8F417086054
:100850005820FFF7DFFC0FF6C80000F001F831BDAB
:1008600000686968009000A8084738B5DFF8D40729
:1008700000F01AF8FFF7EBFC88B1DFF8AC0701696C
:1008800021F0011201F001111443016107E000F0B1
:1008900016F80121A9408C43E9B2FFF749FF002C6B
:1008A000F5D1BDE8314011E004680460BFF36F8FFB
:1008B000BFF34F8FBFF36F8FBFF34F8F704794FA23
:1008C000A4F0B0FA80F5E8B28CE570472DE9FE435C
:1008D000DFF8FC56E878002840F09E800FE0022008
:1008E000B873214605F10C00FFF7C6FC0FF6340083
:1008F0000068696802908DF80A8002A88847E86855
:10090000A968084000F0888090FAA0F000F086F80E
:100910008046FFF754FD07460120B040C44318F05D
:10092000800611D0BA8979683B6800A898470028EA
:1009300004BF3860B8F1800F18D1DFF8F8060168FD
:1009400041F00401016011E0404600F0D8FA814610
:10095000BA897968D7F800C04B4600A8E0470099EB
:1009600011B101994945BAD300B938600120E87046
:10097000A86801992040A86008F00F05B868081819
:10098000B8602A46019800994EB1082DA8BFDFF83B
:10099000B82608DA14235A43DFF8B0360AE0082DE7
:1009A00004DBDFF8AC261160506006E014235A43E4
:1009B000DFF8A036D150D1184860FFF748FC40B3AB
:1009C0004FF48270FFF72CFC4046FFF712FD022027
:1009D00000F03CFC4FF48270FFF728FC0028EFD0B9
:1009E0001E2000E0022000F031FCDFF86C060068F9
:1009F0008006F7D5012000F029FC002E14BF0FF26D
:100A0000D0600FF2E06030F91500FFF70FFC18B965
:100A1000D6E74046FFF7EDFCBDE8F783B0FA80F675
:100A2000F0B2DFE42DE9F843DFF83006D0F80080BB
:100A3000474600264FF00109002F11E097FAA7F072
:100A4000B0FA80F0810001F5807409FA00F520B257
:100A5000FFF7ECFB18B120B2FFF7E2FB2E43AF43E8
:100A6000ECD1FFF7F4FB002869D0DFF86405C1780A
:100A7000002964D1B10262D5DFF8E41540F2A97211
:100A80000A604B68DFB217B14F683B40DBB240F2FF
:100A9000AA770F60D1F804C05FFA8CF424B14C68D7
:100AA00004EA0C045FFA84FC40F2AB7EC1F800E07B
:100AB0004C68E5B215B14D682C40E4B240F2AC751B
:100AC0000D604D682B40DBB22BB105691D430561FC
:100AD0000A604B604A6840F2AD720A604A6802EAF6
:100AE0000C02D2B232B1036943EA024303610F60E0
:100AF0004A604A6840F2AE720A604A682240D2B246
:100B00005AB1D307C1F800E048BF46F400064A6076
:100B1000D306496848BF46F00106016931F0011269
:100B20001CBF08F08072164311F0011F07D05FEA66
:100B3000485204D521F00111016146F48066F00DA0
:100B400000F0010536F400060FF2DC5709E096FAD2
:100B5000A6F0B0FA80F457F82400804709FA04F0B0
:100B60008643F4D1FFF7B2FE002D1CBFBDE8F14370
:100B7000FFF707BEBDE8F18370B50446FFF767FBDA
:100B800008B100F053FB200001D1072070BDDFF851
:100B90009804017809B1082070BD446001210170FA
:100BA00000254FF4007445F0800606F00F00082879
:100BB000ACBF21464021304600F09FF83046FFF799
:100BC000FEFB00F013F8EEDB002505F00F0008280F
:100BD000ACBF21464021284600F08FF82846FFF799
:100BE000EEFB00F003F8F0DB002070BD0021817304
:100BF0006D1C0160092D8160704780B500F030F8F0
:100C0000DFF85804016841600020DFF8581400F054
:100C100021F80021DFF81004C1700121017001BD2D
:100C200010B5DFF8AC23DFF840440021517010B953
:100C3000FFF70DFB08B1DFF83444DFF8200404604F
:100C40000721272000F019FBDFF82414012000F011
:100C500001F810BD0860BFF36F8FBFF34F8F70476F
:100C600080B52720FFF7CCFA78B1FFF728FCDFF832
:100C700000140020FFF7EEFF8020DFF8F813086073
:100C80004FF0FF30DFF8F013086001BD002010B511
:100C900000F0C7FADFF838034078002478B1FFF796
:100CA0000EFCDFF898030168890508D4DFF8CC133F
:100CB00001220A60006880054CBF0C6001240FE02F
:100CC000002010B500F0ADFAC1484078002400289B
:100CD0001EBFDFF8A803016800291CBF04600124BF
:100CE000FFF7E9FB204610BDDFF88C1301E0DFF8C9
:100CF0006C13DFF88C030860704710B50C46FFF7E3
:100D00005EFB848110BD80B5FFF759FB808902BD71
:100D1000FFF790BAF8B50446FFF7BAFADFF83C13CC
:100D200008602046FFF786FA58BB04F00F00012543
:100D3000220605FA00F0214903D50A68104308602D
:100D400002E04A681043486000F03AF814F00F00DF
:100D500017D0210615D4082813DA00F0B6F920467A
:100D600000F038F9B04EF7682046FFF732FB05FA7D
:100D700000F027EA0000F0600020BDE8F24000F03B
:100D800051BAF1BD10B50446FFF73DFB04F00F006A
:100D9000012101FA00F0C0432206084903D50A6880
:100DA0001040086002E04A681040486000F008F80F
:100DB0002046FFF76DFAB049086010BD107502407B
:100DC000BFF36F8FBFF34F8F7047000000E100E06B
:100DD00000700240F8B507460C46FFF7FAFA00F03B
:100DE00073F90F2007427A4E04D1B078874218BFBA
:100DF000102439D1B168F068C94389B2084320FA98
:100E000005F1C80748BF11242ED43846FFF7D7FA9A
:100E100007F00F010C2212FB01613A0611D523687D
:100E2000143103F06043A268B3F1005F04D0D2072D
:100E30004CBF944A944A06E0D2074CBF934A944A66
:100E400001E08031934A02608CCC8CC10C39416046
:100E500000240021816081730121F068A9400843CA
:100E6000F06080208C49086032E00000E00F00F064
:100E7000F8B504460D46FFF7ACFA064600F025F932
:100E80000F200442524F04D1B878844218BF102476
:100E90001ED1B968F868C94389B2084320FA06F13F
:100EA000C80748BF112413D42046FFF788FA002151
:100EB00081600024296801606968416000218173B4
:100EC0000121F868B1400843F86080207249086049
:100ED000FFF7F1FA2046F2BD1948704738B50C46C5
:100EE000FFF76DFA00F0F0F8A86820602868002885
:100EF0000CBFAC7B1124FFF7DEFA204632BD00F0B8
:100F00000F00082805DB65480068C10304D50020F0
:100F10007047634951F820007047624916E0614903
:100F200016E000F00F01082907DA00064CBF5E4802
:100F30005E4850F82100012800D0002070470000D2
:100F4000C80A00205A490860BFF34F8F40F48070F0
:100F50000860BFF36F8FBFF34F8F704710B5044623
:100F6000082100F0ADF934480168217041686170D2
:100F70008168C26841EA022161800169426941EAEF
:100F80000221A1808169C06941EA0020E08010BD92
:100F90004006002010B5FFF75AF958B1EFF310845E
:100FA00072B64C20FFF736F94C20FFF733F984F383
:100FB000108810BDBDE810404C20FFF72BB9502021
:100FC000FFF728B95420FFF725B9174880787047F4
:100FD000600700202DE9F0418046FFF738F908F05E
:100FE0000F040127104D70B100F06FF800F068F8A1
:100FF00000F060F861001A4801F2C571016000213B
:10100000416000200BE000F00CF900F059F800F00E
:1010100051F80020224941F82400FFF7D1FEBDE835
:10102000F04100F0FFB80000600700206874024043
:101030002075024000720240807402400074024039
:10104000087502406C740240A076024000760240AF
:10105000A07702400077024074740240047302409B
:1010600000780240007502400714C0030714E00333
:101070000475024084E100E0087302402C750240D0
:10108000041480017F030000470300001D030000DB
:10109000F9020000C502000004E200E0C074024052
:1010A000A07402401875024020740240447402404B
:1010B0000C75024007FA00F026EA0000A8607047AD
:1010C000AE684046FFF785B90546002000F0A9B894
:1010D00008010C011001140118011C012001240158
:1010E0002C0100003001340138013C014001440171
:1010F00048014C01500100000600000006000000FD
:1011000006000000060000000000000006000000CD
:1011100006000001050000000200000003000000BE
:101120000400000006000002ED0400000D050000B0
:10113000B9050000E9050000ED050000F10500001B
:10114000F5050000F9050000FD050000010600009E
:101150006B070000050600004D0600009B0600001E
:101160009F060000A3060000A7060000AB060000D3
:10117000AF060000B3060000B7060000F30600004B
:101180000F080000830700006B080000CB08000078
:1011900062B38B0708D0521E11F8013B00F8013BE7
:1011A00000F024808B07F6D1830740F0208000BF39
:1011B000103A07D330B4B1E83810103AA0E838102C
:1011C000F9D230BC530724BFB1E80810A0E80810DA
:1011D00044BF51F8043B40F8043BD20724BF31F828
:1011E000022B20F8022B44BF0B7803707047083A9B
:1011F00007D3B1E80810083A40F8043B40F804CBA4
:10120000F7D25307E4E7FEE772B607480168491CC6
:101210000160704704480168491E016000D162B650
:101220007047F1E7F6E70000CC0B00200B486FF0A9
:101230007F41416005210160704709490A680B68D8
:10124000D31A1B021B0A8342F9D370470549064A89
:101250000968B1FBF2F14843EFE7000010E000E05D
:1012600018E000E02802002040420F0080B500F0A6
:10127000E9F8BDE8014000F022B910B549010200CB
:1012800006D50B4B00F00F04E31803F8041C01E033
:10129000084C01554109012200F01F0002FA00F03C
:1012A000054A42F82100054A42F8210010BD00001D
:1012B00018ED00E000E400E080E200E000E100E082
:1012C000002200F043B9FEE74FF0804181B00022D8
:1012D000425040580090009801B0704700F18040A3
:1012E000006800B10120C0B270476849096801F088
:1012F000011140F48030814201D10120704700206B
:10130000704780B56349012008600120FFF7EDFFB9
:101310000028FAD15E49487001BD38B55C4D287887
:10132000002408B185240FE0A86068602861E860A7
:1013300059480068C00703D407210020FFF79DFF2C
:101340005649012008602870204632BD02681346C5
:1013500000E01B6813B18B42FBD170470A6001604B
:10136000704738B54A4C0546A07830B115B1696868
:101370000120884700F041F813E0FFF752FF25B144
:10138000294604F11000FFF7E1FFE06848B94FF487
:101390008270FFF799FF434902200860012042490B
:1013A0000860E068401CE06022E038B5384C054633
:1013B000607830B115B169680020884700F01DF8E9
:1013C00013E0FFF72EFF25B1294604F10800FFF7CF
:1013D000BDFF606848B94FF48070FFF775FF314971
:1013E000012008604FF0804108606068401C606028
:1013F0000020BDE83240FFF715BF0020FFF711BF06
:1014000080B5FFF7FAFF22484168491E41604068F5
:1014100008B9FFF776FFBDE802400020FFF702BFE2
:1014200038B504001A4814BF00F1100500F1080592
:1014300004E0086828602046496888472968002930
:10144000F7D131BD38B54FF48070FFF747FF104C2E
:10145000134D48B14FF48070FFF736FF012028602C
:1014600060700020FFF7DCFF4FF48270FFF736FF5B
:1014700050B14FF48270FFF727FF0220286001204F
:10148000A070BDE83240CBE731BD00000C04004045
:10149000640B00200400004000E100E0180500405B
:1014A0000803004004030040080000404FF0804261
:1014B000815811B10023835001210846704738B587
:1014C0002148204D0468600706D54FF48470FFF76B
:1014D000EDFF08B128688047A00607D54FF48A7051
:1014E000FFF7E4FF10B1696800208847600607D560
:1014F0004FF48C70FFF7DAFF10B16968012088475C
:10150000200607D54FF48E70FFF7D0FF10B1A96801
:1015100000208847E00507D54FF49070FFF7C6FF1D
:1015200010B1A96801208847A00509D54FF4927031
:10153000FFF7BCFF20B1A968BDE83440022008478E
:1015400031BD0000A80B002004030040401810F03B
:10155000030308D0C91A1FD3DB0748BF00F8012DC9
:1015600028BF20F8022D130030B414461546103958
:1015700028BF20E93C00FAD8490728BF20E90C0021
:1015800048BF40F8042D890028BF20F8022D48BF2D
:1015900000F8012D30BC7047C91818BF00F8012DA4
:1015A000CB0728BF00F8012D7047FEE7027A914271
:1015B00001D30020704701EB410108180930704742
:1015C0004278914201D300207047827810180818A1
:1015D0007047426812681047DFF8081649680A0029
:1015E00018BF08477047F8B5154642680C461E46B6
:1015F000526831469047010013D00022002303E0D7
:101600005B1C007852FA80F23068824209D250188E
:101610004778A742F5D1DBB29D42F1D10178316024
:10162000F2BD0020F2BDDFF8BC1500F00F0200068D
:1016300001EBC20102D501F1F400704701F1100085
:10164000704710B50C46FFF7EEFF002C04600EBF8C
:10165000002161680968416010BDDFF888250146F6
:1016600010695269104770B5DFF8785582B00446AA
:1016700005F1E40600A9304600F0E6FA58B1216809
:101680000160304600A900F001FB2A680146100005
:101690001CBF2046904773BDE5E70FF26450E2E7B8
:1016A00058B50446801E02D0C01E032801D8012070
:1016B00000E00020DFF82C65317B891E02D0C91EB6
:1016C000032901D8012100E0002188420BD0A01E8F
:1016D00002D0C01E032804D806F59E70FFF765FEF1
:1016E00001E0FFF78DFE022C317B16BF082C012094
:1016F0000020022916BF082901210021884208D0B4
:10170000022C18BF082C02D1FFF7F1FA01E0FFF715
:10171000EBFA347351BDF8B50546DFF8C84404232D
:10172000842204F1600104F1E40000F079FA08B1C8
:101730000320F2BDFFF7F1FDDFF8AC04FFF71CFA60
:1017400058BB002D06BF0021002207CD07C40C3C6A
:1017500000202073A065E06500F025F800F01EF879
:101760000024DFF88854E1B22846FFF71FFF064641
:10177000641C56B1002700F012F97F1C0028F2D03B
:1017800000782946FFF75DFFF5E70FF27840006823
:10179000009000A92846FFF71CFFF2BD482104F184
:1017A000100000F0BFBA482104F1F40000F0BABA0A
:1017B000FFF723BADFF838040168890703D401680A
:1017C000C907F9D470470FF240404CE780B50FF2DB
:1017D0003C4002E080B50FF2384000F001F801BD56
:1017E0000068009000A83EE738B5DFF8F8530446DB
:1017F0002178287B002968D0012971D0022900F0C6
:101800008E80032970D0042977D0052900F09780B5
:10181000062900F098800B2900F08A80802936D0B4
:10182000812906D0822918D0832938D084293ED036
:1018300031BD0FF2E03400F09FF800F09BF8092072
:10184000FFF7CAFEE86D00280CBF287A0120FFF7D9
:10185000E7F900F0B3F901205EE000F0AFF9FFF71F
:10186000FFF90020FFF71CFF0FF2AC3400F082F804
:1018700000F082F80A20FFF7AFFE287B801E02D01E
:10188000C01E032875D8BDE83140FFF7B9BD052853
:1018900041D06ED307283ED06BD208203CE003280D
:1018A00067D1FFF7F3F9002863D0042034E0032860
:1018B00005D1FFF7EBF910B10420FFF7F1FEFFF7B8
:1018C000FFF9002855D0062026E00020FFF784FE0F
:1018D000ED6D002D4DD000F0DBF828684568F8E785
:1018E00000F06CF9022000E00520FFF7D9FE03208C
:1018F000FFF772FE00F040F81DE00320FFF76CFEDA
:101900000FF2183400F038F800F034F8287B06287D
:1019100008BF072000D00220BDE83240C0E6032007
:10192000FFF7BEFE0220FFF757FE00F023F806E0A7
:101930000B20FFF751FE2046BDE832409CE02046D8
:10194000BDE8324089E6A078FFF76DFE02462146E9
:1019500010685268904700281EBFA0780F210842E7
:1019600007D000F00F010829BCBFBDE83240FFF7E7
:10197000D4BA31BD20467FE020466EE610B582B075
:10198000DFF8704200A9204600F090F930B1FFF76F
:101990002BFF00A9204600F0B5F9012016BDF9B2D1
:1019A00030460DE6944901E01168091D0A68002AD5
:1019B000FAD10860002070478F4901E01168091DC5
:1019C0000A6842B18242F9D1006842680A60002187
:1019D000416000207047052070478848007800B1BA
:1019E0000120704710B5044604F00F00082805DAFE
:1019F0002046FFF7A7FA2046FFF791FA2046BDE8F8
:101A00001040FFF787B97748806D70472DE9F041A6
:101A100080467448866D0D4601E0306806688EB1D8
:101A2000377A002400E0641CE4B2BC42F5DA2146B7
:101A30003046FFF7BBFD00784045F4D105B12C706E
:101A4000304600E00020BDE8F0811146C1E510B548
:101A50000C46020600F00F0103D5092903DB102014
:101A600010BD0929FBDAFFF7DEFD00680028F6D07B
:101A70002146BDE81040ACE538B504465948856DAF
:101A800003E000F005F828680568002DF9D131BDA4
:101A9000214628469DE538B552498D6D04460620FD
:101AA00001E029680D681DB1FFF7F2FF0628F8D0A4
:101AB00032BD38B504460D46FFF72AF918B149483A
:101AC000007B022801D0082032BD29462046BDE80F
:101AD0003440FFF77FB938B504460D46FFF718F9D3
:101AE00018B14048007B022801D0082032BD2946A9
:101AF0002046BDE83440FFF7BBB970B504460D463B
:101B0000606883681800164603D020469847062868
:101B100012D10EB1072070BD294600F02CF8044602
:101B2000657805E000F009F8761C0078FFF75AFFA9
:101B3000F6B2AE42F6DB002070BD314620463FE5EE
:101B400070B504460D466068C26810001CBF204690
:101B50009047294600F00FF804460026657805E016
:101B6000FFF7EBFF761C0078FFF70CF9F6B2AE42F8
:101B7000F6DB70BDE9B22046FFF718BD10B502468E
:101B8000002053681B691C0003D0BDE810401046BC
:101B9000184710BD70B51348846D0AE0002229462D
:101BA0002046FFF7AAFF6D1CEDB2B542F6DB2068B8
:101BB000046814B1267A0025F6E770BD70B50948AF
:101BC000846D09E029462046FFF7BAFF6D1CEDB28F
:101BD000B542F7DB2068046814B1267A0025F6E7E1
:101BE00070BD000000000020991600006049000050
:101BF00038040040E40000205C000020DC0B0020E2
:101C0000800000000700000081000000820000004A
:101C100083000000090000000A000000030000002B
:101C200010B509B90E2010BD92FBF3F403FB142488
:101C30000CB1092010BD01608281002141608160EA
:101C4000C381002010BD00003CB550E8015FAAB27E
:101C5000C3891A4483899A4228BFD21A03899A42B7
:101C600002BFBFF32F8F002407E0C2EA050240E85D
:101C70000123002BE9D14FF0010400F03AF81AB12A
:101C800000680988081836BD002036BD0A884988D2
:101C90008A4209D150E8011FC1EA014140E801121E
:101CA000002AF7D101207047002070473CB550E86A
:101CB000025F1FFAA5F2C3889A4202BFBFF32F8FBB
:101CC00000240DE0C3891A4483899A4228BFD21A9E
:101CD000C5EA024240E80223002BE8D14FF001049C
:101CE00000F007F81AB100684988081836BD0020CE
:101CF00036BD01958DF80040019A0A609DF80020DC
:101D0000704700000A8849888A4209D150E8021FBA
:101D1000C1EA214140E80212002AF7D101207047B0
:101D200000207047002200F001B8FEE700B500BFB8
:101D3000130096469446103928BFA0E80C50FAD8F4
:101D40005FEA417C28BF0CC048BF40F8042BC9079C
:101D500028BF20F8022B48BF00F8012B00BDFEE78A
:101D6000DFF86C150A7A824204D008720FF298509C
:101D7000FFF73ABD7047002070472DE9F84F0D4638
:101D8000044668689246012618B920600026606003
:101D900039E0FFF7A1F8FFF79FF88046E8680027D1
:101DA0008245D14602D9814600E00026B9F1000FF4
:101DB00026D0A868B8B1CB46814588BF83466968FC
:101DC0005A4607EB0800FFF7E3F9A868A0EB0B0001
:101DD000A860A9EB0B09E868A0EB0B00E8605F4482
:101DE000686858446860E8680028DED0A868002861
:101DF000DCD1286850B9686017B1574538BF002654
:101E0000C4F8008067603046BDE8F28F42685268CF
:101E100005F108019047686028680068006828603C
:101E2000C4E710B582B00C4600A800F048FA01469D
:101E3000002008704870DFF89824087840F001000E
:101E40000870527AC2F3400212B140F002000870EA
:101E50000222601C00F0F0F916BD2DE9F0410C469D
:101E600082B02079012804D05BD303284DD004D35D
:101E700057E012220FF270414FE0B4F807500A2DDC
:101E800028BF0925FFF7BFFD4FF0090800260746C8
:101E90000AE07A68526800A9384690470098804462
:101EA000387A861938680768002FF2D100A800F048
:101EB00006FA07462A460FF24441FFF769F93E71D8
:101EC000A7F80280FFF789FD18B1F87940F02000EB
:101ED000F871FFF798FDDFF8FC6330607760B5605C
:101EE000B4F80700F0600020FFF79BF90FF22441DF
:101EF0008020FFF7F0FD040002D100F0CCF9044689
:101F00000020FFF78FF920460CE0B4F80510E078C8
:101F100000F004FA010004D00A78601C00F08CF98B
:101F200000E00620BDE8F68138B50C466178C1F3C3
:101F30004112002A5ED1A278DFF89453C9091FD05C
:101F400022B1062A06D0082A08D053E02146FFF71E
:101F500068FF32BD2146FFF780FF32BD00A800F0C8
:101F6000AEF90146287A052808BF012002D00428CE
:101F700040D1002008700122601C00F05DF932BDE4
:101F8000287A697A012A16D0032A0DD0052A02D0B0
:101F9000092A18D02EE003281CBF0428052816D1D2
:101FA000FFF70CFE04201FE0B4F80300012821D144
:101FB00041F0020005E0B4F8030001281AD101F055
:101FC000FD00687212E0052818BF042801D008201F
:101FD00032BDE07818B9FFF7F1FD042004E00128D4
:101FE00006D1FFF7D7FD0520FFF7BAFE002032BD6E
:101FF000072032BD062032BDF0B585B0064605206B
:102000008DF8000006240DF10100FEF7A7FF9DF8F2
:102010000100AF4D10F01F0005D002285AD00AD39E
:10202000032807D09CE000A93046FFF77DFF044657
:10203000062CF7D190E09DF8050004A9FFF7E6FC17
:10204000060005D11024FEF7BDFF204605B0F0BD07
:102050009DF8101000AAFFF7F8FC0446062C0ED1DC
:102060009DF801009DF81070C0F341110029EAD1DC
:10207000297A9DF80220C00919D072B10A2A6FD1BD
:10208000052918D103A800F01AF90446394630464C
:10209000FFF774FD2070012258E005290BD103A839
:1020A00000F00DF900210180022201464FE00B2AC9
:1020B000C9D1052901D00824C5E7BDF80300FF28D0
:1020C000C8BF0724BFDC9DF8032039463046FFF720
:1020D00014FD44E09DF805000F21084205D000A939
:1020E000FFF7B5FC0446062C3AD19DF80100C0F379
:1020F00041100028A7D19DF80560BDF803109DF898
:10210000022006F00F00C2B1012A02D0032A0BD030
:1021100026E0082897DA002995D13046FEF712FF0D
:102120003046FEF7FCFE06E008288CDA00298AD14A
:102130003046FEF7F2FE002414E003A800F0BFF8DA
:1021400004463046FEF7EDFE2080022221460DF1C6
:10215000010000F071F802E000A8FFF79CFC0446C3
:10216000002CE4D1286810B9FEF729FF6DE7FEF7CF
:1021700011FF6AE770B50C4606252178544E491EBA
:10218000092954D8DFE801F0052D09531E2F2D220F
:10219000242A0320FFF7E4FD49E006F10C030024A4
:1021A00053E8002F02EA040143E8001090F0000F0A
:1021B000F6D1B2B1484901200860BFF36F8FBFF379
:1021C0004F8F0EE0FFF718FF054630E0002006E0D5
:1021D00042480068C00748BF022000D40120FFF732
:1021E000BFFD002523E0326810001DD000203060C4
:1021F0007168E0789047050017D13068C8B9A078B9
:10220000A8B937480178082904BF017911F00F0FE8
:1022100007D1017A11F0F00F04BF007B10F0F00F2E
:1022200005D0FEF7CCFE02E00E25FEF7CBFE2846D9
:1022300070BDFEF7AFFEFAE770B5C0881646B04233
:1022400084B00D4619D204460020010018BF0121B8
:102250000291009501940020FEF7E3FF00A9802081
:10226000FFF727FC040002D100F015F80446002017
:10227000FEF7D8FF204604B070BD86423446E3D254
:102280008020FEF740FDB6FBF0F100FB1160401E20
:102290008041C00FD9E70FF274018020FFE738B505
:1022A00004460D46FEF791FEA04201D0102032BD3B
:1022B000D5E90001064AC2E90001002032BD08B19B
:1022C00040210160074870470148007A70470000CC
:1022D000780B0020880B00205C700240380400401E
:1022E000E00F00F0480A0020120100020000004048
:1022F00015190F520001010203010000090200003C
:10230000000100C0FA0000000B000000771D000073
:10231000000000007B1D0000880B002010B90FF2A8
:1023200020007047052801D3002070470FF21401E8
:10233000405C10B1014951F820007047D4010020E1
:1023400004030900000102030400000081B0002220
:102350000A5008580090009801B07047085800B122
:102360000120C0B2704700F2445001E000F2345046
:10237000016042607047202832BFDFF8CC1400F0C3
:102380001F00DFF8C81407E0202832BFDFF8C014B0
:1023900000F01F00DFF8BC14012202FA00F0086010
:1023A00070470000002840D0DFF8AC14DFF8AC2400
:1023B000096800BF00BF00BF00BF00BF00BF00BF73
:1023C00000BF91422FD000BF00BF00BF00BF00BFC1
:1023D00000BF00BF00BF00BF00BF00BF00BF00BF05
:1023E00000BF00BF00BF00BF00BF00BF00BF00BFF5
:1023F00000BF00BF00BF00BF00BF00BF00BF00BFE5
:1024000000BF00BF00BF00BF00BF00BF00BF00BFD4
:1024100000BF00BF00BF00BF00BF00BF00BF00BFC4
:1024200000BF00BF00BF401EC3D170470128DFF8C6
:10243000301402D101F108007047084670470321AB
:10244000820748BF48F20121400748BF48F20221F5
:102450000846704738B50446DFF80854616840F212
:102460000C6000F034F86068FFF785FF2068FFF724
:1024700082FF616840F20D6000F029F8002500F04D
:102480002CF82068202832BFDFF8DC1300F01F0092
:10249000DFF8D813096821FA00F2D00701D56DB929
:1024A00031BD6068FFF770FF00F017F86068FFF754
:1024B00062FF00F012F86D1C092DE2DB2068FFF7C7
:1024C00063FF00F00AF82068BDE8324053E745F8A2
:1024D0002100216845F821007047042062E7F8B523
:1024E0000C460746DFF888033979282515FB0105D6
:1024F00005F12206307808B10820F2BD2A606B6031
:10250000A860F070B070A07B7071607B10B1204645
:10251000FFF7A0FFDFF84C03626840F20C6140F85F
:102520002210226840F8221038682168636800F59C
:10253000A16213605160A168D161296821B1217B3A
:1025400000030016FEF799FE012030700020F2BD56
:1025500038B50446DFF818032179282212FB01055B
:10256000286858B1206800030016012100F01F02FE
:102570009140DFF80023400942F82010204600F087
:1025800022F805F12200417961B92168DFF8D422EF
:1025900001F5A16140F202330C6842F82430496829
:1025A00042F821300021017031BD0279DFF8C012FC
:1025B0000068282313FB02110622C0F80025022020
:1025C00081F8220070470279DFF8A41200682823FE
:1025D00013FB0211002241F8082F4FF0FF32C0F820
:1025E0000823D0F800220022C0F80022C0F80025FD
:1025F00001208876704700F5A86011F0010218BF2D
:10260000012211F00201026118BF0121016070472F
:102610002DE9F84F044608208DF8020017464FF4C4
:102620008270ADF800000D46786800F06040B0F1AF
:10263000005F1E464FF000086DD105F541714FF067
:10264000FF30486094F8240020B1A068C5F8040366
:102650001120C8E006F01400401E8041C00F84F82D
:10266000240004F10C000ECF0EC0300904F1240147
:1026700000F001000C3F48704FF482717878DFF869
:10268000F891C5F888054FF4807A00F0B9F800F0A9
:10269000B5F831462846FFF7AEFF3878002840F2FB
:1026A000022B43D002282ED056D3032862D1B8681B
:1026B00000F06040B0F1005F2DD1C5F800A200F03D
:1026C00099F84FF4A87100F09BF84FF4B07100F046
:1026D00097F84FF4A47100F093F801202862A860E5
:1026E0004FF4A8712846FFF739FE0028F8D04FF4C0
:1026F000A87100F085F8FA78B9682846FFF733FE2C
:10270000C4F8089038E000F075F8B96801F060404E
:10271000B0F1005F01D0102065E0FA782846FFF79D
:1027200025FE4FF4845000F060F825E000F062F8D8
:10273000B0060CD5C5F800A2C4F808904FF4A471F7
:1027400000F05EF84FF4A470ADF800000FE04FF415
:10275000007000F04AF80AE0BA7879682846FFF776
:1027600005FE4FF4805000F040F88DF80280012003
:10277000286201E04FF00708300706D438780328B4
:1027800003D09DF80210012048512068B8B17007AD
:1027900044BF4FF40070A060A068C5F8040320E0B7
:1027A0004FF492712846FFF7D9FD40B100F026F8AA
:1027B0000120286268614FF48270ADF8000028465D
:1027C000BDF90010FFF7CAFD0028E9D0D5F8C40410
:1027D000C5F8C404002184F8241010B1FFF72FFEBF
:1027E00080465FFA88F0BDE8F28FC5F80002C4F8B1
:1027F00008B07047BA7879682846B4E54FF492710A
:102800002846A3E538B513460A4601680079184CF6
:10281000282515FB004001B0BDE83040F8E6FEB5C4
:102820000FF25805B5E8C01000ACA4E8C01000F0E5
:1028300005F8002200A9FFF7E5FFFEBD8DF80110A5
:1028400001928DF8023070470805005008080050CA
:102850000C0500500C080050280200200024F40051
:10286000FC01002000070050100500501008005027
:10287000B009002080E100E0000204000100000037
:10288000000000000000000081B000220A5008583B
:102890000090009801B07047085800B10120C0B204
:1028A000704700F20C5001E000F5A1600160826009
:1028B000704741EA420141EA830210B5029920289B
:1028C00042EA012232BF4FF0A04400F01F00DFF8BF
:1028D0003444039904EB800042EA0141C0F8001738
:1028E00010BD00B583B000210191009101220023A9
:1028F000114606E000B583B00022019200920B461B
:102900000021FFF7D6FF07BD202832BFDFF8F813FC
:1029100000F01F00DFF8F413012202FA00F0086053
:102920007047DFF8EC1308B90846704701F108005A
:10293000704738B50D460446286810F1010F04D0E1
:10294000FFF7E2FF2868FFF7CCFF686810F1010F7E
:102950001CBF0021FFF7CEFF2068AA6900F22451B6
:102960000A606A7D2B7D1A438A6429686A68FFF7CA
:1029700098FF287D012815D1A86810F1010F1CBF10
:102980000021FFF7B7FFE86810F1010F04D0FFF74F
:10299000BBFFE868FFF7A5FFAA68E9682068BDE803
:1029A000384081E731BD38B504460D4620684FF404
:1029B0008871FFF769FF20684FF49071FFF764FF9B
:1029C00020684FF49271FFF75FFF00F0CDF82068A8
:1029D000DFF84013C0F8041300032946BDE8344073
:1029E0000016FEF74ABCF8B500F023F800EB4116DC
:1029F0001746F07E08B10820F2BD687F307729467F
:102A00002046FFF796FF776028693060706818B13C
:102A1000297F2046FFF7C7FF21680820C1F800057D
:102A20000020F0753076B0750120F0760020B07689
:102A3000F2BD0D460446DFF8E00221797047F8B593
:102A400000F0E4F84FF49071FFF71EFF20684FF498
:102A5000AC71FFF719FF2168A87DAB6801F2445201
:102A600000261360506001208860686870B9206893
:102A70004FF49071FFF710FF074600F0C3F850EADB
:102A80000701F4D000B10F260020A8753046F2BD32
:102A9000F8B5FFF7CEFF00EB411705F06040B0F14D
:102AA000005F16460AD1204600F00CF840B9BE750A
:102AB000BD60B8822046BDE8F240C0E71020F2BDFC
:102AC0001120F2BD0079944901EB4010807D00B1E6
:102AD000012070472DE9F04104460E462068174654
:102AE00098464FF48871FFF7CFFE00F03DF820685C
:102AF00000F2345100250E60B8F1000F4F6002D192
:102B00000121016005E0D0F8001241F02001C0F879
:102B100000122179804E06EB41114968E9B920681D
:102B20004FF48871FFF7B8FE804620684FF4A27119
:102B3000FFF7B2FE074620684FF49271FFF7ACFE34
:102B400047EA08010143EAD0217906EB4111CD752E
:102B500000B103252FB10F2503E04FF40471C0F835
:102B600004132846BDE8F08120684FF4A2718BE67B
:102B700070B50479684B03EB441401F06043B3F182
:102B8000005F13D1666800234FF404751EB1066818
:102B900006F541767560E67D76B1237E43B16168C6
:102BA00011B10068C0F80453112070BD102070BD31
:102BB00001232161227603E0E275E16063762376EA
:102BC000BDE8704086E700B585B0034601208DF86A
:102BD00008108DF80000019200A819685A680EE0EC
:102BE00000B585B0024600208DF800008DF8081071
:102BF000906801900020907500A811685268904775
:102C000005B000BD20684FF4AC7145E6044642486B
:102C1000217900EB4115206870477FB50C464FF4D1
:102C200092710546FFF738FE05F23C56C0B14FF4ED
:102C3000927100F05EF802208DF80000D5F8800453
:102C4000C5F88004039030688DF80800E0680190B2
:102C50000020E07520762168626800A8904722E095
:102C60004FF488712846FFF717FEE0B14FF48871E2
:102C700000F03FF83168E07DC9B2814213D1E268CB
:102C8000207E60B1D5F8000220F02000C5F80002D7
:102C9000207EE0752069E0600020207600E0E0758D
:102CA0002046FFF790FF4FF4A2712846FFF7F4FD8E
:102CB00068B14FF4A27100F01CF8E07D38B100203B
:102CC000E07520463168E268C9B2FFF77CFF4FF437
:102CD00090712846FFF7E0FD50B14FF4907100F07D
:102CE00008F8A07D20B13169C9B22046FFF778FF0E
:102CF0007FBD2846C8E5084908488EE708490948C5
:102D00008BE7000000030050080500500808005041
:102D10000C02002010030200880A0020002000405E
:102D2000A80A0020008002402DE9FC4104460D461F
:102D3000FFF7F7FD00F057F9287806EB041706EBCC
:102D4000840838B3012832D16868017807F11C0083
:102D500000F043FA60B907F11C0000F00BFA38B13B
:102D60000C2010FB04F08119097A09B180598047C1
:102D700007F11C0000F0FEF9398C814206D30122D4
:102D800008F15C0100A8FFF7F3FE10E0A119012093
:102D900088760CE008F1640107F13C0000F02DFAA0
:102DA00028B9012208F1640100A8FFF771FEBDE80F
:102DB000F38101460020B7E701460120B4E72DE981
:102DC000F0420446022C8AB0894616461F4680F21D
:102DD000A3800FF28031DFF8485302A891EC080B72
:102DE00080EC080B2046FFF79CFD0246D2E900016B
:102DF000CDE900010C2010FB04500021017241724A
:102E0000B9F5966F039602972FD0B9F5166F2FD0AC
:102E1000B9F5965F2FD0B9F5165F2ED0B9F5615F81
:102E20002DD0B9F5964F2CD0B9F5E14F2BD0B9F58F
:102E3000164F2AD0B9F5614F2AD0B9F5963F2AD05E
:102E4000B9F5E13F29D0B9F5613F29D0DFF8D402C7
:102E5000814528D0B9F5E12F28D0B9F5612F28D0C8
:102E6000DFF8C402814527D029E04FF49E2025E0F9
:102E70004FF41D2022E0AD4820E0AD481EE0AD48F3
:102E80001CE0AD481AE0AD4818E04FF41D0015E015
:102E90004FF46B0012E0AA4810E04FF0EB700DE029
:102EA0004FF06C700AE04FF0806007E04FF0E86090
:102EB00004E04FF0706001E04FF08050089005EBA7
:102EC000041705EB8406042206F15C0107F11C00DF
:102ED00000F072F900BB042206F1640107F13C0026
:102EE00000F06AF9C0B9002C0CBF964A964A02A9B4
:102EF00000A8FFF778FD78B90398FF280ED09DF859
:102F0000250010B900A8C046C046012206F15C01A8
:102F100000A8FFF72DFE08B1002002E06119012092
:102F200008760AB0BDE8F082022801DB0020704775
:102F30000C2250437A4A81508018012101720120ED
:102F40007047F8B50446022C0D46164601DB0020FA
:102F5000F2BD002704E07919204600F01EF87F1C1E
:102F6000B742F8D30120F2BDF8B5022804460D4659
:102F700016460EDA6A494018007E50B1002700E07C
:102F80007F1CB74207D2795D204600F032F8002856
:102F9000F6D10020F2BD0120F2BD2DE9FC4105462D
:102FA000022D88460CDAFFF7BCFC00F01CF8AF19C4
:102FB00006EB0510BC7E41461C3000F01EF908B13E
:102FC00000200EE064B1B876012206EB850000F126
:102FD0005C0100A8FFF7CCFD401E8041C00F00E05F
:102FE0000120BDE8F6814E4ED0E90023CDE9002353
:102FF00070472DE9FC410446022C0D46A8BF002075
:1030000035DAFFF78EFCFFF7EEFF06EB041808F148
:103010003C0000F0AFF8B8F84010814206D32946D2
:1030200008F13C0000F0D9F8074605E04FF47A714A
:10303000204600F01FF800B9A7B900A8FFF742FD2D
:10304000A0B906EB840404F1640108F13C0000F02F
:10305000D4F8070006D1012204F1640100A8FFF7AB
:1030600017FD0746781E8041C00F00E00120BDE833
:10307000F681000030B583B00C46FFF752FC334DAB
:10308000D0E90023CDE9002300E0641E00A8FFF78B
:1030900019FD002842D029682D4A012000BF00BF39
:1030A00000BF00BF00BF00BF00BF00BF91422FD0D4
:1030B00000BF00BF00BF00BF00BF00BF00BF00BF18
:1030C00000BF00BF00BF00BF00BF00BF00BF00BF08
:1030D00000BF00BF00BF00BF00BF00BF00BF00BFF8
:1030E00000BF00BF00BF00BF00BF00BF00BF00BFE8
:1030F00000BF00BF00BF00BF00BF00BF00BF00BFD8
:1031000000BF00BF00BF00BF00BF00BF00BF00BFC7
:10311000401EC3D1002CB8D100203EBD01203EBDD1
:10312000DC08002090D0030040420F0000B01300E4
:103130000050270000F03A0000A04E0000C07500CB
:1031400000903A01B32D0000B92D000028020020A4
:103150000024F400FFFFFFFFFFFFFFFFFFFFFFFF63
:10316000FFFFFFFF00000000000000000000D6018C
:10317000070100008168C068401A704710B50268F6
:10318000C368848823409954C168491CC16010BD3C
:1031900010B503688468808814FA81F10840C05C27
:1031A000107010BD10B50A4604460021FFF7F0FF6D
:1031B000A068401CA06010BD09B90E20704712B174
:1031C000531E134201D0092070470160511E8180B7
:1031D00000218160C1600020704738B504460D466B
:1031E000FFF7C8FFA188814205D329462046FFF793
:1031F000C5FF002032BD042032BD38B504460D465F
:10320000FFF7B8FF28B129462046FFF7CBFF002083
:1032100032BD052032BDFEE781B000220A500858B9
:103220000090009801B07047085800B10120C0B26A
:10323000704741EA420141EA830210B50299202811
:1032400042EA012232BF4FF0A04400F01F00DFF835
:10325000D842039904EB800042EA0141C0F800170C
:1032600010BD00B583B0002101910091012200231F
:103270001146FFF7DEFF07BD202832BFAB4900F043
:103280001F00AB4905E0202832BFAA4900F01F000B
:10329000A949012202FA00F008607047A74918B155
:1032A000022806D002D307E00846704701F1080063
:1032B000704701F11000704701F1180070472DE9C7
:1032C000FC4705464FF0240A6879DFF874821AFB40
:1032D00000840E46207F08B108206DE02260636004
:1032E000317C3078022902DAFFF7CDFF01E0FFF7E9
:1032F000C3FF002001900090024630780023012196
:10330000FFF797FF7778FF2F4FF0FF3906D0384649
:10331000FFF7B9FF3846FFF7A4FF00E04F46B0784B
:10332000FF2809D08146002001900090014601232A
:1033300000224846FFF77DFFF078FF2804D0FFF712
:103340009BFFF078FFF78DFF6879F1781AFB00801A
:1033500081772868327800F5A0618A60CF60C1F873
:103360001090F2684A62737C327C03B10123012A17
:1033700009D00AD3032A03D038BF43F0040304E082
:1033800043F0060301E043F002034B657279C0F895
:10339000C025226812B14022C0F80423072008602B
:1033A000206820B1317995F90400FDF766FF00200F
:1033B0006077012020770020BDE8F68700B585B052
:1033C00000918DF804200293002206998DF80C10CC
:1033D00000A900F05BF805B000BD00F541700029C0
:1033E00007BF4021416040210160704700F5A8609F
:1033F00011F0010218BF012211F00201026118BF91
:10340000012101607047F8B5044610680D46002898
:103410001CBF00F06041B1F1005F1E4607D191680A
:1034200000291CBF01F06043B3F1005F03D000200E
:1034300068771020F2BD137904F2345738617B614C
:10344000107B3960786000F068F831462046FFF75D
:10345000CDFF30075CBF01202061286860B94FF4C0
:103460008C712046FFF7E0FE0028F8D0A87FFF28E7
:103470000AD0FFF701FF07E0B00800F0010080F07C
:1034800001012046FFF7A9FF0020F2BDF8B50D4667
:103490000446164661792A48242212FB0107787FE8
:1034A00008B11120F2BD386820B116F0140F04BF26
:1034B0000120787795E80F0007F10C0C8CE80F00DD
:1034C00097F8210000F0F80087F82100B87FFF2866
:1034D00018BFFFF7D8FE206833462A46394601B0A8
:1034E000BDE8F0408FE738B50D4604464FF48C71C7
:1034F000FFF79AFE80B100F010F8A87FFF2818BFF0
:10350000FFF7BAFE00206877287269682A6805F11B
:103510000800BDE83840104731BD4FF48C7120469B
:103520007AE607490748DEE7000300500805005027
:10353000080800500C0500500C080050B401002091
:103540004C08002000300040012100F01F02914093
:10355000904A04E0012100F01F0291408E4A400988
:1035600042F8201070474901002806D58B4A00F028
:103570000F00801800F8041C7047894A8154704776
:1035800081B000220A5008580090009801B070479E
:103590002DE9F8450446032C0D4651DA844FE05DD1
:1035A00000284DD1FDF7B9FE0020FDF7DAFEDFF867
:1035B000FC817C4EDFF8F0A124B1012C0CBF5046F9
:1035C000404600E03046C0F808551CB1022C18D027
:1035D0000CD32AE002210B20FFF7C5FF0B20FFF7D9
:1035E000B9FF0B20FFF7B0FF304615E00221112094
:1035F000FFF7B9FF1120FFF7ADFF1120FFF7A4FF80
:1036000017E002212420FFF7AEFF2420FFF7A2FFDE
:103610002420FFF799FF40464FF48071FFF7B0FF79
:103620004CB1012C08D1D04606E0002CDCD0012C96
:10363000F1D15046F0E7B0460120C8F80403E05548
:10364000BDE8F18520B101280CBF5748574800E07C
:103650005448FFE70121016070475748006800B9EE
:10366000704710B54FF480714E4800F020F8207874
:1036700008B1A0688047207918B1BDE8104000204B
:103680002CE010BD4D48006800B9704710B54FF4EC
:103690008071454800F00BF8607808B1E068804719
:1036A000607918B1BDE81040012017E010BD414C11
:1036B00066E74348006800B9704710B54FF4807161
:1036C0003A48FFF7F4FFA07808B120698047A07955
:1036D00018B1BDE81040022000E010BD032800DB57
:1036E000704770B53749384B4018027B521C027343
:1036F000D2B21C785D789E78082A10D1641CE4B29E
:1037000000223C2C01BF00246D1CEDB23C2D027345
:1037100005D1761C0025F6B2182E08BF00269E7033
:103720005D701C70087A48B118780A78904205D309
:1037300000200872BDE870400869004770BD10B5F0
:10374000032804460EDA1B494018017951B90121BA
:103750000171204640F6FF71FFF71AFF2046BDE8D1
:1037600010406FE710BD002100220846FFE7164B0E
:10377000187059709A70704713480078704737B5C1
:1037800000A934C90F48012134C00C38017203610B
:1037900037BD000000E100E080E200E018ED00E04D
:1037A00000E400E000B00040001001400040024092
:1037B000D00B0020500B002000B100400011014050
:1037C00000410240E8010020D40B0020027A91421F
:1037D00001D30020704701EB410108180930704700
:1037E0004278914201D3002070478278101808185F
:1037F0007047C269130018BF1047704780B5002199
:1038000001E080B50121FFF7E1FF0021FFF7E8FFAC
:10381000007802BD80B50121FFF7D8FF0121F5E74F
:1038200080B508B1032002BD086810F8081F2029E0
:1038300006D1811C07220C30FDF7AAFC002002BD36
:10384000062002BD30B5044685B08B782068202B59
:1038500000F1080202D0222B2DD04DE0B1F8072054
:10386000072A49D1202200F8082F0022B1F80710BA
:103870004170002302A915462CC1811C0291407899
:1038800003901046FDF7CDFC02A92846FEF711F97A
:1038900005000BD10FF2981000A9D0E90023CDE963
:1038A000002301940020FEF7FAFC05460020FDF7F6
:1038B000B9FC284621E0B1F80700E8B9107DB1F85D
:1038C000031000F0010001F00105A842918211D01F
:1038D000002D14BF022103212046FFF78AFF4DB9B6
:1038E0002046FFF78EFFFCF7E9FD2046FFF792FF29
:1038F000FCF7E4FD002000E0062005B030BD10B567
:103900000C4682B061784A09C90902F0030221D04D
:1039100012B1012A0ED024E0A178062921D100217C
:10392000009100ABE2782179FDF75DFE010018D02F
:10393000009A0BE00068A1780830212904BFB4F890
:10394000071007290DD1072200F10C01601CFEF7BA
:1039500073FC16BD2AB1012A03D12146FFF772FF7D
:1039600016BD062016BD000070B50D460446287829
:1039700000260A2824D8DFE800F02D2D2D2D23065F
:103980000A25292D2D002046FFF7B9FF21E020460A
:10399000FFF734FFA97888421CD0E878090602D5E1
:1039A00020B9012106E020B1012813D0032811D04D
:1039B00004E000212046FFF71CFF0BE0032609E08E
:1039C000062607E02046FDF7EDFF02E02046FDF762
:1039D000F3FF0646304670BD82690A604069704751
:1039E00080B5FFF717FF00A9FDF778FA08B10020AE
:1039F00002BD009802BD70B584B000F009F858BF50
:103A0000082003D5FFF706FF00F008F804B070BDEA
:103A10000D460168097FC9071446704700A90022B6
:103A2000002316464CC10095019400A9FEF741B849
:103A30002138000000000000DFF81C12085801289F
:103A400018BF0020704700F1804000F5C040002101
:103A500081B0016000680090009801B07047202894
:103A600032BFDFF8FC2100F01F00DFF8F82152F828
:103A7000203023F4403342F8203052F8203043EA1B
:103A800001411BE07CB50FF2EC1460CC00AB60C3CD
:103A9000034607E000AC54F82340D4F8104542F840
:103AA000044B5B1C0C18A342F4D373BD012200F03D
:103AB0000703C0089A40405C1040704742F820104D
:103AC00070472DE9F04F89B002A800210A4606C0D0
:103AD00000264FF48079012708250FFA89F0FFF7B7
:103AE000ABFF00281EBF61480068384204D00FFABF
:103AF00089F0FFF7A8FF3E437F006D1E09F104091E
:103B0000EBD14FF4BE70FFF797FF50B14FF4BE708A
:103B1000FFF799FF02AA02210020FFF7B3FF46F04A
:103B200000463006DFF8409115D00127504C37424F
:103B30000DD054F8250054F8251059F8252013000D
:103B400005D0090C01F00301C0F3052090477F0068
:103B50006D1C082DEBD3002E7BD506A8002100227A
:103B600006C04FF0FF300090019006AE06E0049AC8
:103B700002924160069A7068009201900027002529
:103B800005EB090090F96000C4B210F1010F24F0B8
:103B9000C0084BD000A94046FFF788FF002845D059
:103BA000A00900F0030408EB090090F9300059F86F
:103BB00020A0BAF1000F02D1032C37D101E0032C71
:103BC00008D14FEAD8000122815D08F007039A402E
:103BD000114381554046202832BF4FF0A04100F0EC
:103BE0001F001E4901EB800002A9D0F80007000C5D
:103BF00000F0030B4046FFF759FF18B1BBF1020F6D
:103C000014D102E0BBF1030F10D1032C08D1BBF19A
:103C1000020F0CBF032102214046FFF720FF7F1C4B
:103C2000BAF1000F02D021464046D0476D1C042D4A
:103C3000A6D3FFB26FB104AA02210020FFF722FF32
:103C4000049A029B059902A89A4204BF42689142D5
:103C50008DD109B0BDE8F08F006000400003005036
:103C600000070050000A005048090020046300408B
:103C7000106500400000005000030050754800F03F
:103C8000FFB880B5012200A90020FFF75AF90122F0
:103C900000A9012008E080B5012200A90120FFF75A
:103CA00050F9012200A90020FFF75EF901BD80B59F
:103CB00000F095F80A2000F014F9002100F090F8C7
:103CC000BDE802400A2000F00CB910B504460021FE
:103CD00000F082F804F07F01002000F001FA0021DA
:103CE000002000F0FDF9044600F075F8204610BDF4
:103CF00080B5062308224FF4E1310020FFF75FF87A
:103D0000222321224FF4E1310120FFF758F85249D4
:103D10000020FFF709F9BDE8044050490120FFF7F2
:103D200003B92F232E222D21002000F051B980B598
:103D30001F221E21002000F0E3F94FF0CC7100207B
:103D400000F025FA01208DF800009DF800100020F9
:103D500000F03FFA08B100F074F80A2000F0C1F852
:103D60009DF80000401C8DF800009DF800008028A0
:103D7000EBDB01BD10B584B000F05DFAFFF7B8FFD2
:103D8000FFF7CFFFFFF7D3FF0220FFF7ECFC0FF2A6
:103D9000E4011CC900A81CC00F208DF8000000A879
:103DA00007C80FF2A903FFF7EAFC0220FFF7C7FCE0
:103DB00009210D2000F0C2FA09212C2000F0BEFAE2
:103DC00000F009F80921032000F0B8FA00F007F824
:103DD000BDE81F406BE701212C2000F0DFBA012174
:103DE000032000F0DBBA10B582B000F037FA00F023
:103DF0006BF81B4C2168401AB0F57A7F20D300F095
:103E000063F820600D2000F0CAFA4220FFF75DFF42
:103E10008DF8010001220DF101010020FFF7A4F847
:103E2000FFF7AAFC8DF8000000F00BF8A068411C19
:103E3000A160062261684A438242BCBF481C6060A0
:103E400013BD012200A90020FFF78EB8054900200C
:103E500008707047980B0020833C0000973C0000DE
:103E60001C020020DD0B002080B5FFF783FFFFF769
:103E7000BAFFFCE7000000000101D00700000000CD
:103E8000002141604FF47A718160024901607047FE
:103E90000000000078490000194800684FF47A716A
:103EA000B0FBF1F0401EB0F1807F0CD21549164AEC
:103EB0004860E02010700020886007200860012022
:103EC000124908707047FEE710B5104C207808B909
:103ED000FFF7E2FF606810BD0C484168491C416073
:103EE000704738B5094D0446287808B9FFF7D4FF64
:103EF0002CB16868611E6A68121A9142FBD231BD0A
:103F00002802002010E000E023ED00E0BC0B0020C0
:103F10006B4A801801210171704701460020F7E7C4
:103F200001460120F4E701460220F1E701460320A3
:103F3000EEE7000030B5624A624D00E0491E131DF5
:103F4000C35C002B42D0604B1C68012300BF00BF44
:103F500000BF00BF00BF00BF00BF00BFAC422FD0FA
:103F600000BF00BF00BF00BF00BF00BF00BF00BF59
:103F700000BF00BF00BF00BF00BF00BF00BF00BF49
:103F800000BF00BF00BF00BF00BF00BF00BF00BF39
:103F900000BF00BF00BF00BF00BF00BF00BF00BF29
:103FA00000BF00BF00BF00BF00BF00BF00BF00BF19
:103FB00000BF00BF00BF00BF00BF00BF00BF00BF09
:103FC0005B1EC3D10029B9D1002030BD012030BD16
:103FD00070B50446042C01DB002070BD3B4D142657
:103FE00016FB04546170FF21E1706171A171A27030
:103FF00000212174E17123704FF08041E1600021C4
:104000006174072121712146BDE87040F0B5044676
:10401000042C83B00E4624DAFFF740F92B4DD0E98B
:104020000023CDE90023142010FB04F77819314652
:104030001422FDF7BDF8224EA119002008711CB111
:10404000022C05D002D305E0214A04E0214A02E017
:10405000214A00E0214A0023791900A8FFF72FF92F
:1040600008B10020FEBD0120A055FEBD2DE9F042A3
:104070000446042C84B00D4616469946A8BF00207D
:104080001ADA0F4FE05DB8B12046FFF707F9024694
:104090004B46D2E90001CDE901013246E119002089
:1040A000087129460A98009001A8FFF787F94FF494
:1040B0007A712046FFF73EFF04B0BDE8F0820000B1
:1040C000C40B00200024F40028020020440100203A
:1040D0001B3F0000213F0000273F00002D3F000054
:1040E00000B583B001AB8DF80510012201210091CC
:1040F0000DF10501FFF7BAFF08B19DF804000EBDF0
:1041000010B5022801DB002010BD03012D4C195110
:1041100019194A60BDE81040BCB50446022C0D4692
:1041200014DAFEF783F9274FD0E90023CDE9002305
:1041300095E80F0007EB041585E80F000023002227
:1041400007EB041100A8FEF7CAF908B10020B6BDBC
:104150001D490120605400A8FEF727FA0120B6BDD2
:1041600030B50446022C83B001DB00203EBD164D65
:10417000615D51B1FEF75AF9D0E90023CDE9002382
:1041800000A8FEF7E5F90020605501203EBD38B5D6
:104190000D46B5F1CC7F1CBFB5F1806FB5F1CD6F89
:1041A000044601D0002032BDFFF7DAFF18B100F05D
:1041B00003F88D600AE032BD024800EB041120468E
:1041C0007047000094010020D80B0020BDE8344067
:1041D000A2E710B5022884B00C46A8BF00200EDA72
:1041E000FEF724F92146D0E90023CDE9012301A8F7
:1041F000012300AAFEF713FB401E8041C00F04B04C
:1042000010BDFEE720B1022804D00A2804D0704770
:10421000FEF75AB8FDF7DEBAFDF7CABA0D480178C5
:1042200042788A4206D04170002918BFFDF7C2BA11
:10423000FDF7CCBA704710B5074C207808B10020C4
:1042400010BD0FF23000FDF766FA0120207010BD9E
:1042500000000000DA0B0020DE0B002080B5FDF727
:104260008DFB0028FBD1FFF7D9FFBDE8014000F02E
:10427000D0B800000000000005420000010000006E
:1042800041EA420141EA830210B50299202842EA3C
:10429000012232BF4FF0A04400F01F00224C0399CE
:1042A00004EB800042EA0141C0F8001710BD00B5E0
:1042B00083B00022019200920B46002106E000B577
:1042C00083B00B460192002100220092FFF7D8FF35
:1042D00007BD202832BF154900F01F00144905E032
:1042E000202832BF134900F01F001349012202FAAF
:1042F00000F008607047202832BF4FF0A04100F066
:104300001F00094901F2045101230A6803FA00F071
:1043100020EA02034B60104088607047002908BF04
:10432000FFF7DEBFD5E7000000030050080500508E
:10433000080800500C0500500C080050092900D94D
:10434000704700B583B0DFE801F00507090E1012D1
:1043500014171A20002102E0032100E0012103B01C
:104360005DF804EBA3E7032204E0032205E0032247
:1043700006E00222002104E00222032101E00222E1
:10438000012103B05DF804EB99E700210191009150
:10439000012200231146FFF773FF07BDBEE7AAE71E
:1043A00070B50FF2A805284CC9B1022903D013D368
:1043B00003290ED070BD012020744FF4806204F1F7
:1043C00014012846FFF717FB10B3BDE8704000F05A
:1043D0004DB80020207470BD0020A07470BDFFF7A0
:1043E000FFFA0646207B20B1A268314604F1140092
:1043F0009047207918B10120A671607170BD04F159
:1044000014012846BDE870404FF48062FFF7F3BA0C
:1044100070BD10B50C4C207900281CBF60790028B5
:1044200010D000206071A179226804F11400904737
:1044300004F11401BDE810404FF480620FF20C004B
:10444000FFF7D9BA10BD00002C020020300B00206D
:10445000504A0000020301060402048483030000A2
:10446000A048000042000000A143000010B584B045
:1044700000A90022002314461CC1029000AA19467C
:1044800044F2010000F002F81FBDFEE70848006892
:10449000C00700D500BEBFF34F8F0648064A01682B
:1044A00001F4E06111430160BFF34F8F00BFFDE7EE
:1044B000F0ED00E00CED00E00400FA053F48016873
:1044C000082904BF4168002906D13D4900220A603D
:1044D0004A6000213B4A11600168082904BF416815
:1044E000002923D1384A394913680B6053684B605F
:1044F00093688B60D368CB6013690B6153694B6120
:1045000093690B62D3694B62136A8B62536ACB6205
:10451000936A0B63D36A4B63136B0B64536B4B64EB
:10452000936B8B64D36BCB64126C0A6501680829AA
:1045300004BF4168002902D1254A2649116001685B
:10454000082904BF4168002902D1234AFB211160D8
:104550000168082904BF4168002909D11F49204B7F
:104560000A681B78120903F00F0343EA02120A607B
:104570000168082904BF4168002903D1194A4FF492
:10458000007111600168082904BF4068002806D145
:1045900015480168C90744BF6FF001010160134865
:1045A000016841F470010160BFF34F8FBFF36F8F5B
:1045B0000F491048086070470000000030010010EB
:1045C0000C010040380500400404001020C50040E4
:1045D0008C5600404881030018F50040E40E00406E
:1045E00058020010409602400004004088ED00E0B0
:1045F000280200200090D00381B000220A50085801
:104600000090009801B07047085800B10120C0B276
:10461000704700F2445001E000F234500160426003
:10462000704710B50C4684B0617D012904D020D3B9
:10463000032908D002D31FBD41621FBD00208DF8A1
:104640000000019009E001218DF8001000F23C50BB
:104650000168C9B201910069C0B20290A06808B9AE
:10466000FFF704FF00A807C8A36804B0BDE8104026
:1046700018471FBD4A75D4E738B50D4604464FF4B8
:104680009471FFF7C1FFD0B14FF494712046FFF74A
:10469000B3FF687D012812D12A68E968D2B22046AA
:1046A000FFF7B7FF6A682969D2B22046FFF7B4FF67
:1046B0000120A062022229462046FFF7DBFF4FF4CB
:1046C00082712046FFF7A0FF68B14FF48271204647
:1046D000FFF792FF687D022805D129462046BDE8F4
:1046E00038400322C6E731BD01490248C4E7000053
:1046F000300A002000300240816807E0026811683B
:10470000536889185B18C36008320260C26891421E
:10471000F4D04A1C8260087870472DE9FF4D00F103
:104720000801009100270268520801EBC2010191C3
:10473000B8460021029103910168490800EBC101CC
:10474000406800F0010501F10804400804EBC006D0
:1047500030E000A8FFF7D0FF4FFA80FA0AE0009897
:104760000168081800990290496808180390009899
:1047700008300090029803998842F0D010F801BBED
:10478000029047450CD1B44208BF00F01DF82768DD
:1047900005B14F44606800EB070808344745F2D084
:1047A000BAF1000F07F801BB0AD51AF1010AE8D1E6
:1047B0004745CED1B442CCD1304604B0BDE8F08DEF
:1047C000BAF1010AD6D5F3E7012000F001B8FEE7FF
:1047D0002021090326311820ABBEF9E72803560033
:1047E0006500670061002D004100620073006F00EA
:1047F0006C007500740065002E002000320030004F
:10480000310038001E036E0052004600350078006B
:10481000200055005300420020005600650067004C
:10482000610000001A03300030003000300030001A
:104830003000300030003000300030003000000028
:104840000E03550073006500720020003100000067
:1048500010B5124A02EB400302EB80029C888C43A5
:104860009C80BDE81040126910470C4881880020E8
:10487000EEE70A48C1880120EAE7084801890220DA
:10488000E6E7064841890320E2E7044881890420DD
:10489000DEE70248C1890520DAE70000080B0020A6
:1048A000080B0302020201000904030001020201D5
:1048B000000524001001052401030404240202055C
:1048C00024060304070584034000100904040002C1
:1048D0000A000000070583024000000705030240AC
:1048E0000000000019E050F8041BCB0744BFA9F1F9
:1048F00001035918121F0023042A41F8043BF9D27E
:104900005FEA827C0B4604D54FF0000CA1F800C092
:104910009B1CD10744BF0021197050F8042B002ABA
:10492000E1D1704710B5074979441831064C7C44F1
:10493000163404E00A68081D511888470146A14250
:10494000F8D110BD74000000A00000007521000027
:104950000000000000000000000000000000000057
:10496000B40B00204C49000001000203008000004D
:104970000000000000000000000000000000000037
:104980000000000000000000000000000000000027
:10499000000000004EF68851CEF20001086840F495
:1049A00070000860BFF34F8FBFF36F8F4FF0007040
:1049B000E1EE100A704700002DFFFFFFB409000070
:1049C0002C0200200000000053FDFFFF0200000049
:1049D00002000000DE000000B70000000000002020
:1049E0002C02000009000000FEE7000010B504469C
:1049F000044979440E31044878440C3000F006F83C
:104A0000204610BD800000007800000038B5044644
:104A10000D46AC4205D0206820188047241DAC42CA
:104A2000F9D131BD0120C046002801D0FFF77AFF3F
:104A30000020C046C046FFF717FA00F000F800F06B
:104A400001B8FEE707463846FFF7C2FEFBE7FEE780
:104A500069390000D93900000000000000000000A2
:104A6000000000000148804701480047BD440000A5
:104A7000754A0000C046C046FFF78CFFFFF7D2FF23
:104A8000FDF1FFFFFEE7FEE7FEE7FEE7FEE7FEE7DC
:104A9000FEE7FEE7FEE7FEE7FEE7FEE7FEE7FEE7EE
:104AA000FEE7FEE7FEE7FEE7FEE7FEE7FEE7FEE7DE
:104AB000FEE781008100BE00039B160000FCFF02A0
:104AC00007FFFFF8000040FC00FCFF0207FFFFF8B3
:104AD000000040FC00FCFF0207FFFFF8000040FC64
:104AE00000FCFF0207FFFFF8000040FC00001EFD75
:104AF00000001FFB0002980107FD00001EFD0000E2
:104B00001FFB0002980107FC003030004003000149
:104B10000000400040040101000030024023020177
:104B20000000F002402F03010040230000DC47009A
:104B30000004480000244800004048FA0003010136
:104B4000D007F300043000400001FD0004400040A5
:104B50000101FD0002200040FB000380024001F93A
:094B6000000001F8000290D003EE
:0400000500004A7538
:00000001FF
